:020000040800F2
:10000000582300203101000835010008370100089D
:10001000390100083B0100083D0100080000000014
:100020000000000000000000000000004101000886
:100030003F010008000000006B0200088D27000847
:1000400045310008C91C0008E5270008551F0008B5
:10005000150C0008F51E0008F10B0008FD0B000848
:10006000FF0B0008010C0008030C000899070008AA
:100070009B0700089D0700089F070008A1070008CC
:10008000A3070008A50700086D030008552D000808
:10009000492E0008C7030008C9030008050C000822
:1000A000E7270008ED270008EB270008E9270008EC
:1000B000FD2700084528000899280008EF0C0008D3
:1000C000ED0C0008F30C0008F10C0008BB1F000841
:1000D000BD1F0008212B0008232B0008252B00083A
:1000E000FB0B0008051F00082D2D0008F328000851
:1000F000F9280008F7280008F52800086B03000815
:10010000170C0008B91F0008ED280008BF1F0008E1
:100110001D2B00081F2B0008EF280008F1280008FD
:100120009107000893070008950700089707000843
:1001300004480047FEE7FEE7FEE7FEE7FEE7FEE7CE
:10014000FEE700004901000800F002F800F05CF84A
:100150000AA090E8000C82448344AAF10107DA4522
:1001600001D100F051F8AFF2090EBAE80F0013F018
:10017000010F18BFFB1A43F001031847DC310000E0
:10018000FC3100000A444FF0000C10F8013B13F062
:10019000070408BF10F8014B1D1108BF10F8015BE0
:1001A000641E05D010F8016B641E01F8016BF9D1D3
:1001B00013F0080F1EBF10F8014BAD1C0C1B09D12A
:1001C0006D1E58BF01F801CBFAD505E014F8016B9C
:1001D00001F8016B6D1EF9D59142D6D3704700002E
:1001E0000023002400250026103A28BF78C1FBD840
:1001F000520728BF30C148BF0B6070471FB502F0DF
:10020000C1FF1FBD10B510BD00F073F81146FFF718
:10021000F5FF02F099FF00F091F803B4FFF7F2FF49
:1002200003BC00F09BF80000EFF3108072B670473B
:1002300080F31088704724484FF0FF0101700020C0
:1002400080F309881D480121017020484FF080513A
:10025000016062B6FEE71D484FF0805101607047B3
:100260001A484FF0805101607047EFF3098028B1C0
:10027000203880E8F00F12490968086000B50A4884
:1002800080475DF804EB0B480B490A7802700C4874
:100290000C490A680260106890E8F00F203080F383
:1002A00009884EF0040E7047E5130008A1100008FD
:1002B0004D0000204F000020500000205A00002078
:1002C000600000206800002022ED00E004ED00E066
:1002D00002480349034A044B70470000581D0020A0
:1002E00058230020581F0020581F002070477047D7
:1002F0007047754600F028F8AE460500694653463B
:1003000020F00700854618B020B5FFF7E1FFBDE8F3
:1003100020404FF000064FF000074FF000084FF06C
:10032000000B21F00701AC46ACE8C009ACE8C009FD
:10033000ACE8C009ACE8C0098D4670470446AFF38D
:1003400000802046FFF769FF00487047F81C002036
:1003500001487047704700BFFC1C0020014918206D
:10036000ABBEFEE72600020070477047704710B52D
:1003700002F00EFA0121072001F004FD01210846D8
:1003800001F0F0FC0121480201F01CFD01214FF4B5
:10039000FE7001F017FD0121C80501F0F3FC0020FB
:1003A00001F0AAFD02F0F6FC02F0D6FC02F08EFB92
:1003B00000F0FDFC01F026FD10BD0146CAB20B1293
:1003C00043EA0220704770477047000010B50024D0
:1003D00076E147F6FF70C0490860C048008800F029
:1003E0000F00BF49087008460078F0BBBD480068A0
:1003F00000F44050BC490880BC48D0F8000C00F024
:100400003000BB490880B749096889B24BF68F7242
:1004100001EA020080F40050B449C1F8000CB1496F
:10042000096889B248F6BF7201EA020080F0200034
:10043000AE49C1F8000CA948008810F0100F3DD15A
:10044000A848006880B248F60F7100EA0100A74989
:10045000C1F8000C00F04EFCA249096889B24BF6C5
:100460008F7201EA0200A04900E0E9E0098811F476
:10047000805F01D080F480509B49098811F4005FAF
:1004800001D080F40050974908609849D1F8001CC9
:1004900089B248F6BF7201EA02009549098811F055
:1004A000100F01D080F010009149098811F0200F41
:1004B00001D080F020008B49086010BD8948006899
:1004C00084B214F0800F3BD08648006880B248F6B2
:1004D0000F7100EA01008549C1F8000C00F00AFC28
:1004E0008049096889B24BF68F7201EA02007E49A1
:1004F000098811F4805F01D080F480507A4909881E
:1005000011F4005F01D080F400507649086077490B
:10051000D1F8001C89B248F6BF7201EA02007449A2
:10052000098811F0100F01D080F01000704909887F
:1005300011F0200F01D080F020006A490860BCE76C
:1005400014F4006F3CD067480068C0F30E0048F612
:100550008F7100EA01006549C1F8000C01F088FEC6
:100560006049096889B24BF68F7201EA02005E4960
:10057000098811F4805F01D080F480505A490988BD
:1005800011F4005F01D080F40050564908605749CB
:10059000D1F8001C89B248F6BF7201EA0200544942
:1005A000098811F0100F01D080F01000504909881F
:1005B00011F0200F01D080F020004A4908607CE74C
:1005C00014F4004F7CD047480068C0F30E0048F692
:1005D0008F7100EA01004549C1F8000C01F03AFBB7
:1005E0004049096889B24BF68F7201EA02003E4920
:1005F000098811F4805F01D080F480503A4909885D
:1006000011F4005F01D080F400503649086037498A
:10061000D1F8001C89B248F6BF7201EA02003449E1
:10062000098811F0100F01D080F0100030490988BE
:1006300011F0200F01D080F020002A4908603CE72B
:1006400027480078294901EB8000D0F8000C84B2DB
:1006500014F4004F18D02248007801EB8000D0F845
:10066000000CC0F30E0048F68F7108401C49097851
:100670001E4A02EB8101C1F8000C19490978491E94
:100680001C4A52F82100804714F0800F18D01448FB
:100690000078164901EB8000D0F8000C80B248F6D3
:1006A0000F7108400E490978104A02EB8101C1F828
:1006B000000C0B490978491E0F4A52F82100804767
:1006C0000548006880B20549088010F4004F7FF4A7
:1006D00080AE00BFF1E60000445C0040E000002076
:1006E00084010020005C0040980100200050004080
:1006F0009A010020C4000020A80000200C4901EB52
:100700008001D1F8001C11F4804F0FD0084901EB93
:100710008001D1F8001C89B248F68F72114041F473
:100720008041034A02EB8002C2F8001C70470000BF
:10073000005000400C4901EB8001D1F8001C11F081
:10074000400F0FD0084901EB8001D1F8001C89B29D
:1007500048F68F72114041F04001034A02EB8002DB
:10076000C2F8001C7047000000500040074901EB30
:100770008001D1F8001C89B248F68F621140034A0B
:1007800002EB8002C2F8001C7047000000500040DD
:1007900070477047704770477047704770477047A1
:1007A00070477047704700002DE9F04729480068FE
:1007B00000F110052E8827480068077AEEB9042F4B
:1007C0001BD125480078012812D100212348006858
:1007D00080B200F10200224A42F810104FF03000BF
:1007E0002049088000BF4FF000001B49087003E05B
:1007F000072710201B49088027E0AC88A64201D8B3
:10080000042000E002200746B44200D93446A0B2DA
:10081000A96888478046002000F030FA8146A2B2DD
:100820000146404602F020FBA1B2002001F074FC1A
:100830002888001B28806888204468803020094967
:10084000088000020849088000BF024909680F7249
:10085000BDE8F0878801002080010020505C004046
:10086000006000409A010020980100202DE9F0412D
:100870002948006800F110042688A068C0B1BEB104
:10088000A588B54200D93546A8B2A1688847074671
:100890002088401B2080608828446080002000F071
:1008A000C9F98046AAB20146384601F0FBF900BFFB
:1008B000208850B14FF44050184908800021084664
:1008C00001F02AFC3020164908802088A18888423F
:1008D00004DB03201049096808721AE02088002808
:1008E00004DD05200C490968087212E0208880B9EF
:1008F000062009490968087200210A48006880B288
:1009000000F10200084A42F810104FF0300004498C
:100910000880BDE8F08100008801002098010020D7
:100920009A010020505C0040006000402DE9F05F1B
:100930009848006845780027BA46062D1AD1954890
:100940000068007810F07F0F13D192490968887809
:10095000012803D190490968CF690AE0022803D130
:100960008D4909680F6A04E0032802D18A490968A1
:100970004F6A91E0F5BB874800684088D0BB854846
:100980000068C088022859D182480068007988BB75
:1009900080480068007810F07F0F05D17D4800681E
:1009A000808808B97D4F77E07A480068007800F0C9
:1009B0007F0001280ED1774909684879764909688E
:1009C0008A6900219047C0BB72480068807AA0B352
:1009D000724F61E06F480068007800F07F000228E5
:1009E0005AD16C480068407900F00F0669480068E9
:1009F000407900E022E000F0700966480068407924
:100A000010F0800F07D0664800EB8600D0F8000C8D
:100A100000F0300806E0624800EB8600D0F8000CD9
:100A200000F440585F480078B04235D9B9F1000F62
:100A300032D1B8F1000F2FD0584F2DE0082D07D13B
:100A400054480068007810F07F0F25D1564F23E0FE
:100A50000A2D21D14F480068007800F07F0001285E
:100A60001AD14C480068807AB0B14A480068408882
:100A700090B948480068007970B946480068C08855
:100A8000012809D1434909684879434909688A69B5
:100A90000021904700B9454F57B13E480068A0F883
:100AA00012A03C48006887610020B84700240FE08E
:100AB000384A12685078384A1268116988470446E3
:100AC000032C05D10920334909680872BDE8F09F5D
:100AD00030480068008AA0F57F41FF3904D1092021
:100AE0002C4909680872F1E7022C03D029480068F4
:100AF000008A20B90820274909680872E6E72548D6
:100B00000068007810F0800F3BD022480068B0F8F1
:100B100006B020480068008A584504D91D49096874
:100B2000A1F810B023E01B480068008A1949096841
:100B3000C98888421BDA17480068008A1649096884
:100B400091F82C10884203DA0020194908700EE051
:100B500010480068008A1049096891F82C1090FB31
:100B6000F1F201FB120010B90120114908700A4886
:100B7000006890F82C10074800688182FFF714FE87
:100B800006E0032003490968087200030949088048
:100B900000BF9BE7880100208C010020FD24000895
:100BA00000500040F000002081240008D1240008FB
:100BB0008001002098010020002001490860704752
:100BC000A000002010B5032000F046F80649086098
:100BD0000846006882B24FF48871044801F062F858
:100BE000032001F073FA10BD9C0000209C1C002023
:100BF00010B5012000F008F810BD7047704770472D
:100C00007047704770470000014908607047000056
:100C100014040140704770470246002093680B425D
:100C200001D0012000E00020704741617047016160
:100C30007047000001460648006880B200EBC10022
:100C400000F10400034A52F8100080B2704700001F
:100C5000505C00400060004001460648006880B2D9
:100C600000EBC10000F10600034A52F81000C0F387
:100C700009007047505C0040006000400146054894
:100C8000006880B200EBC100034A52F8100080B245
:100C900070470000505C00400060004010B50F4BF2
:100CA00018680F4BD3F8EC170E4B1A68A8B10E4C0E
:100CB000A070030A2371030CA371030E2372A172A7
:100CC0000B0A23730B0CA3730B0E2374A274130A69
:100CD0002375130CA375130E237610BDE8F7FF1FC1
:100CE00000F0FF1FF0F7FF1F8000002070477047E3
:100CF0007047704710B518480068047A022C01D07C
:100D0000042C05D1FFF750FD13480068047A1CE05D
:100D1000062C19D110480068407805280ED10E48DD
:100D20000068007810F07F0F08D10B490968C87877
:100D300001F04EF909490968086A804708490968BD
:100D400088688047082400E00824034909680C7279
:100D500000F0BCFF10BD00008801002094010020BD
:100D60008C01002010B54FF400610248FFF75FFFCF
:100D700010BD00000010014010B54FF400610248A2
:100D8000FFF753FF10BD00000010014010B54FF4F5
:100D900000610548FFF740FF10B1FFF7EDFF01E0EC
:100DA000FFF7E0FF10BD000000100140704708B5DC
:100DB0004FF4A06000F0AEF81E208DF80000022075
:100DC0008DF8010000208DF8020001208DF803004D
:100DD000684600F039F84FF4A06000F09BF803205B
:100DE0008DF8000004208DF8010003208DF802002A
:100DF00001208DF80300684600F026F84FF4A0604B
:100E000000F088F81C208DF8000004208DF8010007
:100E10008DF8020001208DF80300684600F014F8F8
:100E20004FF4A06000F076F81D208DF8000004203B
:100E30008DF8010005208DF8020001208DF80300D7
:100E4000684600F001F808BDF0B50021002200233B
:100E500000250F24C678EEB32B4E366806F4E06604
:100E6000C6F5E0664FEA1621C1F1040524FA01F443
:100E7000467806FA05F1867806EA040646EA010194
:100E80004FEA011106784FEA86764FEAD66601FAF4
:100E900006F11E4E07784FEAA70756F82720067876
:100EA0004FEA86764FEAD6674FF0FF0606FA07F359
:100EB00022EA030201EA030142EA0102134E077823
:100EC0004FEAA70746F82720067806F01F074FF0DD
:100ED000010600E00BE006FA07F607784FEA67170D
:100EE0004FF0E02C0CEB8707C7F800610BE00678A9
:100EF00006F01F070126BE40054F90F800C04FEADC
:100F00006C1C47F82C60F0BD0CED00E000E400E044
:100F100080E100E002490143024A1160704700008D
:100F20000000FA050CED00E070B502264A480068A2
:100F3000447849480068007810F07F0F4AD1092CA6
:100F400003D101F053FB064665E0052C14D142485D
:100F50000068C0787F280BDC3F480068807838B98B
:100F60003D480068808818B93B480068807A08B11D
:100F700008256DE000264EE0032C14D136480068A9
:100F8000C07801280DD134480068808848B93248BB
:100F90000068407A10F0200F03D001F04BFB0646AA
:100FA00039E0022637E0012C35D12B480068C078A3
:100FB00001280DD128480068808848B92648006873
:100FC000407A10F0200F03D001F0AAF9064622E083
:100FD000022620E020480068007800F07F00012809
:100FE00005D10B2C17D101F09BFB064613E01A48E4
:100FF0000068007800F07F0002280BD1012C03D19B
:1010000001F08EF9064606E0032C04D101F026FB20
:10101000064600E002264EB1104800684169E0B281
:1010200088470646032E01D1092511E00EB1082597
:101030000EE0062500210A48006880B200F1020097
:10104000084A42F810104FF030000749088000BFEE
:10105000014909680D7270BD880100208C010020D3
:10106000505C0040006000409A01002010B500F084
:1010700015F800F07BFB00F0A3FB00F0C5FB00F0CF
:101080004DFB00F025FB00F04DFC00F071FC00F082
:10109000EFFB00F015FC00F002F810BD7047704740
:1010A00010B500241B480078012831D1FFF7BCF8A7
:1010B000044619480078002804DD17480078401ECF
:1010C0001549087014480078F8B914480078E0B958
:1010D00000F0A4FC12481349097850F82100124985
:1010E0000860104800781149097888420DD00E48F0
:1010F0000068406B401C0C49096848630C48006854
:10110000401C0B490860FFF7ABF82046FFF790F84A
:1011100010BD00005A0000204D0000204E000020AD
:10112000A812002050000020680000204F0000207E
:101130003400002070B5044600250CB9042070BDB1
:101140002078032801D00120F9E7FFF76DF8054664
:10115000A07A60B1002301221946204600F04AFA25
:101160002846FFF765F800F01FFC0020E7E720891C
:101170004FF6FF71884207D22089401C2081284603
:10118000FFF756F80020DAE72846FFF751F832203B
:10119000D5E7000010B50B48007890B900F03EFC90
:1011A000094800780949087009480749097850F842
:1011B0002100084908600846006807490860FFF7F1
:1011C0003AF810BD5A000020500000204F000020C7
:1011D000A812002068000020600000207047000076
:1011E0002DE9FF4F85B006460F4690461C46DDE9C7
:1011F00013ABDDF84890002003903F2C03DD2A203C
:1012000009B0BDE8F08FFFF70FF803901F48007892
:10121000002804DD0398FFF70BF83C20F0E71C489A
:1012200050F8240068BB0120194941F824000398B4
:10123000FEF7FEFF424639463046169B00F085F821
:101240000490DDE91523CDE900B202934B465246E6
:101250002046049900F010FC054635B90D48007889
:1012600001280CD100F0A0FB09E0FEF7DDFF0390A0
:101270000020074941F824000398FEF7D9FF2846CB
:10128000BEE70398FEF7D4FF2820B9E74D00002001
:10129000A81200205A000020704770472DE9F0473F
:1012A00005460F4614464FF000090CB9BDE8F0871B
:1012B0003F2D04DDFF2D02D02A202070F6E717B95C
:1012C0000C202070F2E71D480078002802DD122073
:1012D0002070EBE7FEF7A8FF8146FF2D03D11848E9
:1012E000006890F82E50174850F825602EB94846EF
:1012F000FEF79EFF43202070D8E7012E05D1484617
:10130000FEF796FF43202070D0E7384600F0AAFB96
:101310008046B8F10F0F05DD4846FEF789FF4120F2
:101320002070C3E7394606F1480000F08DFB4846BF
:10133000FEF77EFF0020207000BFB7E74D000020C1
:1013400060000020A8120020704770B504461046C7
:101350004FF080750560051F28462C606FF0010670
:10136000051F28462E604FF01236051F28462E60B6
:101370004FF00336051F28462E604FF00236051F3A
:1013800028462E607610051F28462E60051F284629
:1013900029604FF01136051F28462E604FF0103699
:1013A000051F28462E604FF00936051F28462E607F
:1013B0004FF00836051F28462E604FF00736051FF0
:1013C00028462E604FF00636051F28462E604FF047
:1013D0000536051F28462E604FF00436051F2846A7
:1013E0002E6070BD7047000070B505460026164897
:1013F0000078002800DD70BD002D23DDFEF714FF0E
:1014000006461248006890F830401148005D0F49C8
:10141000096891F8311088430D4908550846005D68
:1014200040B90A48006890F832100A4800788843AA
:10143000084908700548006845853046FEF7F8FE03
:1014400000F0B2FA00BFD6E74D0000206000002097
:1014500052000020510000202DE9F04781460D4642
:1014600016461C4624480078002802DD5520BDE8B9
:10147000F087B9F1000F04D11DB916B90CB9542089
:10148000F5E73B2D01DD5120F1E73B2E01DD522038
:10149000EDE7B4F57A7F01DB5320E8E74FF47A708B
:1014A00060434FF47A71B0FBF1F14FF4616009FBD6
:1014B00000F0C5EB051200EB8200304400EB400267
:1014C000C2EBC01001EBC0074FEA1748BFB2384665
:1014D000FFF78AFF0BE04FF40040FFF785FF4FF462
:1014E0000040FFF781FFA8F101001FFA80F8B8F172
:1014F000000FF0DC0020BAE74D00002070B5002698
:1015000000F076F8FEF790FE064633480068401C6F
:10151000314908603046FEF78BFE304800780128DC
:1015200058D12F48007820B1012804D0022809D1D1
:1015300003E001250BE0002509E0012501202849F1
:10154000087004E0012500202549087000BF00BF95
:1015500005B970BD2348046838E0FEF765FE06460D
:10156000608D78B3608D401E0004000C608529D129
:1015700094F82C0010F0370F09D014F82C0F20F03D
:101580003700207001206070A4F12C0402E00020DC
:1015900084F82D0094F82C0010F0080F12D104F1FB
:1015A0003004A0781049097840EA01000E4908701B
:1015B00020780E49085C617840EA010014F830197F
:1015C0000A4A505464693046FEF732FE94F82E0001
:1015D0003F28C2D100BFBCE77C0000205A00002099
:1015E000700000206C0000205100002052000020FC
:1015F000704700002DE9F04704460D46164694F862
:101600000A90DFF8BCA01AF809204FF0010909FA86
:1016100002F909F0FF0804F10B0919F802901AF811
:1016200009704FF0010909FA07F909F0FF0C07EBFF
:10163000C20909F0FF0004F10B0919F8029029EA28
:101640000C0904F10B0A0AF80290D14619F802902D
:10165000B9F1000F05D194F80A9029EA080984F835
:101660000A90DFF8609059F820104FF00009A1F8B7
:101670002A90C1F81C900D6281F82D3091F82C90C1
:1016800029EA060981F82C9091F82C90B9F1000F05
:1016900013D1DFF8349099F8009049EA0809DFF88F
:1016A00028A08AF80090DFF8249019F8029049EAFF
:1016B0000C09DFF818A00AF80290BDE8F0870000D6
:1016C00092310008A8120020510000205200002092
:1016D00070B58C210F4800F01BF90E4C04F11C066C
:1016E00000250AE00020207066603F20A0720021E3
:1016F000E1721C341C36681C85B2042DF2DB00201C
:10170000207060603F20A0720021E1720148024910
:10171000086070BD1C0E00203C00002030B54FF466
:101720009061104800F0F4F80E4B03F124050024FA
:101730000AE0002018705D603F20D8740021197500
:1017400024332435601C84B21F2CF2DB0020187077
:1017500058603F20D874002119750248024908607A
:1017600030BD00009C0900203800002000200A49FC
:1017700008600A4908700A4908700A4908700A494D
:1017800008700A4908600A4908600A4908600A495D
:1017900008600A49087070477C0000204D00002056
:1017A0004E0000205B0000205A0000203400002082
:1017B0005C00002048000020440000204C00002075
:1017C00000220B4B1A700B49002004E0002201F8A4
:1017D000012B421CD0B20828F8DB0022064B1A70FD
:1017E000064B1A70064B1A60064B1A6070470000D1
:1017F00051000020520000204F0000205000002027
:10180000680000206000002030B54FF4F2611448F9
:1018100000F07EF84FF48071124800F079F8104B18
:1018200003F1580500240AE05D613F2083F8480079
:1018300000214920C15458335835601CC4B2152CBE
:10184000F2D3002058613F2083F84800002149204E
:10185000C15400200449086001480449086030BDB3
:10186000A8130020A81200206C00002064000020B3
:1018700000B587B00323002280210B48CDE9032364
:10188000CDE901014FF6FF7300933F2300F5FE728F
:1018900000210648FFF7A4FC06AA05A13F20FFF798
:1018A000FDFC07B000BD0000A8100020A51B00082B
:1018B00075432F4F532D49492049646C6500000042
:1018C00000B587B00323002280210B48CDE9032314
:1018D000CDE901014FF6FE7300933E2300F5FE7241
:1018E00000210648FFF77CFC06AA05A13E20FFF771
:1018F000D5FC07B000BD0000A80E0020C91B0008E1
:1019000075432F4F532D49492053746174000000D3
:1019100004E0002200F8012B4A1E91B20029F8DCF5
:101920007047000070B5B4210F48FFF7F1FF0E4C6F
:1019300000250DE0681C00EBC0000B4901EB8000A6
:1019400060603F202075002161752434681C85B2D9
:10195000042DEFDB002060603F20207500216175C1
:1019600001480249086070BD381B00207400002047
:1019700070B560210A48FFF7CBFF094C04F1180647
:10198000002504E0266018341836681C85B2032D43
:10199000F8DB0020206002480249086070BD0000AA
:1019A000EC1B00207800002010B50024FEF73CFC62
:1019B000044613480078F8B912480078E0B900F0FE
:1019C0002DF811481149097850F821001049086094
:1019D0000E4800780F49097888420DD00C480068FD
:1019E000406B401C0A49096848630B480068401C6A
:1019F00009490860FEF72FFC2046FEF719FC10BDD0
:101A00004D0000204E000020A812002050000020B1
:101A1000680000204F000020340000200649074ADB
:101A20001278885C0649095C034A515C01EBC001ED
:101A3000044A1170704700009231000851000020E4
:101A400052000020500000200246002005E011F85E
:101A5000013B02F8013B431CD8B20B78002BF6D1B6
:101A6000137070470146002002E0491C421CD0B2AE
:101A70000A78002AF9D170472DE9F84F05460E463D
:101A800017469846DDE90BABDDF828900020009062
:101A9000FEF7CAFB00903D480468ECB354F8140FFD
:101AA0003A4908600098FEF7C3FB44F8146CA57629
:101AB000002020766076E08244F810AC44F8089C60
:101AC00044F80C7C24F804BC24F8028CE077E8107D
:101AD0002077217F01208840A07705F00700E0767D
:101AE000E17E0120884060770020A0602061E060F6
:101AF0002062A0626062E06220633F2084F83400CC
:101B0000A4F114044FF000014FF0490001552046A4
:101B1000FFF764FB204600E033E0FFF7BDFBFEF774
:101B200083FB00901A4840F825401A48006860611D
:101B30000020A0611748006810B116480068846151
:101B40001448046004F13004A0781349097840EA8D
:101B500001001149087020781049085C617840EA5A
:101B6000010014F830190D4A50540D48007800F166
:101B700001000B4908700098FEF75AFB0020BDE8F1
:101B8000F88F0098FEF754FB4220F8E7640000202D
:101B9000A81200206C0000205100002052000020FC
:101BA0005B000020002400BFFEF73EFB0446054812
:101BB0000068401C034908602046FEF739FBFFF728
:101BC0006CFBF1E75C000020002700BF02E0C820AA
:101BD000FFF70AFC1A4800780028F8D01948006876
:101BE0006421B0FBF1F400BFFEF71EFB0746164868
:101BF0000068164908601448066800201249086009
:101C00003846FEF715FB6CB1B6FBF4F0C0F164008A
:101C100045B2002D02DB0E4805700BE000200C4998
:101C2000087007E000200A4908700648006864212F
:101C3000B0FBF1F4FFF788FB6420FFF7D5FBD3E797
:101C40004C000020440000205C00002048000020E0
:101C50004000002010B511480068047A032C01D020
:101C6000052C05D1FEF702FE0C480068047A0EE050
:101C7000072C05D10A490968C8688047082406E08E
:101C8000022C01D0042C01D1082400E008240349CF
:101C900009680C7200F01AF810BD000088010020DD
:101CA0008C010020F0B5561C7510064E06EB410461
:101CB0002B4604E080CC20F8017B401C5B1E002BEF
:101CC000F8D1F0BD006000407047000010B50D482D
:101CD00090F82C10002000F0B3F90B480068007A4F
:101CE000082805D1400209490880102008490880C9
:101CF00005480068007A092801D1012000E0002091
:101D0000C0B210BDF400002088010020980100201E
:101D10009A01002010B5012001F00AF801240D48B5
:101D200004604FF000000C490880084600880B4909
:101D3000C1F8400C4FF00000094908604FF4E05032
:101D400005490880084600880449C1F8400C4FF056
:101D5000000010BD405C0040920100200050004097
:101D6000445C004029B1064A52690243044B5A615F
:101D700004E0034A52698243014B5A6170470000F4
:101D80000010024029B1064AD2690243044BDA61CD
:101D900004E0034AD2698243014BDA6170470000D4
:101DA0000010024029B1064A12690243044B1A612D
:101DB00004E0034A12698243014B1A617047000034
:101DC0000010024029B1064A92690243044B9A610D
:101DD00004E0034A92698243014B9A617047000014
:101DE0000010024029B1064AD2680243044BDA606F
:101DF00004E0034AD2688243014BDA607047000076
:101E0000001002400348406A40F080700149486277
:101E1000704700000010024030B50021002200246D
:101E200000232D4D6D6805F00C0121B1042905D06A
:101E3000082923D105E0294D056022E0284D0560E1
:101E40001FE0254D6D6805F47012022505EB9242E6
:101E5000214D6D6805F480341CB9224D5543056051
:101E60000BE01D4D6D6815F4003F03D01E4D55432A
:101E7000056002E01A4D5543056002E0174D05600C
:101E800000BF00BF144D6D6805F0F0010909174D42
:101E90006B5C0568DD4045600F4D6D6805F4E061E1
:101EA000090A124D6B5C4568DD4085600A4D6D681E
:101EB00005F46051C90A0D4D6B5C4568DD40C56095
:101EC000054D6D6805F44041890B094D6B5CC56893
:101ED000B5FBF3F5056130BD0010024000127A0039
:101EE00000C0A80000093D00006054004333000812
:101EF0005333000870470000014908607047000034
:101F0000D800424270470000054909886FEA000284
:101F100092B201EA0201034AA2F8041870470000D5
:101F2000042800400020004001460020074A128893
:101F300002EA0102D0B2064AB2F800280A4202D0F0
:101F400008B1012000E00020704700000428004094
:101F50000020004010B5FEF767F9044610480078ED
:101F6000401C0F4908702046FEF762F90120FFF778
:101F7000DBFF20B10120FFF7C7FF00F013F8FEF7E9
:101F800053F9044606480078002804DD0448007828
:101F9000401E034908702046FEF74AF910BD0000B4
:101FA0004D00002000BF0348008810F0200FFAD039
:101FB0007047000004280040704770477047704722
:101FC0004FF6F8710140014A11607047505C0040C3
:101FD00030B501460E4B1A78002012E003060D4C76
:101FE00004EB9353D3F8003C9BB248F68F74234024
:101FF000C4B223430406074D05EB9454C4F8003CD7
:10200000401C9042EAD341F08003034C236030BD72
:10201000F0000020005000404C5C004010B54A1019
:102020005300054A126892B202EBC00202F10402A8
:10203000024C44F8123010BD505C0040006000407B
:1020400010B502461048006880B200EBC20000F1F3
:1020500006000E4C04EB40033E290BDD481111F045
:102060001F0F01D1441EA0B24FF4004444EA802463
:102070001C6007E0481011F0010F01D0441CA0B211
:1020800084021C6010BD0000505C004000600040F5
:1020900010B50D4B03EB8003D3F8003C9BB24BF61D
:1020A0008F7403EA040211F4805F01D082F480523D
:1020B00011F4005F01D082F40052034B03EB800364
:1020C000C3F8002C10BD000000500040094A02EB8C
:1020D0008002D2F8002C92B24BF68F7302EA030111
:1020E00081F4805181F40051024A02EB8002C2F86F
:1020F000001C70470050004010B54A105300044ABD
:10210000126892B202EBC002024C44F8123010BDC9
:10211000505C004000600040054A126892B202EB39
:10212000C00202F10202034B43F812107047000094
:10213000505C00400060004010B50D4B03EB800385
:10214000D3F8003C9BB248F6BF7403EA040211F0D6
:10215000100F01D082F0100211F0200F01D082F098
:102160002002034B03EB8003C3F8002C10BD0000DA
:1021700000500040074A02EB8002D2F8002C92B2D5
:1021800048F68F131A400A43024B03EB8003C3F84F
:10219000002C70470050004010B500F001F810BD51
:1021A00000210020304A126842F480322E4B1A601F
:1021B00000BF2D4A126802F40030491C18B9A1F57D
:1021C0008072FF3AF5D1284A126812F4003F01D01C
:1021D000012000E00020012843D1244A126842F087
:1021E0001002224B1A601A46126822F003021A608B
:1021F0001A46126842F002021A601B4A52681A4BD1
:102200005A601A4652685A601A46526842F480620E
:102210005A601A46526822F47C125A601A46526872
:1022200042F4E8125A601A46126842F080721A604C
:1022300000BF0D4A126812F0007FFAD00A4A5268B5
:1022400022F00302084B5A601A46526842F002021A
:102250005A6000BF044A526802F00C02082AF9D101
:1022600001E000BFFEE7704700100240002002407E
:1022700008B52848006880B200F10400264951F8EA
:10228000100080B201EB4000009024480068007A02
:1022900009282FD000980078204909680870009814
:1022A000401C0090009800781C490968487000980C
:1022B000401C00900098801C0090009931F8020B9F
:1022C0000091FEF77AF81549096848800098801C4B
:1022D0000090009931F8020B0091FEF76EF80F495B
:1022E000096888800098801C0090009800880B493D
:1022F0000968C88001200949096808720748006810
:10230000C08810B9FEF710FE01E0FEF70FFBFFF7E3
:10231000DDFC08BD505C00400060004088010020EA
:102320002DE9F04751480068007800F07F08B8F1C7
:10233000000F0AD14D480068407A00F0DF004B4999
:10234000096848720020BDE8F087B8F1020F7DD11E
:1023500046480068408818B944480068007908B1C8
:102360000220F0E7DFF8089140480068477927F03D
:1023700080052C463D480068407910F0800F07D05A
:102380003C4800EB8400D0F8000C00F0300606E07A
:10239000384800EB8400D0F8000C00F4405699F85F
:1023A0000000A84204D91EB130480068807A08B9FC
:1023B0000220C8E717F0800F10D02E4800EB8400F1
:1023C000D0F8000C00F03000102845D1E0B2FEF744
:1023D000B1F93021E0B2FFF7AFFE3DE0254800EB58
:1023E0008400D0F8000C00F44050B0F5805F33D189
:1023F000CCB9214890F82C10E0B2FFF721FE1D491E
:1024000001EB8401D1F8001C89B24BF68F7201EA0E
:10241000020080F4805080F40050164901EB8401E2
:10242000C1F8000C18E0E0B2FEF768F9114901EBC1
:102430008401D1F8001C89B24BF68F7201EA0200C8
:1024400080F4805080F400500A4900E00AE001EB7B
:102450008401C1F8000C00BF084909684869804739
:10246000002070E700BF02206DE700008801002017
:10247000F000002000500040F400002094010020F3
:1024800010B504462CB901200649096808820020CD
:1024900010BD0549096808688047024800680A308D
:1024A000F6E70000880100209401002010B50246E4
:1024B00006480068438A32B98888C01A034C2468E9
:1024C0002082002010BD08681844FBE78801002026
:1024D00010B504462CB9012006490968088200207D
:1024E00010BD0549096888688047024800680C30BB
:1024F000F6E70000880100209401002010B5044692
:102500002CB90220354909680882002010BD00203E
:102510003349088031480068007810F07F0F1CD1E3
:102520002E490968487A10F0200F05D02C49097807
:1025300041F002012A4A117010F0400F06D02849DC
:10254000097801F0FE01264A117005E02449097856
:1025500041F00101224A11703AE0204800680078F9
:1025600000F07F00012801D11D48CFE71B4800681B
:10257000007800F07F00022828D1184A12685179AB
:1025800001F00F0011F0800F0FD0164A02EB80020D
:10259000D2F8002C02F03002102A16D1104A12781C
:1025A00042F001020E4B1A700FE00E4A02EB80025D
:1025B000D2F8002C02F44052B2F5805F05D1084AEF
:1025C000127842F00102064B1A7001E000209DE7EC
:1025D0000549096808698047014897E78801002094
:1025E00082010020005000409401002010B50E48E8
:1025F0000068C0780D494978884213DC0A480068B1
:10260000807878B908480068808858B9064800681A
:10261000C078054909688872054909684868804793
:10262000002010BD0220FCE788010020F0000020FF
:102630009401002010B507480068407A40F020005F
:1026400004490968487204490968C869804700203C
:1026500010BD000088010020940100202DE9F04108
:102660002B480068467926F080073C4628480068D9
:10267000407910F0800F07D0264800EB8400D0F896
:10268000000C00F0300506E0224800EB8400D0F892
:10269000000C00F4405520480078A04208D91C489E
:1026A0000068408820B91DB119480068807A10B9C7
:1026B0000220BDE8F08116F0800F11D0154901EB22
:1026C0008401D1F8001C89B248F6BF7201EA020009
:1026D00080F010000F4901EB8401C1F8000C11E0FB
:1026E0000C4901EB8401D1F8001C89B24BF68F72C2
:1026F00001EA020080F48050064901EB8401C1F830
:10270000000C00BF05490968886980470020D0E7B0
:102710008801002000500040F000002094010020BB
:1027200010B5174B1B68D978154B1B685879154B9A
:102730001B689A699047044611480068807AE8B19E
:102740003CB90F480068007918B90D4800688078D6
:1027500008B1022010BD8CB90B490968C8688047D0
:1027600007480068407906490968C872044800684B
:10277000C0780349096808730020EBE70220E9E705
:10278000880100208C010020940100207047000087
:1027900010B51148006840F001000F490860084674
:1027A00040680E4908400C494860084600680C49DA
:1027B0000840094908600846006820F48020086045
:1027C0000846406820F4FE0048604FF41F0088600F
:1027D000FFF7E2FC10BD0000001002400000FFF80F
:1027E000FFFFF6FE704770477047704710B5012134
:1027F000014800F095F810BD002C014010B5FDF720
:1028000013FD04460D480078401C0C490870204612
:10281000FDF70EFD0121880700F004F950B10848CA
:102820000078401C06490870FEF768FE0121880701
:1028300000F079F8FEF734FC10BD00004D000020D8
:102840003100002010B5FDF7EFFC04461048007879
:10285000401C0F4908702046FDF7EAFC01210D4895
:1028600000F0E0F818B101210A4800F05CF8FDF72B
:10287000DBFC044606480078002804DD04480078A4
:10288000401E034908702046FDF7D2FC10BD000031
:102890004D0000200004004010B5FDF7C5FC0446C3
:1028A00010480078401C0F4908702046FDF7C0FC16
:1028B00001210D4800F0B6F818B101210A4800F0D6
:1028C00032F8FDF7B1FC044606480078002804DD24
:1028D00004480078401E034908702046FDF7A8FC14
:1028E00010BD00004D0000200008004070477047F8
:1028F000704770477047704710B50121014800F0DC
:102900000FF810BD0034014021B1028842F080026E
:10291000028004E0028840F27F331A400280704750
:10292000CA4302827047CA430282704721B10288BB
:1029300042F00102028004E0028840F2FE331A40B5
:102940000280704710B504463449601A8C4245D065
:102950000CDCB4F1804F1DD03148201823D0B0F5E5
:10296000806F29D0B0F5006F54D12EE0B0F5806FA4
:102970003DD0B0F58E3F03D0B0F5923F4AD13FE055
:102980000121C802FFF72EFA00214FF40060FFF783
:1029900029FA40E001210846FFF704FA002101204E
:1029A000FFF700FA37E001210220FFF7FBF90021D1
:1029B0000220FFF7F7F92EE001210420FFF7F2F9DA
:1029C00000210420FFF7EEF925E001210820FFF7A0
:1029D000E9F900210820FFF7E5F91CE001211020AA
:1029E000FFF7E0F900211020FFF7DCF913E00121E7
:1029F0002020FFF7D7F900212020FFF7D3F90AE0C4
:102A000001214803FFF7EEF900214FF40050FFF7D2
:102A1000E9F900E000BF00BF10BD00000010004059
:102A200000FCFFBF30B50246002000230024158AB9
:102A300005EA0103958905EA010413B10CB10120EF
:102A400000E0002030BD10B51AB183890B438381AB
:102A500004E08389CC43A4B22340838110BD0000ED
:102A6000028802F08F0202800A898B881A43038849
:102A70001A430280CA8882850A68028501228282FE
:102A8000044A904202D0044A904201D18A7A0286D6
:102A900070470000002C01400034014000200A492A
:102AA0000870FDF764FC00F075F900F055F901209D
:102AB0000549087007E00023012219461846FEF771
:102AC000CBFCFEF763F9F6E7300000200EB54FF0BF
:102AD0008040FFF737FF0120ADF8060048F6A04020
:102AE00000900020ADF80800ADF8040069464FF0F2
:102AF0008040FFF7B5FF01218807FFF711FF002194
:102B00004FF08040FFF700FF012211469007FFF7CA
:102B10009AFF01218807FFF709FF0EBD7047704734
:102B200070477047704721B1828942F40052828118
:102B300004E082894DF6FF731A40828170470000DD
:102B400010B53148007920B1012806D002280ED1F5
:102B500008E000202D49C8800DE04FF440502B497B
:102B6000C88008E04FF400502849C88003E000F016
:102B700051F8002010BD00BF2348407920B1012842
:102B800006D002280ED108E00020204908810DE07F
:102B90004FF480601D49088108E04FF4C0601B4974
:102BA000088103E000F036F80020E3E700BF164894
:102BB0008079072802D0082810D103E000201349AB
:102BC00088800FE01148008918B900200F498880DB
:102BD00003E04FF480500D49888003E000F01AF8BC
:102BE0000020C7E700BF08480068084908600020C7
:102BF00088810C204881064800F04AF801210448E9
:102C0000FFF791FF0120B5E7E80000204C1C0020F1
:102C10000038014010B54FF416500B4908600020F1
:102C20008880C8804FF4C0600881002088810C2013
:102C30004881064800F02CF8012240F22551034853
:102C400000F006F810BD00004C1C002000380140C8
:102C5000F0B5034600240026002500201846C1F3E5
:102C6000421401F01F06012707FA06F5012C01D1D5
:102C70000C3004E0022C01D1103000E014301AB105
:102C800007682F43076002E00768AF430760F0BDA5
:102C90002DE9F04786B005460E460024A24600BF47
:102CA00000BF00272F462C8A4CF6FF700440F088A6
:102CB00004432C82AC894EF6F3100440B08831896D
:102CC0000843718908430443AC81AC8A4FF6FF4046
:102CD0000440B0890443AC8201A8FFF79DF8124874
:102CE000874202D1DDF810A001E0DDF80CA00AEB6C
:102CF000CA0000EB0A1031688900B0FBF1F86420CB
:102D0000B8FBF0F004012009642101FB1089322096
:102D100000EB0910B0FBF1F000F00F0004432C8130
:102D200006B0BDE8F08700000038014070470000A1
:102D300010B504462CB14FF480410548FDF775FFEE
:102D400004E04FF480410248FDF771FF10BD000020
:102D5000000C01407047000010B5084808490860A1
:102D600002200968087207480749086007480849AF
:102D70000860054909680868804710BDDC1C002010
:102D800088010020F40000208C0100202401002094
:102D90009401002008B54FF4C060FEF7BBF8142082
:102DA0008DF8000000208DF801008DF80200012050
:102DB0008DF803006846FEF747F825208DF80000DF
:102DC00001208DF801006846FEF73EF808BD0000BE
:102DD00010B518480068184908800846008800F4B3
:102DE000806016490988084206D04FF6FF30114925
:102DF00008601349486880470F48008800F4007055
:102E00000E490988084209D04FF6FF500949086069
:102E10000C48007800F101000A4908700648008853
:102E200000F4004005490988084201D0FDF7CEFAB8
:102E300010BD0000445C0040E00000209201002032
:102E4000F4000020A400002010B5FFF7C1FF0448E3
:102E5000006818B103480068FEF76CF910BD000067
:102E60009C00002018000020F0B5144604F1010C6D
:102E70004FEA6C07DFF824C00CEB41033D460AE043
:102E80000678401C90F800C046EA0C2223F8022B7A
:102E90009B1C401C6D1E002DF2D1F0BD0060004057
:102EA00070B504460025212C08D11248006800782E
:102EB00000F07F0021280ED10F4D0CE0202C0AD10C
:102EC0000C480068007800F07F00212800D10B4DED
:102ED00020200B4908700DB9022070BD054800681C
:102EE000856100210348006841820020A847002036
:102EF000F3E70000880100202D2F0008BD300008F6
:102F0000E400002010B5044602492046FFF7CEFA3F
:102F100010BD00005001002010B5044602492046B3
:102F2000FFF7C4FA10BD000048010020014629B98E
:102F30000820034A12681082002070470148FCE70D
:102F400088010020E800002070B5054606480068AA
:102F5000C478042C01DD002070BD044800EBC401DE
:102F60002846FFF7A3FAF7E7880100205801002060
:102F70000246002901DD02207047012A01DD0220FE
:102F8000FAE70020F8E700000146084800680078EA
:102F900000F07F00212807D1022901D100207047CD
:102FA000222901D10020FAE70220F8E78801002059
:102FB00010B500203449096888723448C079324914
:102FC00009684872002030490968C872FEF7F8FFA6
:102FD0004FF400710020FFF7CDF810210020FFF71B
:102FE000ABF840210020FFF719F880210020FFF7FF
:102FF00083F80020FDF7BAFB254890F82C1000203C
:10300000FFF71EF80020FFF761F800210120FFF70D
:10301000B1F8C0210120FFF76FF820210120FFF750
:103020008BF800210120FFF733F84FF4C061022034
:10303000FFF7A0F84FF480710220FFF75DF8002140
:103040000220FFF725F820210220FFF775F8002164
:103050000320FFF78FF84FF488710320FEF7DEFF9F
:1030600040210320FEF7ECFF4FF440510320FFF70F
:103070000FF800210320FFF75FF80020FEF7A8FFFC
:1030800001200449086010BD88010020A432000816
:10309000F4000020780100200348817A11B1052155
:1030A000024A116070470000DC1C002078010020FB
:1030B000042001490860704778010020014629B9C1
:1030C0000820034A12681082002070470148FCE77C
:1030D00088010020E800002010B50548007820286D
:1030E00004D1FFF72DFD00200149087010BD00003C
:1030F000E40000207047000010B5FDF7CFFD002070
:103100000B4909688872FEF705FE0020094908602E
:103110004FF4064008490880084600880749C1F86E
:10312000400CFFF777FD00200549086010BD000046
:1031300088010020445C00409201002000500040C3
:10314000780100207047000000B585B0FDF78EFFC4
:103150000223002219020948CDE90323CDE9010128
:103160001F2300F2FC72002105480093FEF738F897
:10317000FEF710F8002005B000BD00009C01002003
:103180009D2A000810B5FDF7E3F84FF0000101603B
:1031900010BD000001000200010003000100020058
:1031A0000100040001000200010003000100020010
:1031B00001000500010002000100030001000200FF
:1031C00001000400010002000100030001000200F0
:1031D00001000600010002000100030001000200DE
:1031E00001000400010002000100030001000200D0
:1031F00001000500010002000100030001000200BF
:1032000001000400010002000100030001000200AF
:10321000010007000100020001000300010002009C
:10322000010004000100020001000300010002008F
:10323000010005000100020001000300010002007E
:10324000010004000100020001000300010002006F
:10325000010006000100020001000300010002005D
:10326000010004000100020001000300010002004F
:10327000010005000100020001000300010002003E
:10328000010004000100020001000300010002002F
:1032900001001201000202000040830440570002B6
:1032A0000102030109024300020100C032090400C7
:1032B00000010202010005240010010524010001A3
:1032C000042402020524060001070582030800FF0A
:1032D00009040100020A0000000705030240000083
:1032E000070581024000000403090426035300542B
:1032F000004D006900630072006F0065006C00659E
:10330000006300740072006F006E00690063007358
:10331000003203530054004D0033003200200056A9
:1033200000690072007400750061006C00200043A9
:10333000004F004D00200050006F0072007400200C
:103340000020000000000001020304010203040643
:10335000070809020406080078330008000000206E
:103360009C01000084010008F43300089C01002047
:10337000BC210000E00100080180141A035312541C
:10338000124D12331232123102193013B90B0C1CC8
:1033900008AD0D040A11C5249133C20112081A04A4
:1033A0000713F9301408B12F1B08D9081AF50413B4
:1033B000A12E1B0889101A71041A19041A05041A7F
:1033C000490441324029481A99280916781AB11C33
:1033D0001392323308121AA40832431AE70832044F
:1033E0001AEB083226131133330832228073201A65
:0433F0002992011C01
:0400000508000149A5
:00000001FF
