:020000040800F2
:100000002076002031010008350100083701000882
:10001000390100083B0100083D0100080000000014
:100020000000000000000000000000004101000886
:100030003F010008000000006702000821380008A6
:10004000854500081128000879380008E52C0008CB
:1000500001120008FD2B0008B1100008BD100008B7
:10006000CB100008CD100008CF1000087D0A000852
:100070007F0A0008810A0008830A0008850A000830
:10008000870A0008890A000811040008994100083D
:10009000894200087B0600087D060008D110000890
:1000A0007B380008813800087F3800087D38000858
:1000B00091380008C93800082539000813150008D0
:1000C000111500081715000815150008892E0008DD
:1000D000D92F0008353F00083D3F00083F3F00088A
:1000E000BB100008AD2C0008734100087F390008E0
:1000F0008539000883390008813900085B0300084E
:10010000F7120008492D000879390008E12F00088E
:10011000313F0008333F00087B3900087D39000873
:10012000750A0008770A0008790A00087B0A0008A7
:1001300004480047FEE7FEE7FEE7FEE7FEE7FEE7CE
:10014000FEE700004901000800F002F800F05AF84C
:100150000AA090E8000C82448344AAF10107DA4522
:1001600001D100F04FF8AFF2090EBAE80F0013F01A
:10017000010F18BFFB1A43F001031847F87A00007B
:10018000187B00000A444FF0000C10F8013B13F0FC
:10019000070408BF10F8014B1D1108BF10F8015BE0
:1001A000641E05D010F8016B641E01F8016BF9D1D3
:1001B00013F0080F1EBF10F8014BAD1C0C1B09D12A
:1001C0006D1E58BF01F801CBFAD505E014F8016B9C
:1001D00001F8016B6D1EF9D59142D6D3704700002E
:1001E0000023002400250026103A28BF78C1FBD840
:1001F000520728BF30C148BF0B6070471FB51FBDF5
:1002000010B510BD00F073F81146FFF7F7FF04F0CA
:100210007FFE00F091F803B4FFF7F2FF03BC00F09B
:1002200095F80000EFF3108072B6704780F31088E5
:10023000704724484FF0FF010170002080F30988C7
:100240001D480121017020484FF08051016062B6C5
:10025000FEE71D484FF08051016070471A484FF08B
:10026000805101607047EFF3098028B1203880E8A1
:10027000F00F12490968086000B50A4880475DF828
:1002800004EB0B480B490A7802700C480C490A68C9
:100290000260106890E8F00F203080F309884EF07B
:1002A000040E7047251E0008E518000845000020D0
:1002B0004700002048000020520000205800002085
:1002C0006000002022ED00E004ED00E00248034958
:1002D000034A044B70470000207000202076002065
:1002E00020720020207200207047704770477546CA
:1002F00000F028F8AE4605006946534620F0070096
:10030000854618B020B5FFF7E1FFBDE820404FF06B
:1003100000064FF000074FF000084FF0000B21F0EF
:100320000701AC46ACE8C009ACE8C009ACE8C009BC
:10033000ACE8C0098D4670470446AFF30080204604
:10034000FFF769FF00487047BC6F00200149182083
:10035000ABBEFEE7260002007047704721B18268FD
:1003600042F00102826003E0826822F001028260B2
:10037000704721B1826842F48072826003E0826833
:1003800022F480728260704710B504461548201828
:1003900006D0B0F5806F0DD0B0F5C05F1ED113E070
:1003A0000121480202F028FB00214FF4007002F006
:1003B00023FB14E00121880202F01EFB00214FF410
:1003C000806002F019FB0AE00121C80302F014FB6F
:1003D00000214FF4004002F00FFB00E000BF00BF1F
:1003E00010BD000000DCFEBF014600208A6812F04C
:1003F000040F01D0012000E00020704701460020DA
:100400008A6812F0080F01D0012000E00020704738
:100410007047000030B502460020002350680F4CA2
:1004200020400D790C6844EA052420435060906810
:100430000B4C2040D1E902542C434D7944EA450449
:1004400020439060D06A20F470000C7C641E1C4332
:10045000E3B240EA0350D06230BD0000FFFEF0FF7F
:10046000FDF7F1FFF0B504460D4600200021092DEF
:1004700011DDE068A5F10A0606EB4607072606FA35
:1004800007F18843A5F10A0606EB460603FA06F1D2
:100490000843E0600CE0206905EB4507072606FAF3
:1004A00007F1884305EB450603FA06F1084320618E
:1004B000072A0FDA606B561E06EB86071F2606FA20
:1004C00007F18843561E06EB860605FA06F1084337
:1004D000606322E00D2A0FDA206BD61F06EB860739
:1004E0001F2606FA07F18843D61F06EB860605FA93
:1004F00006F10843206310E0E06AA2F10D0606EB66
:1005000086071F2606FA07F18843A2F10D0606EBBF
:10051000860605FA06F10843E062F0BD816841F005
:1005200008018160704721B1826842F4A0028260B4
:1005300003E0826822F4A00282607047816841F083
:10054000040181607047000000B585B01B48FFF7CB
:100550001BFF0020009001208DF804008DF805009D
:100560004FF4602002900020039001208DF81000CD
:1005700069461248FFF74EFF072301220A210F4860
:10058000FFF770FF01210D48FFF7F3FE01210B4833
:10059000FFF7E4FE0948FFF7C1FF00BF0748FFF778
:1005A0002DFF0028FAD10548FFF7C8FF00BF034818
:1005B000FFF71AFF0028FAD105B000BD0024014062
:1005C00008B50120ADF8000000208DF80300694651
:1005D000014800F0B1FE08BD0010014010B503F065
:1005E00021F902F023FA0121412002F0C5F901218D
:1005F0000F2002F0D1F90121880302F0CDF9012189
:10060000480202F0E9F90121084602F0E5F901216A
:100610004FF4A04002F0E0F901214FF4FE7002F027
:10062000DBF90121C80502F0B7F9002002F014FB44
:1006300004F062FD03F0D0FD03F0B0FD04F054FCC3
:1006400004F0A0FA04F03EFB06F0FCF803F0B2FF61
:1006500004F0DCFE04F04CF905F06EFD03F004FC40
:1006600003F02AFC00F0B5FF02F0D6F910BD0146F8
:10067000CAB20B1243EA022070477047704700006D
:1006800007B59DF8030005282ED2DFE800F003042B
:100690000C1824002CE000208DF805009DF80A00BD
:1006A00004F086FA24E09DF808109DF8072041EA3E
:1006B000022002220DF1090104F016FB18E09DF85A
:1006C00008109DF8072041EA022002220DF10901DD
:1006D00004F0ACFB0CE00221084800F0B5FE80F00D
:1006E00001018DF80A1003E003208DF8050000BF1A
:1006F00000BF684604F0B8FC0EBD000000080140D1
:1007000010B5002469E147F6FF70B9490860B9489F
:10071000008800F00F00B8490870084600780028EB
:100720007DD1B3484438006800F44050B349088094
:10073000AF484438006800F03000B1490880AC4947
:10074000443909684BF68F7201EA020080F40050C8
:10075000A74944390860096848F6BF7201EA0200F7
:1007600080F02000A24944390860A248008810F0B7
:10077000100F38D10846006848F60F7108409C49B0
:100780004439086000F0C8FE9949443909684BF6BD
:100790008F7201EA02009949098811F4805F01D043
:1007A00080F480509549098811F4005F01D080F4ED
:1007B00000508F4944390860096848F6BF7201EA61
:1007C00002008F49097811F0100F01D080F010005D
:1007D0008B49097811F0200F01D080F02000844966
:1007E0004439086010BD82484438006884B214F06F
:1007F000800F3BD07E484438006848F60F710840AF
:100800007B494439086000F087FE7949443909681A
:100810004BF68F7201EA02007849098800E0A3E0F4
:1008200011F4805F01D080F480507449098811F47C
:10083000005F01D080F400506D49443908600968B8
:1008400048F6BF7201EA02006D49097811F0100FF5
:1008500001D080F010006A49097811F0200F01D012
:1008600080F02000624944390860BBE714F4006F4F
:100870003BD05F4844380068C0F30E0048F68F71E3
:1008800008405B494439086002F062FD5849443928
:1008900009684BF68F7201EA02005849098811F481
:1008A000805F01D080F480505449098811F4005FC2
:1008B00001D080F400504E4944390860096848F678
:1008C000BF7201EA02004E49097811F0100F01D001
:1008D00080F010004A49097811F0200F01D080F013
:1008E00020004349443908607CE714F4004F74D079
:1008F0003F4844380068C0F30E0048F68F71084046
:100900003B494439086001F047FF394944390968D7
:100910004BF68F7201EA02003849098811F4805FB2
:1009200001D080F480503549098811F4005F01D06E
:1009300080F400502E4944390860096848F6BF72B7
:1009400001EA02002E49097811F0100F01D080F061
:1009500010002B49097811F0200F01D080F0200001
:100960002349443908603DE7234800782049443949
:1009700051F8200084B214F4004F15D01E480078BE
:1009800051F82000C0F30E0048F68F7108401A4954
:100990000978174A443A42F8210017490978491E54
:1009A000184A52F82100804714F0800F15D01248E1
:1009B00000780F49443951F8200048F60F7108407B
:1009C0000D4909780A4A443A42F821000A4909784F
:1009D000491E0D4A52F8210080470548006880B240
:1009E0000449088010F4004F7FF48DAE00BFF9E693
:1009F000445C0040D80000207C01002090010020D1
:100A000092010020BC000020A0000020084951F8FD
:100A1000201011F4804F0AD0054951F8201048F6F3
:100A20008F72114041F48041014A42F82010704712
:100A3000005C0040084951F8201011F0400F0AD026
:100A4000054951F8201048F68F72114041F04001DD
:100A5000014A42F820107047005C0040044951F8F8
:100A6000201048F68F621140014A42F8201070476A
:100A7000005C004070477047704770477047704790
:100A80007047704770477047704721B1026842F065
:100A90000102026003E0026822F001020260704776
:100AA00000B58BB00F4800F023F80F4800900F48B6
:100AB00001900020029001200390002004908020EB
:100AC00005904000069080000790202008900002CA
:100AD000099000200A906946024800F0ABF80BB07C
:100AE00000BD0000080002404C240140220000200C
:100AF000016821F001010160002101604160816015
:100B0000C160484A811A90425BD012DC464AA0EB91
:100B1000020190423AD007DC444941181BD0142905
:100B200022D028297AD128E0142938D0282975D153
:100B30003EE0B1F56C7F5BD006DCB1F5627F49D059
:100B4000B1F5677F6AD14CE0B1F5717F57D0B1F54F
:100B5000767F63D15BE034494439496841F00F0145
:100B6000314A443A51605AE02F494439496841F0CA
:100B7000F0012D4A443A516051E02B49443949680B
:100B800041F47061284A443A516048E026494439AA
:100B9000496841F47041244A443A51603FE0224997
:100BA0004439496841F470211F4A443A516036E0A3
:100BB0001D494439496841F470011B4A443A516067
:100BC0002DE019494439496841F07061164A443AA8
:100BD000516024E01649096841F00F01144A116080
:100BE0001DE01349096841F0F001114A116016E057
:100BF0000F49096841F470610D4A11600FE00C491A
:100C0000096841F470410A4A116008E006E00849A9
:100C1000096841F47021064A116000E000BF00BF7E
:100C2000704700008000024044000240F8FFFDBF12
:100C30000404024010B50022026847F6F0739A439C
:100C40000C6A8B6823430C6923434C6923438C69EA
:100C50002343CC6923434C6A23438C6A23431A43BE
:100C60000260CB6843600B6883604B68C36010BD53
:100C70002DE9F0472848006800F110052E88264825
:100C80000068077AD6B9042F18D1244800780128C3
:100C90000FD100212248006880B2801C214A42F80E
:100CA000101030202049088000BF00201B49087028
:100CB00003E0072710201C49088027E0AC88A642E3
:100CC00001D8042000E002200746B44200D934468F
:100CD000A0B2A96888478046002000F0E5FB814665
:100CE000A2B24946404603F0E3FAA1B2002002F066
:100CF00073FA2888001B2880688820446880302088
:100D00000949088000020949088000BF02490968B2
:100D10000F72BDE8F08700008001002078010020FC
:100D2000505C0040006000409201002090010020D3
:100D30002DE9F0412848006800F110042688A068D9
:100D4000C0B1BEB1A588B54200D93546A8B2A168E8
:100D5000884707462088401B2080608828446080A0
:100D6000002000F07FFB8046AAB24146384601F0E1
:100D70003BFD00BF208850B14FF440501749088018
:100D80000021084602F028FA302015490880208802
:100D9000A188884204DB03200F490968087218E023
:100DA0002088002804DD05200B490968087210E03E
:100DB000208870B90620084909680872002109488E
:100DC000006880B2801C084A42F8101030200449A4
:100DD0000880BDE8F0810000800100209001002023
:100DE00092010020505C0040006000402DE9F84F67
:100DF0009848006845780027BA46062D1AD19548CC
:100E00000068007810F07F0F13D192490968887844
:100E1000012803D190490968CF690AE0022803D16B
:100E20008D4909680F6A04E0032802D18A490968DC
:100E30004F6A90E0002D60D1864800684088002805
:100E40005BD184480068C088022856D18148006878
:100E50000079002851D17F480068007810F07F0F9A
:100E600005D17C480068808808B97C4F73E07948D8
:100E70000068007800F07F00012810D175490968EA
:100E80004879754909688A6900219047002862D12C
:100E900070480068807A00285DD0704F5BE06D4834
:100EA0000068007800F07F00022854D1694800688B
:100EB000407900F00F0667480068407900F070093B
:100EC00064480068407910F0800F05D0644850F8FD
:100ED000260000F0300804E0614850F8260000F4D5
:100EE000405860480078B04235D9B9F1000F32D18E
:100EF000B8F1000F2FD0594F2DE0082D07D15548DC
:100F00000068007810F07F0F25D1574F23E00A2D9D
:100F100021D150480068007800F07F0001281AD1E4
:100F20004C480068807AB0B14A480068408890B95F
:100F300048480068007970B946480068C0880128B0
:100F400009D1444909684879434909688A690021F7
:100F5000904700B9454F57B13E480068A0F812A02D
:100F60003C48006887610020B84700240FE0394AF8
:100F700012685078384A1268116988470446032C71
:100F800005D10920334909680872BDE8F88F314856
:100F90000068008AA0F57F41FF3904D109202D495E
:100FA00009680872F1E7022C03D02A480068008A19
:100FB00020B90820274909680872E6E72548006833
:100FC000007810F0800F3CD022480068C088009064
:100FD00020480068008A0099884204D91D49009879
:100FE0000968088223E01B480068008A19490968DB
:100FF000C98888421BDA17480068008A16490968C0
:1010000091F82C10884203DA0020194908700EE08C
:1010100010480068008A1049096891F82C1090FB6C
:10102000F1F201FB120010B90120114908700A48C1
:10103000006890F82C10074800688182FFF718FEBE
:1010400006E0032003490968087200030949088083
:1010500000BF9AE78001002084010020B535000818
:10106000005C0040E80000203935000889350008A0
:10107000780100209001002000200149086070479D
:101080009800002010B5032000F0FCF90649086024
:101090000846006882B24FF48871044801F0A4FB4E
:1010A000032002F077F810BD94000020606F00204C
:1010B00010B5012000F00EF810BD704710B504F017
:1010C00029FF022000F006F810BD704770477047F6
:1010D0007047000001490860704700001404014097
:1010E000817900293ED02449096802689143224A47
:1010F0001160111D0968026891431F4A121D116099
:101100000179121F89580268114302791A4BD15094
:1011100019490831096802689143174A0832116079
:10112000111D096802689143134A0C32116041791C
:1011300010290ED1111F0968026811430E4A0832A6
:101140001160111D0968026811430B4A0C321160CD
:1011500010E04179084A8958026811434279064BE8
:10116000D15007E00179044A895802689143027915
:10117000014BD150704700000004014070B5054696
:10118000042440F6FF7000F0A1F80446042C19D1A5
:101190000D48006940F002000B49086108464561AE
:1011A000006940F04000086140F6FF7000F08EF8E2
:1011B0000446012C06D00448006941F6FD71084040
:1011C00001490861204670BD0020024004200B49FF
:1011D000C96811F0010F01D001200EE00749C9686C
:1011E00011F0040F01D0022007E00449C96811F092
:1011F000100F01D0032000E00420704700200240BF
:10120000704700000348006940F080000149086110
:1012100070470000002002400549096821F01001D4
:10122000034A1160114609680143116070470000CC
:101230000020024070B505460E4604240F2000F041
:1012400045F80446042C25D11348006940F00100FC
:10125000114908612E800F2000F038F80446042C54
:101260000FD1300C68800F2000F030F80446012CBC
:1012700010D00948006941F6FE710840064908612E
:1012800008E0012C06D00448006941F6FE710840D0
:1012900001490861204670BD00200240014600203F
:1012A000034A106800F038000843106070470000DF
:1012B00000200240024803494860034848607047E4
:1012C0002301674500200240AB89EFCD70B504468D
:1012D0000425FFF77BFF054605E003F0B5FBFFF7AC
:1012E00075FF0546641E012D01D1002CF5D104B90E
:1012F0000525284670BD704730B500228B071C0FAE
:101300000F2303FA04F20B4B8C1053F82430934351
:10131000084C8D1044F8253023468C1053F82430A7
:101320008C07240F00FA04F42343024C8D1044F878
:10133000253030BD080001402DE9F041024600256E
:101340000026002000230024002791F803C00CF0A1
:101350000F0591F803C01CF0100F03D091F802C0E4
:101360004CEA050591F800C0BCF1000F30D01468BC
:1013700000202AE04FF0010C0CFA00F3B1F800C095
:101380000CEA03069E421FD183004FF00F0C0CFAAB
:1013900003F7BC4305FA03FC4CEA040491F803C0CC
:1013A000BCF1280F05D14FF0010C0CFA00FCC2F87B
:1013B00014C091F803C0BCF1480F05D14FF0010CE7
:1013C0000CFA00FCC2F810C0401C0828D2D31460EC
:1013D000B1F800C0BCF1FF0F34DD546800202EE0EE
:1013E00000F1080C4FF0010808FA0CF3B1F800C046
:1013F0000CEA03069E4221D183004FF00F0C0CFA39
:1014000003F7BC4305FA03FC4CEA040491F803C05B
:10141000BCF1280F05D100F1080C08FA0CF8C2F84D
:10142000148091F803C0BCF1480F07D100F1080CFB
:101430004FF0010808FA0CF8C2F81080401C082888
:10144000CED35460BDE8F0810246002093680B4281
:1014500001D0012000E00020704741617047016128
:101460007047000001460548006880B200EBC100EB
:10147000001D034A32F8100080B27047505C0040F3
:101480000060004001460648006880B200EBC100E1
:10149000801D044A32F81000C0F3090070470000B4
:1014A000505C00400060004001460548006880B282
:1014B00000EBC100034A32F8100080B27047000010
:1014C000505C00400060004010B50F4B18681B1DB9
:1014D00019681B1D1A68A8B10C4CA070030A23716F
:1014E000030CA371030E2372A1720B0A23730B0C5E
:1014F000A3730B0E2374A274130A2375130CA37524
:10150000130E237610BD0000E8F7FF1F78000020BF
:10151000704770477047704710B518480068047AE4
:10152000022C01D0042C05D1FFF7A2FB1348006860
:10153000047A1CE0062C19D1104800684078052870
:101540000ED10E480068007810F07F0F08D10B49CB
:101550000968C87801F0AEFD09490968086A804742
:101560000849096888688047082400E0082403497E
:1015700009680C7201F04EF910BD000080010020D6
:101580008C0100208401002010B54FF40061024856
:10159000FFF765FF10BD00000010014010B54FF4CB
:1015A00000610248FFF759FF10BD00000010014024
:1015B00010B54FF400610548FFF746FF10B1FFF783
:1015C000EDFF01E0FFF7E0FF10BD0000001001405B
:1015D000704708B54FF4A06000F0C0F81E208DF8E9
:1015E000000002208DF8010000208DF8020001208B
:1015F0008DF80300684600F05FF84FF4A06000F03B
:10160000ADF803208DF8000004208DF801000320C0
:101610008DF8020001208DF80300684600F04CF8B8
:101620004FF4A06000F09AF81C208DF80000042010
:101630008DF801008DF8020001208DF80300684646
:1016400000F03AF84FF4A06000F088F81D208DF803
:10165000000004208DF8010005208DF80200012013
:101660008DF80300684600F027F84FF4A06000F002
:1016700075F823208DF8000004208DF80100062065
:101680008DF8020001208DF80300684600F014F880
:101690004FF4A06000F062F824208DF800000420D0
:1016A0008DF8010007208DF8020001208DF803005D
:1016B000684600F001F808BDF0B5002100220023C3
:1016C00000250F24C678002E35D0214E366806F44A
:1016D000E066C6F5E066310AC1F10405CC40467803
:1016E00006FA05F186782640314309010678B607E7
:1016F000F60EB140174E0778BF1056F8272006782F
:10170000B607F70EFF2606FA07F39A4319400A4375
:10171000104E0778BF1046F82720067806F01F07FE
:101720000126BE4007787F114FF0E02C0CEB8707B5
:10173000C7F800610BE0067806F01F070126BE40DF
:10174000054F90F800C04FEA6C1C47F82C60F0BDC4
:101750000CED00E000E400E080E100E0024901431C
:10176000024A1160704700000000FA050CED00E02D
:1017700070B50226494800684478484800680078F7
:1017800010F07F0F4AD1092C03D101F087FF0646E4
:1017900065E0052C14D141480068C0787F280BDC37
:1017A0003E480068807838B93C480068808818B99D
:1017B0003A480068807A08B108256BE000264EE0C0
:1017C000032C14D135480068C07801280DD1334866
:1017D0000068808848B931480068407A10F0200FCE
:1017E00003D001F07FFF064639E0022637E0012CE6
:1017F00035D12A480068C07801280DD127480068F3
:10180000808848B925480068407A10F0200F03D03E
:1018100001F0F6FD064622E0022620E01F4800689F
:10182000007800F07F00012805D10B2C17D101F0C2
:10183000C1FF064613E019480068007800F07F00F9
:1018400002280BD1012C03D101F0DAFD064606E097
:10185000032C04D101F05AFF064600E002264EB1E7
:10186000E0B20F4A1268516988470646032E01D13B
:1018700009250FE00EB108250CE0062500210948D6
:10188000006880B2801C084A42F8101030200749D6
:10189000088000BF014909680D7270BD80010020F9
:1018A00084010020505C0040006000409201002054
:1018B00010B500F015F800F0FBFC00F023FD00F07F
:1018C00045FD00F0CDFC00F0A5FC00F0CDFD00F0E2
:1018D000F1FD00F06FFD00F095FD00F002F810BD85
:1018E0007047704710B500241B480078012831D19B
:1018F000FEF798FC044619480078002804DD1748D4
:101900000078401E1549087014480078F8B914484A
:101910000078E0B900F024FE12481349097850F825
:10192000210012490860104800781149097888425E
:101930000DD00E480068406B401C0C490968486394
:101940000C480068401C0B490860FEF787FC2046E5
:10195000FEF76CFC10BD0000520000204500002086
:10196000460000206C650020480000206000002038
:10197000470000202C00002070B5054600261248C4
:101980000078002801DD002070BDFEF74BFC064604
:101990000E480468006820B10C48006840680B4994
:1019A00008603046FEF742FC5CB1032020702581C0
:1019B000002060603F20E07400212175204600F087
:1019C0001BFC2046E0E7000045000020300000201E
:1019D0002DE9F04105460E4614464FF000080CB9BB
:1019E000BDE8F08115B904202070F9E728780328B4
:1019F00002D001202070F3E730480078002802DD93
:101A000002202070ECE72E480078002802DD0D202F
:101A10002070E5E7FEF706FC80462889002808DDEF
:101A20002889401E28814046FEF700FC00202070D7
:101A3000D6E72448006890F82C0040F001002149C6
:101A4000096881F82C0000201E49096881F82D00E2
:101A50001C4800684685284600F090FB4046FEF78B
:101A6000E5FB00F043FDFEF7DDFB8046154800680E
:101A700090F82D00B0B11348006890F82D702846FA
:101A800000F0E6FA4046FEF7D1FB012F02D0022F0C
:101A900003D000BF0A20207002E00E20207000BF9B
:101AA00000BF9DE7002007490968C8614046FEF76E
:101AB000BDFB0020207000BF92E700004500002021
:101AC000460000205800002070B5044600250CB9DF
:101AD000042070BD2078032801D00120F9E7FEF72B
:101AE000A1FB0546A07A60B10023012219462046D9
:101AF00000F0D6FA2846FEF799FB00F0F7FC00202C
:101B0000E7E720894FF6FF71884207D22089401C01
:101B100020812846FEF78AFB0020DAE72846FEF7F8
:101B200085FB3220D5E7000010B50B48007890B94E
:101B300000F016FD0948007809490870094807496E
:101B4000097850F8210008490860084600680749EC
:101B50000860FEF76EFB10BD520000204800002018
:101B6000470000206C650020600000205800002025
:101B7000704700002DE9FE4F06460F4690461C4672
:101B80004FF000093F2C02DD2A20BDE8FE8FFEF752
:101B900049FB81461F480078002804DD4846FEF7CF
:101BA00045FB3C20F1E71C4850F8240060BB0120B5
:101BB000194941F824004846FEF738FB0023424605
:101BC0003946304600F0E1F882460020009001904E
:101BD0000346024651460290204600F0EFFC0546BF
:101BE00035B90E48007801280CD100F07FFC09E0DF
:101BF000FEF718FB81460020074941F824004846BB
:101C0000FEF714FB2846C0E74846FEF70FFB2820E6
:101C1000BBE70000450000206C650020520000205A
:101C20002DE9F04F85B00746884691461C46DDE910
:101C300011B6DDF838A0002003903F2C03DD2A20E8
:101C400005B0BDE8F08FFEF7EDFA03901F4800786D
:101C5000002804DD0398FEF7E9FA3C20F0E71C4871
:101C600050F8240060BB0120194941F82400039872
:101C7000FEF7DCFA33464A464146384600F085F81E
:101C8000049010985346CDE901B6009020460F9A73
:101C9000049900F093FC054635B90E4800780128F8
:101CA0000CD100F023FC09E0FEF7BCFA0390002001
:101CB000074941F824000398FEF7B8FA2846BFE721
:101CC0000398FEF7B3FA2820BAE700004500002089
:101CD0006C65002052000020704770472DE9F047E6
:101CE00005460F4614464FF000090CB9BDE8F087D1
:101CF0003F2D04DDFF2D02D02A202070F6E717B912
:101D00000C202070F2E71D480078002802DD122028
:101D10002070EBE7FEF786FA8146FF2D03D11848C5
:101D2000006890F82E50174850F825602EB94846A4
:101D3000FEF77CFA43202070D8E7012E05D14846F3
:101D4000FEF774FA43202070D0E7384600F02CFCF0
:101D50008046B8F10F0F05DD4846FEF767FA4120CF
:101D60002070C3E7394606F1480000F00FFC4846F2
:101D7000FEF75CFA0020207000BFB7E745000020A6
:101D8000580000206C650020704770B5044610466E
:101D90004FF080750560051F28462C606FF0010626
:101DA000051F28462E604FF01236051F28462E606C
:101DB0004FF00336051F28462E604FF00236051FF0
:101DC00028462E607610051F28462E60051F2846DF
:101DD00029604FF01136051F28462E604FF010364F
:101DE000051F28462E604FF00936051F28462E6035
:101DF0004FF00836051F28462E604FF00736051FA6
:101E000028462E604FF00636051F28462E604FF0FC
:101E10000536051F28462E604FF00436051F28465C
:101E20002E6070BD7047000070B50546002616484C
:101E30000078002800DD70BD002D23DDFEF7F2F9EB
:101E400006461248006890F830401148005D0F497E
:101E5000096891F8311088430D4908550846005D1E
:101E600040B90A48006890F832100A480078884360
:101E7000084908700548006845853046FEF7D6F9E0
:101E800000F034FB00BFD6E74500002058000020DA
:101E90004A000020490000202DE9F04780460D4609
:101EA00016461C4624480078002802DD5520BDE86F
:101EB000F087B8F1000F04D11DB916B90CB9542040
:101EC000F5E73B2D01DD5120F1E73B2E01DD5220EE
:101ED000EDE7B4F57A7F01DB5320E8E74FF47A7041
:101EE00060434FF47A71B0FBF1F14FF4616008FB8D
:101EF00000F0C5EB051200EB8200304400EB40021D
:101F0000C2EBC01001EBC0074FEA1749BFB2384619
:101F1000FFF78AFF0BE04FF40040FFF785FF4FF417
:101F20000040FFF781FFA9F101001FFA80F9B9F124
:101F3000000FF0DC0020BAE74500002070B5002556
:101F4000FEF770F90546034804682846FEF76EF967
:101F5000204670BD7400002070B5002600F076F8B1
:101F6000FEF760F9064633480068401C31490860B6
:101F70003046FEF75BF930480078012858D12F48E9
:101F8000007820B1012804D0022809D103E00125FE
:101F90000BE0002509E0012501202849087004E034
:101FA000012500202549087000BF00BF05B970BD9C
:101FB0002348046838E0FEF735F90646608D78B3AB
:101FC000608D401E0004000C608529D194F82C001F
:101FD00010F0370F09D014F82C0F20F037002070C4
:101FE00001206070A4F12C0402E0002084F82D0090
:101FF00094F82C0010F0080F12D104F13004A078EE
:102000001049097840EA01000E49087020780E490D
:10201000085C617840EA010014F830190A4A50540B
:1020200064693046FEF702F994F82E003F28C2D1C9
:1020300000BFBCE7740000205200002068000020B0
:1020400064000020490000204A0000207047000082
:10205000124A126892F8301000F10B02525C0F4BDA
:102060001B6893F831309A4300F10B035A541A4617
:10207000525C32B9827A094B1B6893F832309A432A
:1020800082720022054B1B6883F82D20034B1B68CE
:1020900083F82C20014B1B68DA6170475800002040
:1020A0002DE9F04704460D46164694F80A90DFF8ED
:1020B000BCA01AF809204FF0010909FA02F909F049
:1020C000FF0804F10B0919F802901AF809704FF093
:1020D000010909FA07F909F0FF0C07EBC20909F039
:1020E000FF0004F10B0919F8029029EA0C0904F128
:1020F0000B0A0AF80290D14619F80290B9F1000FC4
:1021000005D194F80A9029EA080984F80A90DFF8C2
:10211000609059F820104FF00009A1F82A90C1F8FA
:102120001C900D6281F82D3091F82C9029EA060957
:1021300081F82C9091F82C90B9F1000F13D1DFF8B1
:10214000349099F8009049EA0809DFF828A08AF845
:102150000090DFF8249019F8029049EA0C09DFF8A2
:1021600018A00AF80290BDE8F0870000AC7A0008D9
:102170006C650020490000204A00002010B51B4A71
:102180001268D061194A126892F83010184A525CED
:10219000164B1B6893F831309A43154B5A541A4624
:1021A000525C42B9114A126892F83230114A1278E0
:1021B0009A43104B1A700D4A126892F8303000F1B1
:1021C0000B02D25C094B1B6893F831301A43074B62
:1021D0001B6893F8304000F10B031A55827A034BC9
:1021E0001B6893F832301A43827210BD58000020E9
:1021F0004A000020490000200023837200F10B01F7
:10220000002204E0002301F8013B531CDAB2082A43
:10221000F8DB704770B58C210F4800F01BF90E4CAD
:1022200004F11C0600250AE00020207066603F20B3
:10223000A0720021E1721C341C36681C85B2042D8A
:10224000F2DB0020207060603F20A0720021E1726C
:1022500001480249086070BDE060002034000020A1
:1022600030B54FF49061104800F0F4F80E4B03F1D4
:10227000240500240AE0002018705D603F20D87417
:102280000021197524332435601C84B21F2CF2DB25
:102290000020187058603F20D8740021197502483A
:1022A0000249086030BD0000605C00203000002062
:1022B00000200A4908600A4908700A4908700A495A
:1022C00008700A4908700A4908600A4908600A4902
:1022D00008600A4908600A490870704774000020C5
:1022E000450000204600002053000020520000203E
:1022F0002C00002054000020400000203C00002062
:102300004400002000220B4B1A700B49002004E00F
:10231000002201F8012B421CD0B20828F8DB002271
:10232000064B1A70064B1A70064B1A60064B1A6061
:1023300070470000490000204A00002047000020AC
:1023400048000020600000205800002030B54FF405
:10235000F261144800F07EF84FF48071124800F0EA
:1023600079F8104B03F1580500240AE05D613F2025
:1023700083F8480000214920C15458335835601C67
:10238000C4B2152CF2D3002058613F2083F84800D6
:1023900000214920C1540020044908600148044933
:1023A000086030BD6C6600206C6500206400002071
:1023B0005C00002000B587B00320002180220A4B7A
:1023C000CDE90132CDE903104FF6FF703F23074AF4
:1023D00000900748FFF724FC06AA06A13F20FFF75C
:1023E0007DFC07B000BD00006C6300206865002024
:1023F000E926000875432F4F532D49492049646C45
:102400006500000000B587B00320002180220A4B40
:10241000CDE90132CDE903104FF6FE703E23074AA5
:1024200000900748FFF7FCFB06AA06A13E20FFF735
:1024300055FC07B000BD00006C61002068630020FF
:102440000D27000875432F4F532D494920537461C0
:102450007400000004E0002200F8012B4A1E91B233
:102460000029F8DC7047000070B5B4210F48FFF771
:10247000F1FF0E4C00250DE0681C00EBC0000B497D
:1024800001EB800060603F202075002161752434DD
:10249000681C85B2042DEFDB002060603F202075B2
:1024A0000021617501480249086070BDFC6D002083
:1024B0006C00002070B560210A48FFF7CBFF094C83
:1024C00004F11806002504E0266018341836681C4C
:1024D00085B2032DF8DB0020206002480249086025
:1024E00070BD0000B06E00207000002010B5002408
:1024F000FDF798FE044613480078F8B912480078B2
:10250000E0B900F02DF811481149097850F8210080
:10251000104908600E4800780F49097888420DD0AC
:102520000C480068406B401C0A49096848630B4826
:102530000068401C09490860FDF78BFE2046FDF746
:1025400075FE10BD45000020460000206C6500208F
:102550004800002060000020470000202C000020E0
:102560000649074A1278885C0649095C034A515CAF
:1025700001EBC001044A117070470000AC7A0008FA
:10258000490000204A0000204800002002460020A8
:1025900005E011F8013B02F8013B431CD8B20B786F
:1025A000002BF6D1137070470146002002E0491C51
:1025B000421CD0B20A78002AF9D170472DE9F84FB1
:1025C00005460E4617469846DDE90BABDDF8289028
:1025D00000200090FDF726FE00903D480468002C86
:1025E00071D054F8140F3A4908600098FDF71EFEA8
:1025F00044F8146CA576002020766076E08244F8DA
:1026000010AC44F8089C44F80C7C24F804BC24F872
:10261000028CE077E8102077217F01208840A077A6
:1026200005F00700E076E17E012088406077002019
:10263000A0602061E0602062A0626062E0622063CE
:102640003F2084F83400A4F114044FF000014FF04F
:10265000490001552046FFF78BFA2046FFF73CFB67
:10266000FDF7E0FD00901B4840F825401A4800683F
:1026700060610020A0611848006810B11648006829
:1026800084611548046004F13004A0781349097886
:1026900040EA01001149087020781149085C61780E
:1026A00040EA010014F830190D4A50540D480078E2
:1026B00000F101000B4908700098FDF7B7FD0020FC
:1026C000BDE8F88FFFE70098FDF7B0FD4220F7E77F
:1026D0005C0000206C6500206400002049000020A0
:1026E0004A00002053000020002400BFFDF79AFD9F
:1026F000044605480068401C034908602046FDF771
:1027000095FDFFF7EAFAF1E754000020002700BF2B
:1027100002E0C820FFF788FB1A4800780028F8D0AC
:10272000194800686421B0FBF1F400BFFDF77AFDA1
:1027300007461648006816490860144806680020D5
:10274000124908603846FDF771FD6CB1B6FBF4F034
:10275000C0F1640045B2002D02DB0E4805700BE0AD
:1027600000200C49087007E000200A49087006485C
:1027700000686421B0FBF1F4FFF706FB6420FFF76B
:1027800053FBD3E7440000203C000020540000200D
:10279000400000203800002010B511480068047A7D
:1027A000032C01D0052C05D1FEF7C2FA0C480068B5
:1027B000047A0EE0072C05D10A490968C8688047E9
:1027C000082406E0022C01D0042C01D1082400E0EA
:1027D0000824034909680C7200F01CF810BD0000C1
:1027E0008001002084010020F0B5561C7510074EB2
:1027F00006EB41042B4605E034F8047B20F8017B0E
:10280000401C5B1E002BF7D1F0BD000000600040B3
:102810007047000010B50D4890F82C10002000F013
:102820007BFC0B480068007A082805D14002094962
:10283000088010200849088005480068007A0928A7
:1028400001D1012010BD0020FCE70000EC000020B9
:1028500080010020900100209201002010B501208D
:1028600001F088FC01240B48046000200A4908801C
:1028700008460088074908600020091D08604FF4D9
:10288000E050054908800846008802490860002099
:1028900010BD0000405C00408A0100200146D1E9E3
:1028A0000002904203D3D1E90002801A04E0D1E98A
:1028B0000020801AC0F5807080B27047F0B50346E2
:1028C0000E46154600271846FFF7E8FF0746781919
:1028D000FF2801DD0020F0BD00240AE0315D03F196
:1028E00008001A6881541878401CC0B21860601C37
:1028F00084B2AC42F2DB2046EDE7F0B503460E466B
:10290000154600271846FFF7C9FF0746AF4200DA11
:10291000FDB200240AE003F108005968405C30551C
:102920001879401CC0B25860601C84B2AC42F2DB23
:102930002046F0BD10B503460C461846FFF7AEFF23
:10294000012801DA002010BD03F108005968405C3D
:1029500020701879401CC0B258600120F3E70000D5
:1029600001460020034A506820F44040084350606C
:10297000704700000010024029B1064A5269024324
:10298000044B5A6104E0034A52698243014B5A6185
:10299000704700000010024029B1064AD269024384
:1029A000044BDA6104E0034AD2698243014BDA61E5
:1029B000704700000010024029B1064A1269024324
:1029C000044B1A6104E0034A12698243014B1A6105
:1029D000704700000010024029B1064A9269024384
:1029E000044B9A6104E0034A92698243014B9A6165
:1029F000704700000010024029B1064AD268024325
:102A0000044BDA6004E0034AD2688243014BDA6087
:102A100070470000001002400348406A40F0807098
:102A200001494862704700000010024010B54FF4A1
:102A3000803000F0BDF800F015F912490870084622
:102A4000007801281CD11020FEF7E6FB0220FEF7DB
:102A500025FC002000F0A0F8002000F0DDF84FF485
:102A6000806000F0CDF84FF48040FFF779FF4FF41D
:102A7000E0114FF4803000F0E1F8012000F0D8F8C8
:102A800010BD00001000002030B5002100220024FD
:102A900000232D4D6D6805F00C0121B1042905D0EE
:102AA000082923D105E0294D056022E0274D056066
:102AB0001FE0254D6D6805F47012022505EB92426A
:102AC000214D6D6805F480341CB9214D55430560D6
:102AD0000BE01D4D6D6815F4003F03D01C4D5543B0
:102AE000056002E0194D5543056002E0174D056091
:102AF00000BF00BF144D6D6805F0F0010909154DC8
:102B00006B5C0568DD4045600F4D6D6805F4E06164
:102B1000090A104D6B5C4568DD4085600A4D6D68A3
:102B200005F46051C90A0B4D6B5C4568DD40C5601A
:102B3000054D6D6805F44041890B074D6B5CC56818
:102B4000B5FBF3F5056130BD0010024000127A00BC
:102B500000093D005D7C00086D7C000810B5014651
:102B60000022002300204A11012A02D1094C2368C7
:102B700006E0022A02D1074C236A01E0054C636A91
:102B800001F01F02012494401C4201D0012000E00A
:102B9000002010BD0010024001460020034A50688A
:102BA00020F0F00008435060704700000010024021
:102BB0001149096821F480310F4A116011460968F2
:102BC00021F480211160B0F5803F03D0B0F5802F53
:102BD0000ED106E00849096841F48031064A1160C7
:102BE00007E00549096841F4A021034A116000E0AB
:102BF00000BF00BF70470000001002407047000097
:102C000001460020034A506820F4E0600843506009
:102C1000704700000010024001460020034A50683F
:102C200020F4605040EAC10050607047001002403C
:102C30000149086670470000000042420246002039
:102C4000044B586820F47C1042EA01031843014BFE
:102C5000586070470010024001490860704700004A
:102C6000D800424210B5002400BF3120FFF776FFA4
:102C70000C4908700C480068401C0B490860094862
:102C8000007828B908460068A0F58071FF39ECD1BA
:102C90003120FFF763FF08B1012400E00024204643
:102CA00010BD000098010020940100207047000032
:102CB000024909888143014A118070470428004075
:102CC00001460020064A12880A40D0B2044A121F68
:102CD00012880A4202D008B1012000E000207047AB
:102CE0000428004010B5FDF79DFA0446104800780E
:102CF000401C0F4908702046FDF798FA0120FFF7A5
:102D0000DFFF20B10120FFF7D3FF00F013F8FDF73C
:102D100089FA044606480078002804DD0448007853
:102D2000401E034908702046FDF780FA10BD0000E0
:102D30004500002000BF0348008810F0200FFAD0A3
:102D400070470000042800407047000000B587B0BD
:102D5000002025490880254908701020ADF818008A
:102D600003208DF81A0010208DF81B0006A92048BA
:102D7000FEF7E2FAE020ADF8180003208DF81A0003
:102D800018208DF81B0006A91948FEF7D5FA002077
:102D9000ADF804004FF48270ADF806004FF4006007
:102DA000ADF808000220ADF80A000020ADF80C00D4
:102DB0004FF40070ADF80E003020ADF81000002088
:102DC000ADF812000720ADF8140001A9094800F081
:102DD0004AF90121074800F004F910210448FEF7E0
:102DE0003EFB07B000BD00002400002026000020AC
:102DF000000801400030014010B56021074800F094
:102E0000FCF8064800F02AF9054908801021054819
:102E1000FEF725FB00200449087010BD003001407A
:102E200024000020000801402600002010B50446C0
:102E3000124801780078401E104A107021B9022112
:102E40000F4800F0F2F808B9012010BDC8200B4966
:102E5000087010210B48FEF700FB094800F0FEF84F
:102E6000074800F0FBF82146054800F0FAF8012277
:102E70006021034800F0E2F80020E6E72600002089
:102E8000003001400008014010B5FFF7B5FF10BD4C
:102E900000B587B0002026490880264908704FF405
:102EA0008050ADF8180003208DF81A0010208DF81E
:102EB0001B0006A92048FEF73FFA4FF46040ADF82A
:102EC000180003208DF81A0018208DF81B0006A9A1
:102ED0001948FEF731FA0020ADF804004FF4827073
:102EE000ADF806004FF40060ADF808000220ADF820
:102EF0000A000020ADF80C004FF40070ADF80E0091
:102F00002820ADF810000020ADF812000720ADF821
:102F1000140001A9094800F0A6F80121074800F0B3
:102F200060F84FF480510448FEF799FA07B000BDED
:102F3000280000202A000020000C0140003800403A
:102F400010B56021084800F058F8074800F086F8EE
:102F5000064908804FF480510548FEF780FA0020AA
:102F60000449087010BD000000380040280000200F
:102F7000000C01402A00002010B5044613480178D7
:102F80000078401E114A107021B90221104800F04B
:102F90004CF808B9012010BDC8200C4908704FF446
:102FA00080510C48FEF759FA094800F057F80848D4
:102FB00000F054F82146064800F053F80122602141
:102FC000034800F03BF80020E5E700002A0000205D
:102FD00000380040000C014010B5FFF7B1FF10BDF4
:102FE000704721B1028842F04002028004E002886A
:102FF0004FF6BF731A400280704710B50022552962
:1030000005D10389038843F0400303800CE056296F
:1030100001D0532901D1038906E001F00F040123F7
:10302000A3409AB2D343038110BD02460020138906
:103030000B4201D0012000E00020704730B5002491
:1030400000230C110125A540ABB21AB185881D43A0
:10305000858002E085889D43858030BD0146888952
:1030600070478181704710B50022028802F44152F6
:103070000B884C8823438C882343CC8823430C89BA
:1030800023434C8923438C892343CC8923431A430C
:103090000280838B4FF2FF74234083830B8A038269
:1030A00010BD00004FF6F8710140014A11607047F1
:1030B000505C004030B501460C4B1A7800200DE002
:1030C000C3B20B4C54F8233048F68F742340C4B27B
:1030D0002343C4B2064D45F82430401C9042EFD340
:1030E00041F08003024C4C34236030BDE8000020E6
:1030F000005C004010B54A105300054A126892B2B5
:1031000002EBC002121D034C44F8123010BD000047
:10311000505C00400060004010B502460F48006857
:1031200080B200EBC200801D0D4C04EB40033E2931
:103130000BDD481111F01F0F01D1441EA0B24FF456
:10314000004444EA80241C6007E0481011F0010F9D
:1031500001D0441CA0B284021C6010BD505C004031
:103160000060004010B50A4B53F820304BF68F74C6
:1031700003EA040211F4805F01D082F4805211F45A
:10318000005F01D082F40052014B43F8202010BDB3
:10319000005C0040074A52F820204BF68F7302EA89
:1031A000030181F4805181F40051024A42F8201059
:1031B00070470000005C004010B54A105300044AFC
:1031C000126892B202EBC002024C44F8123010BDF9
:1031D000505C004000600040044A126892B202EB6A
:1031E000C002921C024B43F812107047505C004022
:1031F0000060004010B50A4B53F8203048F6BF7409
:1032000003EA040211F0100F01D082F0100211F055
:10321000200F01D082F02002014B43F8202010BD86
:10322000005C0040074A52F8202048F6BF7302EACB
:10323000030181F0100181F02001024A42F82010C0
:1032400070470000005C0040054A52F8202048F614
:103250008F131A400A43024B43F8202070470000A6
:10326000005C004010B500F001F810BD0CB5002066
:10327000019000903448006840F480303249086082
:1032800000BF3148006800F4003000900198401CF5
:103290000190009820B90198A0F58071FF39F0D114
:1032A0002948006810F4003F02D00120009001E09E
:1032B000002000900098012843D12448006840F085
:1032C0001000224908600846006820F003000860EA
:1032D0000846006840F0020008601B4840681A4930
:1032E00048600846406848600846406840F480608E
:1032F00048600846406820F47C10486008464068F2
:1033000040F4E81048600846006840F080700860AB
:1033100000BF0D48006810F0007FFAD00A484068EE
:1033200020F00300084948600846406840F0020069
:10333000486000BF0448406800F00C000828F9D13C
:1033400001E000BFFEE70CBD00100240002002407B
:1033500008B52848006880B2001D274931F81000E0
:1033600080B201EB4000009024480068007A0928F0
:103370002FD0009800782149096808700098401CF7
:103380000090009800781D49096848700098401C1A
:1033900000900098801C0090009931F8020B009179
:1033A000FDF765F91549096848800098801C009070
:1033B000009931F8020B0091FDF759F90F4909689E
:1033C00088800098801C0090009800880B4909684C
:1033D000C880012009490968087208480068C08847
:1033E00010B9FEF7C5F901E0FDF700FDFFF712FA8D
:1033F00008BD0000505C00400060004080010020DB
:103400002DE9F04747480068007800F07F08B8F1E0
:10341000000F0AD143480068407A00F0DF004149BC
:10342000096848720020BDE8F087B8F1020F76D134
:103430003C480068408818B93A480068007908B1EB
:103440000220F0E7DFF8E09036480068477927F07F
:1034500080052C4633480068407910F0800F05D075
:10346000324850F8240000F0300604E02F4850F8AD
:10347000240000F4405699F80000A84204D91EB177
:1034800028480068807A08B90220CCE717F0800F3E
:103490000ED0264850F8240000F03000102837D114
:1034A000E0B2FDF7C7FAE0B23021FFF7A3FE2FE04C
:1034B0001E4850F8240000F44050B0F5805F27D13A
:1034C000A4B91B4A92F82C10E0B2FFF725FE174969
:1034D00051F824104BF68F7201EA020080F48050FC
:1034E00080F40050114941F8240011E0E0B2FDF7EA
:1034F0008DFA0E4951F824104BF68F7201EA020042
:1035000080F4805080F40050084941F8240000BF46
:103510000849096848698047002084E7FFE700BF41
:10352000022080E780010020E8000020005C0040CD
:10353000EC0000208C01002010B504462CB90120BD
:10354000064909680882002010BD05490968086815
:103550008047024800680A30F6E70000800100203A
:103560008C01002010B5024606480068438A32B933
:103570008888C01A034C24682082002010BD086887
:103580001844FBE78001002010B504462CB9012047
:10359000064909680882002010BD05490968886845
:1035A0008047024800680C30F6E7000080010020E8
:1035B0008C01002010B504462CB90220334909685B
:1035C0000882002010BD0020314908802F48006883
:1035D000007810F07F0F1CD12C490968487A10F050
:1035E000200F05D02A49097841F00201284A1170BC
:1035F00010F0400F06D02649097801F0FE01244A58
:10360000117005E02249097841F00101204A11704A
:1036100036E01E480068007800F07F00012801D1E4
:103620001B48CFE719480068007800F07F000228A7
:1036300024D1164A1268517901F00F0011F0800F61
:103640000DD0144A52F8202002F03002102A14D172
:103650000F4A127842F001020D4B1A700DE00D4A2C
:1036600052F8202002F44052B2F5805F05D1084A9A
:10367000127842F00102064B1A7001E00020A1E727
:10368000054909680869804701489BE780010020D7
:103690007A010020005C00408C01002010B50E482B
:1036A0000068C0780D494978884213DC0A480068F0
:1036B000807878B908480068808858B9064800685A
:1036C000C0780549096888720549096848688047D3
:1036D000002010BD0220FCE780010020E80000204F
:1036E0008C01002010B507480068407A40F02000A7
:1036F00004490968487204490968C869804700207C
:1037000010BD0000800100208C0100202DE9F04157
:1037100024480068467926F080073C462148006826
:10372000407910F0800F05D01F4850F8240000F0B9
:10373000300504E01C4850F8240000F440551B48B4
:103740000078A04208D917480068408820B91DB108
:1037500014480068807A10B90220BDE8F08116F0A4
:10376000800F0CD0104951F8241048F6BF7201EABE
:10377000020080F010000C4941F824000CE00A49D6
:1037800051F824104BF68F7201EA020080F4805049
:10379000054941F8240000BF054909688869804748
:1037A0000020DAE780010020005C0040E8000020F3
:1037B0008C01002010B5174B1B68D978154B1B687E
:1037C0005879154B1B689A69904704461148006860
:1037D000807AE8B13CB90F480068007918B90D4803
:1037E0000068807808B1022010BD8CB90B490968C7
:1037F000C868804707480068407906490968C87268
:1038000004480068C0780349096808730020EBE7A2
:103810000220E9E780010020840100208C010020C3
:103820007047000010B51148006840F001000F49D2
:103830000860084640680E4908400C494860084640
:1038400000680C490840094908600846006820F4EF
:10385000802008600846406820F4FE0048604FF46D
:103860001F008860FFF7FEFC10BD00000010024042
:103870000000FFF8FFFFF6FE704770477047704783
:1038800010B50121014800F091F810BD002C014055
:1038900010B5FCF7C7FC04460A480078401C0949EB
:1038A00008702046FCF7C2FC0121880700F000F9EF
:1038B00028B1FEF751FB0121880700F07AF8FEF7E6
:1038C00011F810BD4500002010B5FCF7ABFC044614
:1038D00012480078401C114908702046FCF7A6FCED
:1038E00000F01AFB01210E4800F0E2F828B1012196
:1038F0000B4800F05EF801F08FFEFCF793FC0446E5
:1039000006480078002804DD04480078401E03497A
:1039100008702046FCF78AFC10BD0000450000201E
:103920000004004010B5FCF77DFC04461048007808
:10393000401C0F4908702046FCF778FC01210D4817
:1039400000F0B6F818B101210A4800F032F8FCF78F
:1039500069FC044606480078002804DD0448007825
:10396000401E034908702046FCF760FC10BD0000B3
:1039700045000020000800407047704770477047BE
:103980007047704710B50121014800F00FF810BDD5
:103990000034014021B1028842F08002028004E03C
:1039A000028840F27F331A4002807047CA43028285
:1039B0007047CA430282704721B1028842F0010277
:1039C000028004E0028840F2FE331A400280704711
:1039D00010B504463449601A8C4245D00CDCB4F171
:1039E000804F1DD03148201823D0B0F5806F29D0EA
:1039F000B0F5006F54D12EE0B0F5806F3DD0B0F53A
:103A00008E3F03D0B0F5923F4AD13FE00121C8027A
:103A1000FEF7F2FF00214FF40060FEF7EDFF40E0FB
:103A200001210846FEF7C8FF00210120FEF7C4FF70
:103A300037E001210220FEF7BFFF00210220FEF740
:103A4000BBFF2EE001210420FEF7B6FF0021042079
:103A5000FEF7B2FF25E001210820FEF7ADFF0021AF
:103A60000820FEF7A9FF1CE001211020FEF7A4FFAB
:103A700000211020FEF7A0FF13E001212020FEF717
:103A80009BFF00212020FEF797FF0AE00121480359
:103A9000FEF7B2FF00214FF40050FEF7ADFF00E04B
:103AA00000BF00BF10BD00000010004000FCFFBFC1
:103AB00030B50246002000230024158A05EA0103E0
:103AC000958905EA010413B10CB1012000E0002042
:103AD00030BD1AB183890B43838102E083898B4314
:103AE0008381704770B5002400220023058C4FF6B7
:103AF000FE7635400584028C8388048B4FF68F75E3
:103B00002C400D882C43751E2A400D892A434D8870
:103B10002A43CD8885860F4DA84202D00E4DA8427B
:103B200013D14FF6F7752A404D892A434FF6FB759E
:103B30002A408D882A4347F6FF652B4047F6FF55FC
:103B40002B408D892B43CD892B43838004830284B2
:103B500070BD0000002C0140003401400A460021E5
:103B6000018B4FF6F7731940114301837047000032
:103B700070B5002400220023058C4FF6EF76354007
:103B80000584028C8388048B48F6FF752C400D88D1
:103B90004FF6FF7606EA05252C434FF6DF752A40DF
:103BA0000D8906EA05152A434D8806EA05152A43BC
:103BB000CD880587134DA84202D0134DA8421DD1D0
:103BC0004FF67F752A404D894FF6FF7606EA0515B8
:103BD0002A434FF6BF752A408D8806EA05152A4309
:103BE00047F6FF352B4047F2FF752B408D8906EADB
:103BF00085052B43CD8906EA85052B438380048305
:103C0000028470BD002C0140003401400A460021AE
:103C1000018B4FF2FF7319404FF6FF7303EA022343
:103C2000194301837047000070B50024002200236F
:103C3000058C4FF6FF6635400584028C8388848BA3
:103C40004FF68F752C400D882C434FF6FF552A40B8
:103C50000D894FF6FF7606EA05252A434D8806EAC8
:103C600005252A43CD888587134DA84202D0134DE0
:103C7000A8421DD14FF2FF752A404D894FF6FF76BD
:103C800006EA05252A434FF6FF352A408D8806EAC5
:103C900005252A4346F6FF752B4045F6FF752B4058
:103CA0008D8906EA05152B43CD8906EA05152B43B8
:103CB00083808483028470BD002C01400034014065
:103CC0000A460021818B4FF6F77319401143818317
:103CD0007047000070B5002400220023058C4EF6CA
:103CE000FF7635400584028C8388848B48F6FF7507
:103CF0002C400D884FF6FF7606EA05252C434DF63D
:103D0000FF752A400D8906EA05352A434D8806EAE3
:103D100005352A43CD88A0F84050094DA84202D06D
:103D2000084DA84207D1C3F30D038D894FF6FF76E6
:103D300006EA85152B4383808483028470BD0000CE
:103D4000002C0140003401400A460021818B4FF2D3
:103D5000FF7319404FF6FF7303EA0223194381836F
:103D60007047818470470000028802F08F02028051
:103D70000A898B881A4303881A430280CA8882857D
:103D80000A88028501228282044A904202D0044AB3
:103D9000904201D18A7A028670470000002C0140CF
:103DA00000340140002023490870FCF717FC002074
:103DB000FDF7E2FD204908600020FDF7DDFD1F4909
:103DC000086004231E4A00211E48FDF7D3FE052388
:103DD0001D4A00211D48FDF7CDFE06231C4A002187
:103DE0001C48FDF7C7FE07231B4A00211B48FDF7AF
:103DF000C1FE08231A4A00211A48FDF7BBFE6423BE
:103E0000002211461046FEF747F8642300221146AF
:103E10001046FEF741F801200649087009E001F05C
:103E200053F900F03DFD6423002211461046FEF7D1
:103E300033F8F4E700000020040000200800002010
:103E400098190020BD5C000898290020A55D000895
:103E500098390020ED5D000898490020315E000887
:103E600098590020715E00080EB54FF08040FFF7B2
:103E7000AFFD40F2E730ADF806004720009000208B
:103E8000ADF80800ADF8040069464FF08040FFF738
:103E90006BFF01218807FFF789FD00214FF080406B
:103EA000FFF778FD012211469007FFF712FE01216E
:103EB0008807FFF781FD0EBD3EB51648FFF788FD68
:103EC0001E240A2C00DA0A24601E80B2ADF8060017
:103ED000472000900020ADF80800ADF804006946C6
:103EE0000C48FFF741FF01210A48FFF75FFD002161
:103EF0000848FFF74FFD012211460648FFF7E9FD8C
:103F000000210448FFF72DFF00210248FFF754FD70
:103F10003EBD00000004004010B500210348FFF73B
:103F200020FF01210148FFF747FD10BD00040040BC
:103F30007047704710B502F0CBFC10BD704770475A
:103F4000CA430280704721B1828942F400528281C3
:103F500004E082894DF6FF731A40828170470000A9
:103F600010B53148007920B1012806D002280ED1C1
:103F700008E000202D49C8800DE04FF440502B4947
:103F8000C88008E04FF400502849C88003E000F0E2
:103F900051F8002010BD00BF2348407920B101280E
:103FA00006D002280ED108E00020204908810DE04B
:103FB0004FF480601D49088108E04FF4C0601B4940
:103FC000088103E000F036F80020E3E700BF164860
:103FD0008079072802D0082810D103E00020134977
:103FE00088800FE01148008918B900200F498880A7
:103FF00003E04FF480500D49888003E000F01AF888
:104000000020C7E700BF0848006808490860002092
:1040100088810C204881064800F054F801210448AA
:10402000FFF791FF0120B5E7E0000020106F0020AE
:104030000038014010B54FF416500B4908600020BD
:104040008880C8804FF4C0600881002088810C20DF
:104050004881064800F036F8012240F22551034815
:1040600000F00FF810BD0000106F00200038014074
:104070000246002013880B4201D0012000E00020FE
:104080007047F0B50346002400260025002018469E
:10409000C1F3421401F01F06012707FA06F5012CAF
:1040A00001D10C3004E0022C01D1103000E01430BA
:1040B0001AB107682F43076002E00768AF43076043
:1040C000F0BD00002DE9F04786B005460E460024FD
:1040D000A24600BF00BF00272F462C8A4CF6FF7077
:1040E0000440F08804432C82AC894EF6F31004405F
:1040F000B08831890843718908430443AC81AC8A94
:104100004FF6FF400440B0890443AC8201A8FEF79B
:10411000BBFC1248874202D1DDF810A001E0DDF8B7
:104120000CA00AEBCA0000EB0A1031688900B0FB52
:10413000F1F86420B8FBF0F004012009642101FBD0
:104140001089322000EB0910B0FBF1F000F00F00F5
:1041500004432C8106B0BDE8F08700000038014020
:1041600001468888C0F308007047C1F308028280C6
:104170007047704710B504462CB14FF48041054894
:10418000FDF76BF904E04FF480410248FDF767F951
:1041900010BD0000000C01407047000010B5084839
:1041A0000849086002200968087207480749086042
:1041B000074808490860054909680868804710BD34
:1041C000A06F002080010020EC000020840100206E
:1041D0001C0100208C01002008B54FF4C060FDF7E1
:1041E000BDFA14208DF8000000208DF801008DF834
:1041F000020001208DF803006846FDF75DFA2520D6
:104200008DF8000001208DF801006846FDF754FA92
:1042100008BD000010B51748006817490880084617
:10422000008800F4806015490988084206D04FF6DE
:10423000FF30104908601249486880470E480088DE
:1042400000F400700D490988084208D04FF6FF506D
:10425000084908600B480078401C0A490870064865
:10426000008800F4004005490988084201D0FCF7A5
:1042700047FA10BD445C0040D80000208A010020AD
:10428000EC0000209C00002010B5FFF7C3FF06489B
:10429000006840B104480068C1B2044800F04AFE1A
:1042A00000200149086010BD94000020606F0020CC
:1042B000F0B5144604F1010C4FEA6C07DFF824C096
:1042C0000CEB41033D460AE00678401C90F800C024
:1042D00046EA0C2223F8022B9B1C401C6D1E002D6D
:1042E000F2D1F0BD0060004070B504460025212CDD
:1042F00008D112480068007800F07F0021280ED114
:104300000F4D0CE0202C0AD10C480068007800F01A
:104310007F00212800D10B4D20200B4908700DB9DA
:10432000022070BD054800688561002103480068CF
:1043300041820020A8470020F3E700008001002010
:104340007543000805450008DC00002010B5044650
:1043500002492046FFF706F910BD00004801002081
:1043600010B5044602492046FFF7FCF810BD0000D6
:1043700040010020014629B90820034A1268108232
:10438000002070470148FCE780010020E000002089
:1043900070B5054606480068C478042C01DD00208D
:1043A00070BD044800EBC4012846FFF7DBF8F7E7CF
:1043B00080010020500100200246002901DD02207A
:1043C0007047012A01DD0220FAE70020F8E700002B
:1043D000014608480068007800F07F00212807D1D6
:1043E000022901D100207047222901D10020FAE7DB
:1043F0000220F8E78001002010B500203449096848
:1044000088723448C07932490968487200203049BE
:104410000968C872FEF746FE4FF400710020FEF7EF
:1044200013FF10210020FEF7E5FE40210020FEF7DB
:1044300061FE80210020FEF7BFFE0020FCF70EFB8E
:10444000254890F82C100020FEF766FE0020FEF7AD
:10445000A1FE00210120FEF7F7FEC0210120FEF79A
:10446000ABFE20210120FEF7C5FE00210120FEF752
:1044700079FE4FF4C0610220FEF7E6FE4FF4807132
:104480000220FEF799FE00210220FEF76BFE20219C
:104490000220FEF7AFFE00210320FEF7D5FE4FF409
:1044A00088710320FEF726FE40210320FEF734FE2C
:1044B0004FF440510320FEF755FE00210320FEF784
:1044C00099FE0020FEF7F6FD01200449086010BDAA
:1044D00080010020BE7B0008EC000020700100205D
:1044E0000348817A11B10521024A1160704700002A
:1044F000A06F00207001002004200149086070476F
:1045000070010020014629B90820034A1268108270
:10451000002070470148FCE780010020E0000020F7
:1045200010B505480078202804D1FFF719FD0020B8
:104530000149087010BD0000DC0000207047000039
:1045400010B5FCF7C1FF00200A4909688872FEF720
:1045500085F90020084908604FF4064007490880A3
:10456000084600880449091F0860002004490860C3
:1045700010BD000080010020445C00408A01002042
:1045800070010020704700000146022901DB03484A
:104590007047034800EB0110C068F9E700007AC4D7
:1045A000405C00200146024800EB01108068704723
:1045B000405C00202DE9F843FEF7C8FBFEF768FCDD
:1045C0004FF480702149088040000882002439E0BF
:1045D0001E4901EB041108880222694600F084FBA1
:1045E0009DF801109DF8002001EB022002F081FCF3
:1045F00007460022164B02F0F5FA054602F00CFAC7
:10460000124901EB04118860104901EB041188681C
:10461000104903F097F910D200200C4901EB041166
:1046200088608DF800008DF80100084901EB041145
:1046300008880222694600F0F9FB204600F03AF8AB
:10464000601CC4B2022CC3DBBDE8F883405C0020D0
:10465000000024400000B443F8B50446204600F0B2
:1046600029F80520FDF7E0FB104800EB0410406836
:104670000E4901EB041188600C4901EB04118868B4
:104680000B4903F093F8064603F03CF80546280A68
:104690008DF80000E8B28DF80100044901EB041127
:1046A00008880222694600F0C1FBF8BD405C00208A
:1046B000000020412DE9FC5F8246BAF1000F03D0D3
:1046C000BAF1010F15D10AE04AF25A50FEF7AEFBDB
:1046D00008B1BDE8FC9F3948B0F800B00AE04AF2E2
:1046E0005A50FEF749FC00B1F3E73548B0F800B086
:1046F00000E0EEE700BFCBF3491002F0FAFB0646FC
:104700000022304B02F05CFC804600222E4B02F06F
:1047100069FA044602F080F92C4901EB0A1148605D
:104720002A4A02EB0A129168284A02EB0A125068E0
:1047300003F008F90ED2254A02EB0A129168234AC7
:1047400002EB0A12506803F039F9204901EB0A1113
:10475000C86030E01D4A02EB0A1291681B4A02EB66
:104760000A12506802F0EEFF20D2184901EB0A113C
:10477000886802F04FFE06460F46144901EB0A1105
:10478000486802F047FE044600220E4B02F076F91C
:10479000804632463B4602F053FDCDE9000102F06F
:1047A0003BF90A4901EB0A11C86004E000200749FF
:1047B00001EB0A11C86000BF8BE700002400002055
:1047C000280000200080764000009040405C0020DF
:1047D00010B5FBF7F5FEFCF763F9FBF7B5FE012119
:1047E0000348FBF7A0FE01210248FCF74EF910BD7B
:1047F000002401400800024037B59DF803007038DE
:10480000062843D2DFE800F0030417422A2B41E0D8
:1048100000208DF8050001208DF8060020208DF87D
:10482000070015218DF8081012218DF809101621A6
:104830008DF80A102EE000208DF8050001208DF87B
:10484000060020208DF8070016218DF8081004219D
:104850008DF8091013218DF80A101BE01AE09DF85D
:104860000410491EC8B200F007FD044601208DF86F
:104870000600200E8DF80700210C8DF80810210A83
:104880008DF80910E1B28DF80A1003E003208DF8CD
:10489000050000BF00BF684600F0E6FB00203EBDFB
:1048A0000EB502211048FCF7CFFD90F0010011D0A9
:1048B0000E48007870B9684600F09DF904208DF824
:1048C000030001208DF8060001218DF80A106846CA
:1048D00000F0CAFB02210448FCF7B6FD80F001009D
:1048E000024908700EBD00000008014012000020BF
:1048F00008B50C20ADF8000018208DF80300032047
:104900008DF8020069460D48FCF716FD002000F006
:1049100081F8012000F07EF800200949087001208C
:1049200048700020887001210548C17042F2107063
:1049300001F05CFF01F0BCFA08BD00000008014076
:104940000C00002037B59DF80400401EC4B2022CB4
:1049500001DB04203EBD9DF80300902804D091287F
:1049600003D092281DD118E01DE09DF80A0001280F
:1049700003DB9DF80A00032801DD0520EAE79DF826
:104980000A00401E094911F81000094901EB4401D1
:104990004870204600F00EF805E0204600F03AF896
:1049A00001E00320D6E700BF0020D3E7A67A000885
:1049B0000C00002070B5044614B1012C20D10FE08A
:1049C000134800EB4400407842F2107148436421E0
:1049D00090FBF1F085B22946032001F0C7FE0FE0FD
:1049E0000B4800EB4400407842F2107148436421C8
:1049F00090FBF1F085B22946042001F0B7FE00BF1C
:104A000000BF0120024901F8140001F00FFF70BD42
:104A10000C00002010B5044614B1012C0AD104E0AA
:104A20000021032001F0A2FE04E00021042001F097
:104A30009DFE00BF00BF0020024901F8140001F0F4
:104A4000F5FE10BD0C00002008B500200090FF20EE
:104A5000009002E00098401E009000980028F9D1D4
:104A600008BD41F21851484300BF0100A0F1010008
:104A7000FBD1704737B59DF8070001069DF8080087
:104A800041EA00419DF8090041EA00209DF80A1022
:104A900040EA01049DF80300D1380A2859D2DFE822
:104AA00000F005101B27333F44494E539DF8040086
:104AB00018B1002000F0B0FB01E000F047FB044615
:104AC0004BE09DF8040018B1012000F0A5FB01E0C7
:104AD00000F0B6F8044640E09DF8040018B102204A
:104AE00000F09AFB02E0002000F0C6FB044634E030
:104AF0009DF8040018B1032000F08EFB02E00120B5
:104B000000F0BAFB044628E09DF8040018B1042028
:104B100000F082FB02E0022000F0AEFB04461CE045
:104B20000021204601F064FF17E00121204601F03A
:104B30005FFF12E00221204601F05AFF0DE0032141
:104B4000204601F055FF08E00421204601F050FF07
:104B500003E003208DF8050000BF00BF01208DF8A1
:104B60000600200E8DF80700210C8DF80810210A90
:104B70008DF80910E1B28DF80A10684600F074FA59
:104B80003EBD000008B50820ADF8000010208DF8EB
:104B9000030003208DF8020069460448FCF7CCFBB3
:104BA00008210248FCF759FC08BD00000014014030
:104BB00010B5044624B108210448FCF750FC03E07A
:104BC00008210248FCF749FC10BD00000014014018
:104BD00010B504462078FF2802D16078FF2801D064
:104BE000012010BD0C21204600F01EF808B1022063
:104BF000F7E70020F5E70021016041608160FF21B7
:104C000001704170B021817001210171704710B5B0
:104C10000446FF2020706070B020A0700B21204659
:104C200000F002F8E07210BD10B50246002001E06D
:104C3000535C58400B00A1F10101F9D110BD0000F7
:104C400000B54FF0006301200D49886003E00C4976
:104C5000186808601B1D0B488342F8D3002000F041
:104C60000BFB07490860012000F006FB04490860BF
:104C7000022000F001FB024908600846006800BD00
:104C8000003002400000010810B5002440210C480B
:104C9000FCF7E5FB0220FFF7E4FE01E0601C84B2B4
:104CA00080210748FCF7D0FB10B1B4F52C7FF5DB71
:104CB00040210348FCF7D1FB0220FFF7D2FE10BDD4
:104CC000000C014008B5C020ADF8000003208DF8AD
:104CD000020014208DF8030069460248FCF72CFB03
:104CE00008BD0000000C01402DE9F04105460E46CC
:104CF0001746002421E000F065F8A22000F0BEF87D
:104D0000FFF7C2FF2919C1F3072000F0B7F8FFF73A
:104D1000BBFF2919C8B200F0B1F8FFF7B5FF00F0EA
:104D200051F8A32000F0AAF8FFF7AEFF00F00AF850
:104D3000305500F061F8601C84B2BC42DBDB2046D9
:104D4000BDE8F08170B5002480211D48FCF787FB89
:104D50000220FFF786FE40211948FCF77EFB022067
:104D6000FFF77FFE002519E040211548FCF777FB8F
:104D70000220FFF776FE80211148FCF765FB40EA30
:104D80004400C4B20220FFF76CFE40210C48FCF73F
:104D900064FB0220FFF765FE681CC5B2082DE3DB4B
:104DA00080210748FCF75BFB0220FFF75AFE4021F9
:104DB0000348FCF752FB0220FFF753FE204670BD6C
:104DC000000C014010B580210A48FCF748FB022086
:104DD000FFF747FE40210748FCF741FB0220FFF7A1
:104DE00040FE80210348FCF738FB0220FFF739FE24
:104DF00010BD0000000C014010B580210A48FCF7EE
:104E00002CFB0220FFF72DFE40210748FCF727FB73
:104E10000220FFF726FE80210348FCF720FB02203A
:104E2000FFF71FFE10BD0000000C01402DE9F0410E
:104E300005460E46174600241CE0FFF7C3FFA220DC
:104E400000F01CF8FFF720FF2919C1F3072000F03C
:104E500015F8FFF719FF2919C8B200F00FF8FFF78E
:104E600013FF305D00F00AF8FFF70EFFFFF7C4FFF5
:104E7000601C84B2BC42E0DBBDE8F08170B5044642
:104E800040211848FCF7E9FA0220FFF7EAFD002567
:104E90001DE014F0800F04D080211248FCF7DFFAE7
:104EA00003E080210F48FCF7D8FA6006040E402189
:104EB0000C48FCF7D4FA0220FFF7D3FD4021094843
:104EC000FCF7CBFA0220FFF7CCFD681C85B2082D59
:104ED000DFDB80210348FCF7C2FA0220FFF7C1FDA7
:104EE00070BD0000000C014008B54FF40060ADF843
:104EF000000010208DF8030003208DF802006946A1
:104F00000248FCF719FAFCF73FFB08BD001001400E
:104F100010B5FCF7CDFC1E23044A00210448FCF721
:104F200029FEFCF701FE002010BD000098090020BA
:104F3000A53D00082DE9F04104460D46FCF7FEFFB3
:104F400006460D480068301A642803D900200B4932
:104F500008604860084806602A4621460748FDF771
:104F6000ADFC074600F00EF818B105480068FCF7E4
:104F7000ABFD3846BDE8F08114000020A45A0020A3
:104F80000400002010B50248FDF788FC10BD0000A9
:104F9000A45A00207FB505460024FFF7F3FF0C2834
:104FA00002DA012004B070BD3AE003A91F48FDF702
:104FB000C1FC5CB99DF80C00FF2831D19DF80C2094
:104FC0002046611C8CB20DF8002029E0012C11D183
:104FD0009DF80C00FF2805D0FF222046611C8CB2F2
:104FE0000DF800209DF80C202046611C8CB20DF8B5
:104FF000002015E09DF80C202046611C8CB20DF8B5
:1050000000200C2C0CDB6846FFF7E2FD38B9009855
:105010002860019868600298A8600020C2E7002418
:10502000FFF7B0FF0028C0D10120BBE7A45A002041
:1050300030B5C1B000F040F8C5B22A4601A9094810
:10504000FDF75BFC04462246C02101A8FFF730F9BA
:1050500021460120FEF7C0F80120FEF7E3F841B039
:1050600030BD00009C59002070B504460025002684
:105070002046FFF7CCFD13E0FBF7D4F806460C22E0
:1050800021460B48FDF71AFCC5B23046FBF7CEF8B7
:1050900035B908480068FCF717FD6420FCF7C4FE2A
:1050A000002DE9D003480068FCF70EFD70BD00003C
:1050B0009C5900200800002010B50248FDF7EEFBC7
:1050C00010BD00009C59002010B54FF40071084835
:1050D000FCF7BAF918B100200649087007E0054846
:1050E000007820B94FF480710148FCF7B6F910BD83
:1050F000001001401100002008B54FF48070ADF899
:10510000000010208DF8030003208DF8020069468E
:105110000C48FCF711F94FF480710A48FCF79FF92D
:105120004FF40070ADF8000004208DF80300032058
:105130008DF8020069460348FCF7FEF80120024999
:10514000087008BD001001401100002000487047A1
:105150005948535930B58FB00546FCF7ABF80024D9
:1051600005E02C4820584DF80400201DC4B2142C32
:10517000F7DBFCF747F8002413E004F113001421D7
:1051800090FBF1F201FB12001DF80000C02101EAC2
:1051900080101DF8041040EA910005A90855601C14
:1051A000C4B2142CE9DB002419E004F1130014212B
:1051B00090FBF1F201FB120005A9085CF02101EA65
:1051C0000011601C142290FBF2F302FB130005AAED
:1051D000105C41EA10100AA90855601CC4B2142CD6
:1051E000E3DB002411E02046E11704EB917104EBAE
:1051F000840202EBA101142291FBF2F302FB1311D2
:105200000AAA515C2955601CC4B2142CEBDB0FB008
:1052100030BD00000000010830B585B0044600250F
:10522000052C02DD002005B030BD6846FFF792FF77
:105230005DF82450052C17D2DFE804F003090F10A5
:105240001100022000F018F86840C5430CE002206D
:1052500000F012F86840C54306E000BF00BFFFF74A
:1052600075FF6840C54300BF00BF0248454028465F
:10527000D9E70000CDAB79350146022901DD0020D8
:1052800070470348042202FB01000068F8E70000B1
:10529000E8F7FF1F0021C0EB00120A4B03EB82026C
:1052A00011750022C0EB001103EB81018A61C0EB94
:1052B000001103EB8101CA61C0EB001103EB810116
:1052C0000A857047AC5B002070B5044684BBC4EB14
:1052D00004124A4B03EB82029168C4EB041203EB05
:1052E0008202506802F06AFB05460021284602F05F
:1052F00029FA04D24249284602F0B8F805460020AF
:10530000C4EB04113D4A02EB810148703D49284637
:1053100002F018FB6FD20120C4EB0411374A02EBF4
:10532000810148702946364802F048FB054662E094
:10533000FFE7012C5ED1C4EB0411304A02EB81017E
:105340008868314902F0FEFA1AD20020C4EB041139
:105350002A4A02EB81014870C4EB041102EB81017F
:105360004868274902F082F80646C4EB0410234A35
:1053700002EB80008168304602F020FB05463AE0EF
:10538000C4EB04121D4B03EB82029168C4EB0412C0
:1053900003EB8202506802F0D5FA15D20020C4EB6C
:1053A0000411164A02EB81014870C4EB0412134B3E
:1053B00003EB82029168C4EB041203EB8202506893
:1053C00002F0FCFA054616E00120C4EB04110B4A7A
:1053D00002EB81014870C4EB0412084B03EB82021C
:1053E0005168C4EB041203EB8202906802F0E6FA03
:1053F000054600E00025284670BD0000AC5B00209B
:105400000000B443000034430000AF4338B54FF40C
:105410006740ADF8000010208DF8030003208DF8E0
:10542000020069462648FBF787FF4FF400502549E4
:10543000888141002348C181490001820020FCF796
:105440009BFA204988634FF480711E48A0F84810E9
:105450004900A0F84A104900A0F84C100020FCF7C1
:105460008BFA014617484167FFF7A4F8002424E0AF
:105470002046FFF70FFF0020C4EB0411114A02F889
:105480002100C4EB041102EB810148600E48C4EB1B
:10549000041102EB8101C8620C49C4EB041002EB59
:1054A000800001634902C4EB041002EB80004163F9
:1054B000204600F073FB601CC4B2022CD8DB38BD60
:1054C00000180140AC5B00200AD7A33B0000A040BD
:1054D0002DE9F04104460D462946204602F06EFAB9
:1054E00080462946204602F02DF904D2294620465E
:1054F00002F059FA80460C49404602F023FA04D2E1
:1055000041460A4802F05AFA8046404601F082FFBE
:1055100006460022064B01F051FE02D20120BDE8F2
:10552000F0810020FBE70000000034430000B4439A
:105530000000F03FFEB504462046FFF7C5FE0646D4
:105540003146204600F01EF905460020C4EB041148
:105550002F4A02F8210081208DF80300601CC0B2A0
:105560008DF80400C4EB0412294B03EB820251684E
:10557000C4EB041203EB82029068FFF7A9FF2844F2
:10558000C0B28DF8050001208DF80600C4EB0411AF
:105590001F4A02EB810188681E4902F007F906469E
:1055A00002F0B0F8000E8DF80700C4EB0411184AA1
:1055B00002EB81018868174902F0F8F8064602F00C
:1055C000A1F8010C8DF80810C4EB0411104A02EB8D
:1055D000810188680F4902F0E9F8064602F092F866
:1055E000010A8DF80910C4EB0411094A02EB81018C
:1055F0008868084902F0DAF8064602F083F8C1B27A
:105600008DF80A106846FFF72FFD2846FEBD000002
:10561000AC5B00200000204110B50024AAE0C4EBE0
:105620000410564901EB8000007D00287DD0C4EBBA
:10563000041001EB8000018DC4EB04104F4A02EB13
:105640008000008D401E02B2C4EB04104B4B03EBF4
:1056500080000285002969D1C4EB0410194601EBD2
:105660008000C269C4EB041001EB8000C069401ED9
:10567000C4EB041103EB8101C861002A57D0C4EBCD
:10568000041203EB8202516AC4EB041203EB8202A0
:10569000106A01F0EBFEC4EB0411384A02EB810101
:1056A0000862C4EB0412354B03EB8202516BC4EB6E
:1056B000041203EB8202106A02F044F80CD2C4EB2D
:1056C00004102E4901EB8000416BC4EB04102B4AFF
:1056D00002EB8000016219E0C4EB0412274B03EBDC
:1056E0008202116BC4EB041203EB8202106A02F017
:1056F00029F90BD2C4EB0410204901EB8000016BA7
:10570000C4EB04101D4A02EB800001621C480068D3
:10571000C4EB0411194A02EB8101C98948401849B8
:105720000860204600F03AFA0FE01EE020E000207A
:10573000C4EB0411114A02EB81010875C4EB04119A
:1057400002EB8101886BFCF7BFF9C4EB04110B4A33
:1057500002EB8101086A01F0B9FF01B2C4EB041049
:10576000064A02EB8000018502E0204600F016FAAE
:10577000601CC4B2022CFFF652AF10BDAC5B00201F
:105780000C1801402DE9FF4704468846404601F0C9
:1057900041FE064600225A4B01F0D6FB03D2002000
:1057A00004B0BDE8F08757480068C4EB0411564ABE
:1057B00002EB81018989884352490860C4EB0410D7
:1057C000114601EB8000407850B14E480068C4EBB0
:1057D000041102EB8101098A08434A4908600AE082
:1057E00048480068C4EB0411474A02EB8101098A6A
:1057F000884344490860404601F00CFE0022434BB8
:10580000CDE9000101F0DCFB06460022404B01F02F
:10581000E9F9814600223F4B01F030F9CDE9020160
:1058200001F038FB4100C4EB0410374A02EB800062
:1058300081610025C4EB041102EB8101C86A01F00B
:10584000E9FD21F000410646334A344B01F0B6FC35
:105850001AD2C4EB04122C4B03EB8202516BC4EB43
:10586000041203EB8202106B02F0A8F80746C4EBA7
:105870000410254A02EB8000C16A384601F064FE3C
:10588000064601F03FFF0546C4EB04101E4901EB3C
:1058900080008069B0EB450F13D8C4EB041001EB16
:1058A0008000806945082946204600F001F908B1CA
:1058B000022075E72946204600F0DCF8F0B102200E
:1058C0006EE72946204600F0F3F808B1022067E7AA
:1058D000C4EB04100C4A02EB80008069022202FB38
:1058E0001501204600F042F908B1022058E7294688
:1058F000204600F0BFF808B1022051E700204FE732
:105900000000F03F0C180140AC5B00200000A940F3
:10591000008076400000E03F2D431CEBE2361A3F4A
:105920002DE9F7439DF80400401EC4B2022C02DBAF
:105930000420BDE8FE83C4EB04104A4911F820009E
:10594000012801D10220F4E7C4EB0410454911F805
:10595000200008B10620ECE79DF8030080380628F7
:105960007BD2DFE800F0030758676F73684600F0EA
:1059700027F974E09DF807100A069DF8081042EA1E
:1059800001429DF8091042EA01219DF80A2041EAEE
:10599000020001F0AEFA07460022334B01F022F973
:1059A000054601F039F8C4EB04112E4A02EB8101DF
:1059B00048609DF80410C1EB011102EB81014868B9
:1059C0002A4901F0BFFF0FD99DF80400012814D126
:1059D0009DF80410C1EB0111224A02EB81014868D5
:1059E000234901F0AFFF08D20020C4EB04111D4A87
:1059F00002EB8101486005209BE70120C4EB041104
:105A0000184A02F82100C4EB041102EB8101886BF3
:105A1000FCF75AF823E00020C4EB0411114A02EB12
:105A200081010875C4EB041102F82100684600F0FA
:105A3000C7F814E0684600F0C3F8204600F0AEF85E
:105A40000DE00AE0684600F009F908E02046FEF79C
:105A500003FE684600F002F901E0032069E700BF99
:105A6000002066E7AC5B0020000024400000B44347
:105A70000000AA4338B504460D46C4EB04100B4998
:105A800001EB80002946C26A204600F03FF8C4EBD3
:105A90000411064A02EB81016A46886B41F28831A3
:105AA000FBF796FF9DF8000038BD0000AC5B0020BE
:105AB000F8B504460D46C4EB0410134901EB800011
:105AC000016BC4EB0410104A02EB80000162C4EBCE
:105AD000041002EB8000C16A002001F06FFF06464F
