:020000040800F2
:10000000187600203101000835010008370100088A
:10001000390100083B0100083D0100080000000014
:100020000000000000000000000000004101000886
:100030003F010008000000006B0200084138000882
:100040007D4500088927000899380008852C00089C
:1000500021120008852B0008251100083111000825
:100060003F1100084111000843110008DD0A000893
:10007000DF0A0008E10A0008E30A0008E50A0008B0
:10008000E70A0008E90A000821040008894100087D
:100090007D4200088B0600088D0600084511000807
:1000A0009B380008A13800089F3800089D380008D8
:1000B000B1380008E9380008453900088314000801
:1000C000811400088714000885140008292E0008F0
:1000D000792F0008253F00082D3F00082F3F00081A
:1000E0002F110008352C0008634100089F390008D3
:1000F000A5390008A3390008A13900086B030008DE
:1001000059120008E92C000899390008812F0008CD
:10011000213F0008233F00089B3900089D39000853
:10012000D50A0008D70A0008D90A0008DB0A000827
:1001300004480047FEE7FEE7FEE7FEE7FEE7FEE7CE
:10014000FEE700004901000800F002F800F05CF84A
:100150000AA090E8000C82448344AAF10107DA4522
:1001600001D100F051F8AFF2090EBAE80F0013F018
:10017000010F18BFFB1A43F001031847DC7600009B
:10018000FC7600000A444FF0000C10F8013B13F01D
:10019000070408BF10F8014B1D1108BF10F8015BE0
:1001A000641E05D010F8016B641E01F8016BF9D1D3
:1001B00013F0080F1EBF10F8014BAD1C0C1B09D12A
:1001C0006D1E58BF01F801CBFAD505E014F8016B9C
:1001D00001F8016B6D1EF9D59142D6D3704700002E
:1001E0000023002400250026103A28BF78C1FBD840
:1001F000520728BF30C148BF0B6070471FB507F0DA
:1002000088F91FBD10B510BD00F073F81146FFF757
:10021000F5FF04F03FFD00F091F803B4FFF7F2FFA3
:1002200003BC00F09BF80000EFF3108072B670473B
:1002300080F31088704724484FF0FF0101700020C0
:1002400080F309881D480121017020484FF080513A
:10025000016062B6FEE71D484FF0805101607047B3
:100260001A484FF0805101607047EFF3098028B1C0
:10027000203880E8F00F12490968086000B50A4884
:1002800080475DF804EB0B480B490A7802700C4874
:100290000C490A680260106890E8F00F203080F383
:1002A00009884EF0040E7047BD1D00088118000833
:1002B0004100002043000020440000204E000020A8
:1002C000540000205C00002022ED00E004ED00E07E
:1002D00002480349034A044B70470000187000208D
:1002E000187600201872002018720020704770479E
:1002F0007047754600F028F8AE460500694653463B
:1003000020F00700854618B020B5FFF7E1FFBDE8F3
:1003100020404FF000064FF000074FF000084FF06C
:10032000000B21F00701AC46ACE8C009ACE8C009FD
:10033000ACE8C009ACE8C0098D4670470446AFF38D
:1003400000802046FFF769FF00487047B86F002023
:1003500001487047704700BFBC6F0020014918205A
:10036000ABBEFEE7260002007047704721B18268ED
:1003700042F00102826003E0826822F001028260A2
:10038000704721B1826842F48072826003E0826823
:1003900022F480728260704710B504461548201818
:1003A00006D0B0F5806F0DD0B0F5C05F1ED113E060
:1003B0000121480202F0E4FA00214FF4007002F03B
:1003C000DFFA14E00121880202F0DAFA00214FF48A
:1003D000806002F0D5FA0AE00121C80302F0D0FAE9
:1003E00000214FF4004002F0CBFA00E000BF00BF54
:1003F00010BD000000DCFEBF014600208A6812F03C
:10040000040F01D0012000E00020704701460020C9
:100410008A6812F0080F01D0012000E00020704728
:100420007047000030B502460020002350680F4C92
:1004300020400D790C6844EA052420435060906800
:100440000B4C2040D1E902542C434D7944EA450439
:1004500020439060D06A20F470000C7C641E1C4322
:10046000E3B240EA0350D06230BD0000FFFEF0FF6F
:10047000FDF7F1FFF0B504460D4600200021092DDF
:1004800011DDE068A5F10A0606EB4607072606FA25
:1004900007F18843A5F10A0606EB460603FA06F1C2
:1004A0000843E0600CE0206905EB4507072606FAE3
:1004B00007F1884305EB450603FA06F1084320617E
:1004C000072A0FDA606B561E06EB86071F2606FA10
:1004D00007F18843561E06EB860605FA06F1084327
:1004E000606322E00D2A0FDA206BD61F06EB860729
:1004F0001F2606FA07F18843D61F06EB860605FA83
:1005000006F10843206310E0E06AA2F10D0606EB55
:1005100086071F2606FA07F18843A2F10D0606EBAF
:10052000860605FA06F10843E062F0BD816841F0F5
:1005300008018160704721B1826842F4A0028260A4
:1005400003E0826822F4A00282607047816841F073
:10055000040181607047000000B585B01B48FFF7BB
:100560001BFF0020009001208DF804008DF805008D
:100570004FF4602002900020039001208DF81000BD
:1005800069461248FFF74EFF072301220A210F4850
:10059000FFF770FF01210D48FFF7F3FE01210B4823
:1005A000FFF7E4FE0948FFF7C1FF00BF0748FFF768
:1005B0002DFF0028FAD10548FFF7C8FF00BF034808
:1005C000FFF71AFF0028FAD105B000BD0024014052
:1005D00008B50120ADF8000000208DF80300694641
:1005E000014800F05BFE08BD0010014010B503F0AB
:1005F00029F902F0DFF90121412002F081F90121FE
:100600000F2002F08DF90121880302F089F9012100
:10061000480202F0A5F90121084602F0A1F90121E2
:100620004FF4A04002F09CF901214FF4FE7002F05B
:1006300097F90121C80502F073F9002002F0D0FA01
:1006400004F00AFC03F0C0FD03F0A0FD04F00EFB73
:1006500004F07EF904F0F8F905F058FF03F09EFF6E
:1006600004F0C6FC04F0BEF805F0CEFB03F0F4FB8A
:1006700003F01AFC00F065FF02F092F910BD01468C
:10068000CAB20B1243EA022070477047704700005D
:1006900007B59DF8030005282ED2DFE800F003041B
:1006A0000C1824002CE000208DF805009DF80A00AD
:1006B00004F064F924E09DF808109DF8072041EA51
:1006C000022002220DF1090104F0D0F918E09DF892
:1006D00008109DF8072041EA022002220DF10901CD
:1006E00004F066FA0CE00221084800F05FFE80F09A
:1006F00001008DF80A0003E003208DF8050000BF1B
:1007000000BF684604F060FB0EBD00000008014019
:1007100010B5002476E147F6FF70C0490860C04874
:10072000008800F00F00BF49087008460078F0BB51
:10073000BD48006800F44050BC490880BC48D0F86F
:10074000000C00F03000BB490880B749096889B245
:100750004BF68F7201EA020080F40050B449C1F8F0
:10076000000CB149096889B248F6BF7201EA02007B
:1007700080F02000AE49C1F8000CA948008810F0B4
:10078000100F3DD1A848006880B248F60F7100EA0A
:100790000100A749C1F8000C00F076FEA2490968E3
:1007A00089B24BF68F7201EA0200A04900E0E9E04D
:1007B000098811F4805F01D080F480509B4909883A
:1007C00011F4005F01D080F4005097490860984907
:1007D000D1F8001C89B248F6BF7201EA02009549BF
:1007E000098811F0100F01D080F01000914909889C
:1007F00011F0200F01D080F020008B49086010BD5F
:100800008948006884B214F0800F3BD086480068A5
:1008100080B248F60F7100EA01008549C1F8000C6A
:1008200000F032FE8049096889B24BF68F7201EA06
:1008300002007E49098811F4805F01D080F4805065
:100840007A49098811F4005F01D080F4005076499C
:1008500008607749D1F8001C89B248F6BF7201EAF6
:1008600002007449098811F0100F01D080F01000C7
:100870007049098811F0200F01D080F020006A49EA
:100880000860BCE714F4006F3CD067480068C0F310
:100890000E0048F68F7100EA01006549C1F8000CAE
:1008A00002F040FD6049096889B24BF68F7201EA97
:1008B00002005E49098811F4805F01D080F4805005
:1008C0005A49098811F4005F01D080F4005056495C
:1008D00008605749D1F8001C89B248F6BF7201EA96
:1008E00002005449098811F0100F01D080F0100067
:1008F0005049098811F0200F01D080F020004A49AA
:1009000008607CE714F4004F7CD047480068C0F3CF
:100910000E0048F68F7100EA01004549C1F8000C4D
:1009200001F0F8FE4049096889B24BF68F7201EA7E
:1009300002003E49098811F4805F01D080F48050A4
:100940003A49098811F4005F01D080F4005036491B
:1009500008603749D1F8001C89B248F6BF7201EA35
:1009600002003449098811F0100F01D080F0100006
:100970003049098811F0200F01D080F020002A4969
:1009800008603CE727480078294901EB8000D0F84F
:10099000000C84B214F4004F18D02248007801EB08
:1009A0008000D0F8000CC0F30E0048F68F710840AC
:1009B0001C4909781E4A02EB8101C1F8000C194953
:1009C0000978491E1C4A52F82100804714F0800F14
:1009D00018D014480078164901EB8000D0F8000CBC
:1009E00080B248F60F7108400E490978104A02EBB0
:1009F0008101C1F8000C0B490978491E0F4A52F8D1
:100A0000210080470548006880B20549088010F43D
:100A1000004F7FF480AE00BFF1E60000445C004070
:100A2000D400002078010020005C00408C010020F0
:100A3000005000408E010020B80000209C000020E3
:100A40000C4901EB8001D1F8001C11F4804F0FD04C
:100A5000084901EB8001D1F8001C89B248F68F7279
:100A6000114041F48041034A02EB8002C2F8001CAD
:100A700070470000005000400C4901EB8001D1F8A4
:100A8000001C11F0400F0FD0084901EB8001D1F894
:100A9000001C89B248F68F72114041F04001034AB0
:100AA00002EB8002C2F8001C7047000000500040BA
:100AB000074901EB8001D1F8001C89B248F68F622A
:100AC0001140034A02EB8002C2F8001C704700008C
:100AD000005000407047704770477047704770473C
:100AE0007047704770477047704721B1026842F005
:100AF0000102026003E0026822F001020260704716
:100B000000B58BB00F4800F023F80F4800900F4855
:100B1000019000200290012003900020049080208A
:100B20000590400006908000079020200890000269
:100B3000099000200A906946024800F0B1F80BB015
:100B400000BD0000080002404C2401401E000020AF
:100B5000016821F0010101600021016041608160B4
:100B6000C1604A4A811A90425BD012DC484AA0EB2D
:100B7000020190423AD007DC464941181BD01429A3
:100B800022D028297FD128E0142938D028297AD1E9
:100B90003EE0B1F56C7F5DD006DCB1F5627F49D0F7
:100BA000B1F5677F6FD14DE0B1F5717F5AD0B1F5E6
:100BB000767F68D15FE036494439496841F00F01DA
:100BC000334A443A51605FE031494439496841F061
:100BD000F0012F4A443A516056E02D4944394968A2
:100BE00041F470612A4A443A51604DE02849443941
:100BF000496841F47041264A443A516044E024492E
:100C00004439496841F47021214A443A51603BE03B
:100C10001F494439496841F470011D4A443A516002
:100C200032E01B494439496841F07061184A443A3E
:100C3000516029E01849096841F00F01174AC2F8CC
:100C4000041421E01449096841F0F001134AC2F884
:100C5000041419E01049096841F470610F4AC2F8A0
:100C6000041411E00C49096841F470410B4AC2F8C0
:100C7000041409E007E00849096841F47021074AB3
:100C8000C2F8041400E000BF00BF704780000240BB
:100C900044000240F8FFFDBF04040240000002408F
:100CA00010B50022026847F6F0739A430C6A8B680D
:100CB00023430C6923434C6923438C692343CC6948
:100CC00023434C6A23438C6A23431A430260CB6854
:100CD00043600B6883604B68C36010BD2DE9F0472B
:100CE0002948006800F110052E8827480068077A17
:100CF000EEB9042F1BD125480078012812D100211C
:100D00002348006880B200F10200224A42F8101025
:100D10004FF030002049088000BF4FF000001B4911
:100D2000087003E0072710201B49088027E0AC88E3
:100D3000A64201D8042000E002200746B44200D9B0
:100D40003446A0B2A96888478046002000F060FBC6
:100D50008146A2B20146404603F0A4FAA1B20020A7
:100D600002F01EFA2888001B2880688820446880CA
:100D700030200949088000020849088000BF024964
:100D800009680F72BDE8F0877C0100207401002023
:100D9000505C0040006000408E0100208C0100206B
:100DA0002DE9F0412948006800F110042688A06868
:100DB000C0B1BEB1A588B54200D93546A8B2A16878
:100DC000884707462088401B208060882844608030
:100DD000002000F0F9FA8046AAB20146384601F038
:100DE000C1FC00BF208850B14FF440501849088022
:100DF0000021084602F0D4F93020164908802088E6
:100E0000A188884204DB03201049096808721AE0AF
:100E10002088002804DD05200C490968087212E0CA
:100E2000208880B9062009490968087200210A480B
:100E3000006880B200F10200084A42F810104FF03A
:100E4000300004490880BDE8F08100007C010020EA
:100E50008C0100208E010020505C004000600040AA
:100E60002DE9F05F9848006845780027BA46062DBE
:100E70001AD195480068007810F07F0F13D192497D
:100E800009688878012803D190490968CF690AE088
:100E9000022803D18D4909680F6A04E0032802D1B2
:100EA0008A4909684F6A91E0F5BB87480068408825
:100EB000D0BB85480068C088022859D182480068A4
:100EC000007988BB80480068007810F07F0F05D15A
:100ED0007D480068808808B97D4F77E07A480068CF
:100EE000007800F07F0001280ED177490968487921
:100EF000764909688A6900219047C0BB724800683A
:100F0000807AA0B3724F61E06F480068007800F00B
:100F10007F0002285AD16C480068407900F00F0623
:100F200069480068407900E022E000F070096648F6
:100F30000068407910F0800F07D0664800EB86000B
:100F4000D0F8000C00F0300806E0624800EB8600A4
:100F5000D0F8000C00F440585F480078B04235D912
:100F6000B9F1000F32D1B8F1000F2FD0584F2DE05A
:100F7000082D07D154480068007810F07F0F25D164
:100F8000564F23E00A2D21D14F480068007800F029
:100F90007F0001281AD14C480068807AB0B14A48D5
:100FA0000068408890B948480068007970B94648A0
:100FB0000068C088012809D1434909684879434934
:100FC00009688A690021904700B9454F57B13E48EA
:100FD0000068A0F812A03C48006887610020B8476C
:100FE00000240FE0384A12685078384A12681169B4
:100FF00088470446032C05D1092033490968087243
:10100000BDE8F09F30480068008AA0F57F41FF39B5
:1010100004D109202C4909680872F1E7022C03D099
:1010200029480068008A20B9082027490968087201
:10103000E6E725480068007810F0800F3BD0224892
:101040000068B0F806B020480068008A584504D906
:101050001D490968A1F810B023E01B480068008A08
:1010600019490968C98888421BDA17480068008A4C
:101070001649096891F82C10884203DA00201949B2
:1010800008700EE010480068008A1049096891F85D
:101090002C1090FBF1F201FB120010B90120114954
:1010A00008700A48006890F82C1007480068818290
:1010B000FFF714FE06E003200349096808720003E5
:1010C0000949088000BF9BE77C01002080010020C7
:1010D000B135000800500040E4000020353500081C
:1010E00085350008740100208C0100200020014992
:1010F000086070479400002010B5032000F076F9D6
:10110000064908600846006882B24FF488710448B6
:1011100001F028FB032002F01DF810BD9000002014
:101120005C6F002010B5012000F00EF810BD704774
:1011300010B504F057FD022000F006F810BD70470E
:101140007047704770470000014908607047000011
:10115000140401408179F1B32E49D1F800140268DA
:1011600091432C4AC2F800141146D1F804140268C5
:101170009143294A11600179264A1144D1F800149B
:10118000026841EA02010279224B1A44C2F80014B3
:101190001946D1F80814026821EA02011A46C2F879
:1011A00008141146D1F80C14026821EA02011B4A06
:1011B00011604179102912D11946D1F8081402683A
:1011C00011431A46C2F808141146D1F80C140268EB
:1011D00011431A4600E00FE0C2F80C1418E0417900
:1011E0000C4A1144D1F80014026811434279094BAA
:1011F0001A44C2F800140BE00179064A1144D1F8F0
:101200000014026891430279024B1A44C2F8001498
:101210007047000000000140040401400C0401403C
:10122000704700000549096821F01001034A116068
:101230001146096801431160704700000020024018
:1012400001460020034A106800F03800084310608F
:1012500070470000002002407047000030B50022B7
:101260008B071C0F0F2303FA04F20B4B8C1053F85F
:1012700024309343084C8D1044F8253023468C10BD
:1012800053F824308C07240F00FA04F42343024C53
:101290008D1044F8253030BD080001402DE9F041A3
:1012A000024600250026002000230024002791F894
:1012B00003C00CF00F0591F803C01CF0100F03D011
:1012C00091F802C04CEA0505B1F800C01CF0FF0F10
:1012D00030D0146800202AE04FF0010C0CFA00F323
:1012E000B1F800C00CEA03069E421FD183004FF004
:1012F0000F0C0CFA03F7BC4305FA03FC4CEA040498
:1013000091F803C0BCF1280F05D14FF0010C0CFA85
:1013100000FCC2F814C091F803C0BCF1480F05D11D
:101320004FF0010C0CFA00FCC2F810C0401C082859
:10133000D2D31460B1F800C0BCF1FF0F34DD5468A3
:1013400000202EE000F1080C4FF0010808FA0CF321
:10135000B1F800C00CEA03069E4221D183004FF091
:101360000F0C0CFA03F7BC4305FA03FC4CEA040427
:1013700091F803C0BCF1280F05D100F1080C08FA60
:101380000CF8C2F8148091F803C0BCF1480F07D1E3
:1013900000F1080C4FF0010808FA0CF8C2F81080B0
:1013A000401C0828CED35460BDE8F08102460020DE
:1013B00093680B4201D0012000E00020704741619A
:1013C000704701617047000001460648006880B21E
:1013D00000EBC10000F10400034A52F8100080B293
:1013E00070470000505C0040006000400146064825
:1013F000006880B200EBC10000F10600034A52F819
:101400001000C0F309007047505C004000600040CD
:1014100001460548006880B200EBC100034A52F85B
:10142000100080B270470000505C00400060004037
:1014300010B50F4B18680F4BD3F8EC170E4B1A680A
:10144000A8B10E4CA070030A2371030CA371030E04
:101450002372A1720B0A23730B0CA3730B0E23745C
:10146000A274130A2375130CA375130E237610BDF3
:10147000E8F7FF1F00F0FF1FF0F7FF1F74000020C8
:10148000704770477047704710B518480068047A75
:10149000022C01D0042C05D1FFF720FC1348006872
:1014A000047A1CE0062C19D1104800684078052801
:1014B0000ED10E480068007810F07F0F08D10B495C
:1014C0000968C87801F0C8FD09490968086A8047B9
:1014D0000849096888688047082400E0082403490F
:1014E00009680C7201F052F910BD00007C01002067
:1014F000880100208001002010B54FF400610248EF
:10150000FFF75FFF10BD00000010014010B54FF461
:1015100000610248FFF753FF10BD000000100140BA
:1015200010B54FF400610548FFF740FF10B1FFF719
:10153000EDFF01E0FFF7E0FF10BD000000100140EB
:10154000704708B54FF4A06000F0D4F81E208DF865
:10155000000002208DF8010000208DF8020001201B
:101560008DF80300684600F05FF84FF4A06000F0CB
:10157000C1F803208DF8000004208DF8010003203D
:101580008DF8020001208DF80300684600F04CF849
:101590004FF4A06000F0AEF81C208DF8000004208D
:1015A0008DF801008DF8020001208DF803006846D7
:1015B00000F03AF84FF4A06000F09CF81D208DF880
:1015C000000004208DF8010005208DF802000120A4
:1015D0008DF80300684600F027F84FF4A06000F093
:1015E00089F823208DF8000004208DF801000620E2
:1015F0008DF8020001208DF80300684600F014F811
:101600004FF4A06000F076F824208DF8000004204C
:101610008DF8010007208DF8020001208DF80300ED
:10162000684600F001F808BDF0B500210022002353
:1016300000250F24C678EEB32B4E366806F4E0661C
:10164000C6F5E0664FEA1621C1F1040524FA01F45B
:10165000467806FA05F1867806EA040646EA0101AC
:101660004FEA011106784FEA86764FEAD66601FA0C
:1016700006F11E4E07784FEAA70756F8272006788E
:101680004FEA86764FEAD6674FF0FF0606FA07F371
:1016900022EA030201EA030142EA0102134E07783B
:1016A0004FEAA70746F82720067806F01F074FF0F5
:1016B000010600E00BE006FA07F607784FEA671725
:1016C0004FF0E02C0CEB8707C7F800610BE00678C1
:1016D00006F01F070126BE40054F90F800C04FEAF4
:1016E0006C1C47F82C60F0BD0CED00E000E400E05D
:1016F00080E100E002490143024A116070470000A6
:101700000000FA050CED00E070B502264A480068BA
:10171000447849480068007810F07F0F4AD1092CBE
:1017200003D101F0BDFF064665E0052C14D1424807
:101730000068C0787F280BDC3F480068807838B9A3
:101740003D480068808818B93B480068807A08B135
:1017500008256DE000264EE0032C14D136480068C1
:10176000C07801280DD134480068808848B93248D3
:101770000068407A10F0200F03D001F0B5FF064654
:1017800039E0022637E0012C35D12B480068C078BB
:1017900001280DD128480068808848B9264800688B
:1017A000407A10F0200F03D001F014FE064622E02C
:1017B000022620E020480068007800F07F00012821
:1017C00005D10B2C17D102F005F8064613E01A4894
:1017D0000068007800F07F0002280BD1012C03D1B3
:1017E00001F0F8FD064606E0032C04D101F090FF5D
:1017F000064600E002264EB1104800684169E0B29A
:1018000088470646032E01D1092511E00EB10825AF
:101810000EE0062500210A48006880B200F10200AF
:10182000084A42F810104FF030000749088000BF06
:10183000014909680D7270BD7C0100208001002003
:10184000505C0040006000408E01002010B500F0A8
:1018500015F800F0EBFC00F013FD00F035FD00F092
:10186000BDFC00F095FC00F0BDFD00F0E1FD00F0D6
:101870005FFD00F085FD00F002F810BD7047704775
:1018800010B500241B480078012831D1FEF7CCFCAC
:10189000044619480078002804DD17480078401EE7
:1018A0001549087014480078F8B914480078E0B970
:1018B00000F014FE12481349097850F8210012492B
:1018C0000860104800781149097888420DD00E4808
:1018D0000068406B401C0C49096848630C4800686C
:1018E000401C0B490860FEF7BBFC2046FEF7A0FC3D
:1018F00010BD00004E0000204100002042000020EA
:1019000068650020440000205C00002043000020A7
:101910002800002070B505460026124800780028EF
:1019200001DD002070BDFEF77FFC06460E4804680E
:10193000006820B10C48006840680B4908603046D8
:10194000FEF776FC5CB103202070258100206060EA
:101950003F20E07400212175204600F00BFC20465A
:10196000E0E70000410000202C0000202DE9F041BC
:1019700005460E4614464FF000080CB9BDE8F0814C
:1019800015B904202070F9E72878032802D0012037
:101990002070F3E730480078002802DD0220207034
:1019A000ECE72E480078002802DD0D202070E5E7E6
:1019B000FEF73AFC80462889002808DD2889401E69
:1019C00028814046FEF734FC00202070D6E72448EA
:1019D000006890F82C0040F001002149096881F866
:1019E0002C0000201E49096881F82D001C48006861
:1019F0004685284600F080FB4046FEF719FC00F0C3
:101A000033FDFEF711FC80461548006890F82D0064
:101A1000B0B11348006890F82D70284600F0D6FA4F
:101A20004046FEF705FC012F02D0022F03D000BF75
:101A30000A20207002E00E20207000BF00BF9DE74A
:101A4000002007490968C8614046FEF7F1FB002005
:101A5000207000BF92E700004100002042000020FB
:101A60005400002070B5044600250CB9042070BD58
:101A70002078032801D00120F9E7FEF7D5FB0546C1
:101A8000A07A60B1002301221946204600F0C6FA70
:101A90002846FEF7CDFB00F0E7FC0020E7E72089B1
:101AA0004FF6FF71884207D22089401C20812846CA
:101AB000FEF7BEFB0020DAE72846FEF7B9FB32202E
:101AC000D5E7000010B50B48007890B900F006FD8E
:101AD000094800780949087009480749097850F809
:101AE0002100084908600846006807490860FEF7B9
:101AF000A2FB10BD4E000020440000204300002047
:101B0000686500205C000020540000207047000041
:101B10002DE9FE4F06460F4690461C464FF0000941
:101B20003F2C02DD2A20BDE8FE8FFEF77DFB8146BB
:101B30001E480078002804DD4846FEF779FB3C206B
:101B4000F1E71B4850F8240058BB0120184941F820
:101B500024004846FEF76CFB0023424639463046D7
:101B600000F0DFF882460023009301931A465146A5
:101B70002046029300F0E0FC054635B90D48007898
:101B800001280CD100F070FC09E0FEF74DFB814606
:101B90000020074941F824004846FEF749FB284643
:101BA000C1E74846FEF744FB2820BCE7410000207F
:101BB000686500204E0000202DE9FF4F85B00646E5
:101BC0000F4690461C46DDE913ABDDF84890002037
:101BD00003903F2C03DD2A2009B0BDE8F08FFEF70B
:101BE00023FB03901F480078002804DD0398FEF7CC
:101BF0001FFB3C20F0E71C4850F8240068BB012084
:101C0000194941F824000398FEF712FB4246394671
:101C10003046169B00F085F80490DDE91523CDE9E8
:101C200000B202934B4652462046049900F084FCD1
:101C3000054635B90D48007801280CD100F014FC98
:101C400009E0FEF7F1FA03900020074941F824006B
:101C50000398FEF7EDFA2846BEE70398FEF7E8FA88
:101C60002820B9E741000020686500204E000020D0
:101C7000704770472DE9F04705460F4614464FF070
:101C800000090CB9BDE8F0873F2D04DDFF2D02D01F
:101C90002A202070F6E717B90C202070F2E71D48C3
:101CA0000078002802DD12202070EBE7FEF7BCFA76
:101CB0008146FF2D03D11848006890F82E50174830
:101CC00050F825602EB94846FEF7B2FA432020703E
:101CD000D8E7012E05D14846FEF7AAFA4320207026
:101CE000D0E7384600F01EFC8046B8F10F0F05DD46
:101CF0004846FEF79DFA41202070C3E7394606F1B9
:101D0000480000F001FC4846FEF792FA00202070DF
:101D100000BFB7E7410000205400002068650020A4
:101D2000704770B5044610464FF080750560051F7A
:101D300028462C606FF00106051F28462E604FF0E4
:101D40001236051F28462E604FF00336051F284621
:101D50002E604FF00236051F28462E607610051FB4
:101D600028462E60051F284629604FF01136051FB2
:101D700028462E604FF01036051F28462E604FF083
:101D80000936051F28462E604FF00836051F2846E5
:101D90002E604FF00736051F28462E604FF006369E
:101DA000051F28462E604FF00536051F28462E6079
:101DB0004FF00436051F28462E6070BD70470000A6
:101DC00070B50546002616480078002800DD70BD75
:101DD000002D23DDFEF728FA06461248006890F829
:101DE00030401148005D0F49096891F8311088436F
:101DF0000D4908550846005D40B90A48006890F84A
:101E000032100A480078884308490870054800687D
:101E100045853046FEF70CFA00F026FB00BFD6E7FA
:101E20004100002054000020460000204500002012
:101E30002DE9F04781460D4616461C462448007899
:101E4000002802DD5520BDE8F087B9F1000F04D16C
:101E50001DB916B90CB95420F5E73B2D01DD512011
:101E6000F1E73B2E01DD5220EDE7B4F57A7F01DB8F
:101E70005320E8E74FF47A7060434FF47A71B0FB77
:101E8000F1F14FF4616009FB00F0C5EB051200EBC6
:101E90008200304400EB4002C2EBC01001EBC007EF
:101EA0004FEA1748BFB23846FFF78AFF0BE04FF4FE
:101EB0000040FFF785FF4FF40040FFF781FFA8F1D6
:101EC00001001FFA80F8B8F1000FF0DC0020BAE73B
:101ED0004100002070B5002600F076F8FEF7A4F966
:101EE000064633480068401C314908603046FEF71A
:101EF0009FF930480078012858D12F48007820B148
:101F0000012804D0022809D103E001250BE00025B7
:101F100009E0012501202849087004E0012500207E
:101F20002549087000BF00BF05B970BD234804688B
:101F300038E0FEF779F90646608D78B3608D401E73
:101F40000004000C608529D194F82C0010F0370FA4
:101F500009D014F82C0F20F0370020700120607099
:101F6000A4F12C0402E0002084F82D0094F82C0049
:101F700010F0080F12D104F13004A078104909784C
:101F800040EA01000E49087020780E49085C61782B
:101F900040EA010014F830190A4A50546469304686
:101FA000FEF746F994F82E003F28C2D100BFBCE7E7
:101FB000700000204E00002064000020600000201F
:101FC000450000204600002070470000124A1268B9
:101FD00092F8301000F10B02525C0F4B1B6893F823
:101FE00031309A4300F10B035A541A46525C32B90D
:101FF000827A094B1B6893F832309A43827200222E
:10200000054B1B6883F82D20034B1B6883F82C209D
:10201000014B1B68DA617047540000202DE9F0473E
:1020200004460D46164694F80A90DFF8BCA01AF84C
:1020300009204FF0010909FA02F909F0FF0804F13B
:102040000B0919F802901AF809704FF0010909FA02
:1020500007F909F0FF0C07EBC20909F0FF0004F1D2
:102060000B0919F8029029EA0C0904F10B0A0AF885
:102070000290D14619F80290B9F1000F05D194F8F9
:102080000A9029EA080984F80A90DFF8609059F864
:1020900020104FF00009A1F82A90C1F81C900D62A1
:1020A00081F82D3091F82C9029EA060981F82C90BE
:1020B00091F82C90B9F1000F13D1DFF8349099F812
:1020C000009049EA0809DFF828A08AF80090DFF8B4
:1020D000249019F8029049EA0C09DFF818A00AF8D0
:1020E0000290BDE8F0870000907600086865002047
:1020F000450000204600002010B51B4A1268D06140
:10210000194A126892F83010184A525C164B1B6834
:1021100093F831309A43154B5A541A46525C42B9DF
:10212000114A126892F83230114A12789A43104BD1
:102130001A700D4A126892F8303000F10B02D25C2E
:10214000094B1B6893F831301A43074B1B6893F80F
:10215000304000F10B031A55827A034B1B6893F849
:1021600032301A43827210BD540000204600002015
:10217000450000200023837200F10B01002204E0DF
:10218000002301F8013B531CDAB2082AF8DB704740
:1021900070B58C210F4800F01BF90E4C04F11C06A1
:1021A00000250AE00020207066603F20A072002118
:1021B000E1721C341C36681C85B2042DF2DB002051
:1021C000207060603F20A0720021E1720148024946
:1021D000086070BDDC6000203000002030B54FF496
:1021E0009061104800F0F4F80E4B03F12405002430
:1021F0000AE0002018705D603F20D8740021197536
:1022000024332435601C84B21F2CF2DB00201870AC
:1022100058603F20D87400211975024802490860AF
:1022200030BD00005C5C00202C00002000200A492A
:1022300008600A4908700A4908700A4908700A4982
:1022400008700A4908600A4908600A4908600A4992
:1022500008600A49087070477000002041000020A3
:10226000420000204F0000204E00002028000020E7
:10227000500000203C0000203800002040000020DA
:1022800000220B4B1A700B49002004E0002201F8D9
:10229000012B421CD0B20828F8DB0022064B1A7032
:1022A000064B1A70064B1A60064B1A607047000006
:1022B000450000204600002043000020440000208C
:1022C0005C0000205400002030B54FF4F261144847
:1022D00000F07EF84FF48071124800F079F8104B4E
:1022E00003F1580500240AE05D613F2083F84800AF
:1022F00000214920C15458335835601CC4B2152CF4
:10230000F2D3002058613F2083F848000021492083
:10231000C15400200449086001480449086030BDE8
:1023200068660020686500206000002058000020DA
:1023300000B587B00323002280210B48CDE9032399
:10234000CDE901014FF6FF7300933F2300F5FE72C4
:1023500000210648FFF730FC06AA05A13F20FFF741
:1023600089FC07B000BD00006863002065260008F6
:1023700075432F4F532D49492049646C6500000077
:1023800000B587B00323002280210B48CDE9032349
:10239000CDE901014FF6FE7300933E2300F5FE7276
:1023A00000210648FFF708FC06AA05A13E20FFF71A
:1023B00061FC07B000BD00006861002089260008AC
:1023C00075432F4F532D4949205374617400000009
:1023D00004E0002200F8012B4A1E91B20029F8DC2B
:1023E0007047000070B5B4210F48FFF7F1FF0E4CA5
:1023F00000250DE0681C00EBC0000B4901EB8000DC
:1024000060603F202075002161752434681C85B20E
:10241000042DEFDB002060603F20207500216175F6
:1024200001480249086070BDF86D00206800002076
:1024300070B560210A48FFF7CBFF094C04F118067C
:10244000002504E0266018341836681C85B2032D78
:10245000F8DB0020206002480249086070BD0000DF
:10246000AC6E00206C00002010B50024FDF7DCFEEF
:10247000044613480078F8B912480078E0B900F033
:102480002DF811481149097850F8210010490860C9
:102490000E4800780F49097888420DD00C48006832
:1024A000406B401C0A49096848630B480068401C9F
:1024B00009490860FDF7CFFE2046FDF7B9FE10BDC3
:1024C00041000020420000206865002044000020F8
:1024D0005C00002043000020280000200649074A35
:1024E0001278885C0649095C034A515C01EBC00123
:1024F000044A1170704700009076000845000020E3
:1025000046000020440000200246002005E011F8AB
:10251000013B02F8013B431CD8B20B78002BF6D1EB
:10252000137070470146002002E0491C421CD0B2E3
:102530000A78002AF9D170472DE9F84F05460E4672
:1025400017469846DDE90BABDDF828900020009097
:10255000FDF76AFE00903D480468ECB354F8140F90
:102560003A4908600098FDF763FE44F8146CA576BC
:10257000002020766076E08244F810AC44F8089C95
:1025800044F80C7C24F804BC24F8028CE077E810B2
:102590002077217F01208840A07705F00700E076B2
:1025A000E17E0120884060770020A0602061E0602B
:1025B0002062A0626062E06220633F2084F8340001
:1025C000A4F114044FF000014FF0490001552046DA
:1025D000FFF79CFA204600E033E0FFF749FBFDF7E8
:1025E00023FE00901A4840F825401A4800686061B0
:1025F0000020A0611748006810B116480068846187
:102600001448046004F13004A0781349097840EAC2
:1026100001001149087020781049085C617840EA8F
:10262000010014F830190D4A50540D48007800F19B
:1026300001000B4908700098FDF7FAFD0020BDE885
:10264000F88F0098FDF7F4FD4220F8E758000020CD
:102650006865002060000020450000204600002042
:102660004F000020002400BFFDF7DEFD04460548B2
:102670000068401C034908602046FDF7D9FDFFF7BC
:10268000F8FAF1E750000020002700BF02E0C82060
:10269000FFF796FB1A4800780028F8D01948006820
:1026A0006421B0FBF1F400BFFDF7BEFD07461648FC
:1026B000006816490860144806680020124908603E
:1026C0003846FDF7B5FD6CB1B6FBF4F0C0F164001F
:1026D00045B2002D02DB0E4805700BE000200C49CE
:1026E000087007E000200A49087006480068642165
:1026F000B0FBF1F4FFF714FB6420FFF761FBD3E7B5
:102700004000002038000020500000203C00002045
:102710003400002010B511480068047A032C01D061
:10272000052C05D1FEF73CFB0C480068047A0EE04E
:10273000072C05D10A490968C8688047082406E0C3
:10274000022C01D0042C01D1082400E00824034904
:1027500009680C7200F01AF810BD00007C0100201E
:1027600080010020F0B5561C7510064E06EB4104A2
:102770002B4604E080CC20F8017B401C5B1E002B24
:10278000F8D1F0BD006000407047000010B50D4862
:1027900090F82C10002000F097FC0B480068007A9D
:1027A000082805D1400209490880102008490880FE
:1027B00005480068007A092801D1012000E00020C6
:1027C000C0B210BDE80000207C0100208C01002078
:1027D0008E01002010B5012001F0C4FC01240D4839
:1027E00004604FF000000C490880084600880B493F
:1027F000C1F8400C4FF00000094908604FF4E05068
:1028000005490880084600880449C1F8400C4FF08B
:10281000000010BD405C00408601002000500040D8
:10282000445C00400146D1E90002904203D3D1E963
:102830000002801A04E0D1E90020801AC0F58070FF
:1028400080B27047F0B503460E461546002718467D
:10285000FFF7E8FF07467819FF2801DD0020F0BDEB
:1028600000240AE0315D03F108001A6881541868F9
:10287000401CC0B21860601C84B2AC42F2DB20463F
:10288000EDE7F0B503460E46154600271846FFF75C
:10289000C9FF0746AF4200DAFDB200240AE003F1A7
:1028A00008005968405C30555868401CC0B25860F8
:1028B000601C84B2AC42F2DB2046F0BD10B503468A
:1028C0000C461846FFF7AEFF012801DA002010BDC4
:1028D00003F108005968405C20705868401CC0B281
:1028E00058600120F3E7000001460020034A5068C9
:1028F00020F4404008435060704700000010024040
:1029000029B1064A52690243044B5A6104E0034A62
:1029100052698243014B5A61704700000010024027
:1029200029B1064AD2690243044BDA6104E0034A42
:10293000D2698243014BDA61704700000010024007
:1029400029B1064A12690243044B1A6104E0034AA2
:1029500012698243014B1A61704700000010024067
:1029600029B1064A92690243044B9A6104E0034A82
:1029700092698243014B9A61704700000010024047
:1029800029B1064AD2680243044BDA6004E0034AE4
:10299000D2688243014BDA607047000000100240A9
:1029A0000348406A40F08070014948627047000067
:1029B0000010024010B54FF4803000F0BDF800F078
:1029C00015F9124908700846007801281CD110201A
:1029D000FEF728FC0220FEF733FC002000F0A0F8F0
:1029E000002000F0DDF84FF4806000F0CDF84FF4E7
:1029F0008040FFF779FF4FF4A0114FF4803000F0D2
:102A0000E1F8012000F0D8F810BD0000100000200F
:102A100030B500210022002400232D4D6D6805F003
:102A20000C0121B1042905D0082923D105E0294D45
:102A3000056022E0274D05601FE0254D6D6805F417
:102A40007012022505EB9242214D6D6805F4803429
:102A50001CB9214D554305600BE01D4D6D6815F403
:102A6000003F03D01C4D5543056002E0194D55430E
:102A7000056002E0174D056000BF00BF144D6D6892
:102A800005F0F0010909154D6B5C0568DD404560F6
:102A90000F4D6D6805F4E061090A104D6B5C4568E7
:102AA000DD4085600A4D6D6805F46051C90A0B4D23
:102AB0006B5C4568DD40C560054D6D6805F44041BF
:102AC000890B074D6B5CC568B5FBF3F5056130BD3F
:102AD0000010024000127A0000093D004178000811
:102AE0005178000810B501460022002300204A1149
:102AF000012A02D1094C236806E0022A02D1074CC0
:102B0000236A01E0054C636A01F01F02012494402E
:102B10001C4201D0012000E0002010BD0010024046
:102B200001460020034A506820F0F000084350603E
:102B300070470000001002401149096821F48031FB
:102B40000F4A11601146096821F480211160B0F527
:102B5000803F03D0B0F5802F0ED106E00849096808
:102B600041F48031064A116007E00549096841F4E3
:102B7000A021034A116000E000BF00BF70470000C1
:102B8000001002407047000001460020034A5068D0
:102B900020F4E060084350607047000000100240DD
:102BA00001460020034A506820F4605040EAC1000A
:102BB00050607047001002400149086670470000ED
:102BC0000000424202460020044B586820F47C106A
:102BD00042EA01031843014B58607047001002405D
:102BE0000149086070470000D800424210B5002437
:102BF00000BF3120FFF776FF0C4908700C480068D1
:102C0000401C0B4908600948007828B9084600684C
:102C1000A0F58071FF39ECD13120FFF763FF08B1D7
:102C2000012400E00024204610BD00009401002093
:102C30009001002070470000054909886FEA0002F2
:102C400092B201EA0201034AA2F804187047000098
:102C5000042800400020004001460020074A128856
:102C600002EA0102D0B2064AB2F800280A4202D0B3
:102C700008B1012000E00020704700000428004057
:102C80000020004010B5FDF7CFFA04461048007848
:102C9000401C0F4908702046FDF7CAFA0120FFF7D3
:102CA000DBFF20B10120FFF7C7FF00F013F8FDF7AD
:102CB000BBFA044606480078002804DD0448007882
:102CC000401E034908702046FDF7B2FA10BD00000F
:102CD0004100002000BF0348008810F0200FFAD008
:102CE00070470000042800407047000000B587B01E
:102CF000002025490880254908701020ADF81800EB
:102D000003208DF81A0010208DF81B0006A920481A
:102D1000FEF7C4FAE020ADF8180003208DF81A0081
:102D200018208DF81B0006A91948FEF7B7FA0020F5
:102D3000ADF804004FF48270ADF806004FF4006067
:102D4000ADF808000220ADF80A000020ADF80C0034
:102D50004FF40070ADF80E003020ADF810000020E8
:102D6000ADF812000720ADF8140001A9094800F0E1
:102D70004CF90121074800F004F910210448FEF73E
:102D800020FB07B000BD0000200000202200002032
:102D9000000801400030014010B56021074800F0F4
:102DA000FCF8064800F02CF9054908801021054878
:102DB000FEF707FB00200449087010BD00300140F9
:102DC00020000020000801402200002010B5044629
:102DD000124801780078401E104A107021B9022173
:102DE0000F4800F0F2F808B9012010BDC8200B49C7
:102DF000087010210B48FEF7E2FA094800F000F9CC
:102E0000074800F0FDF82146054800F0FCF80122D3
:102E10006021034800F0E2F80020E6E722000020ED
:102E2000003001400008014010B5FFF7B5FF10BDAC
:102E300000B587B0002026490880264908704FF465
:102E40008050ADF8180003208DF81A0010208DF87E
:102E50001B0006A92048FEF721FA4FF46040ADF8A8
:102E6000180003208DF81A0018208DF81B0006A901
:102E70001948FEF713FA0020ADF804004FF48270F1
:102E8000ADF806004FF40060ADF808000220ADF880
:102E90000A000020ADF80C004FF40070ADF80E00F1
:102EA0002820ADF810000020ADF812000720ADF882
:102EB000140001A9094800F0A8F80121074800F012
:102EC00060F84FF480510448FEF77BFA07B000BD6C
:102ED0002400002026000020000C014000380040A3
:102EE00010B56021084800F058F8074800F088F84D
:102EF000064908804FF480510548FEF762FA002029
:102F00000449087010BD0000003800402400002073
:102F1000000C01402600002010B50446134801783B
:102F20000078401E114A107021B90221104800F0AB
:102F30004CF808B9012010BDC8200C4908704FF4A6
:102F400080510C48FEF73BFA094800F059F8084850
:102F500000F056F82146064800F055F8012260219D
:102F6000034800F03BF80020E5E7000026000020C1
:102F700000380040000C014010B5FFF7B1FF10BD54
:102F8000704721B1028842F04002028004E00288CA
:102F90004FF6BF731A400280704710B500225529C2
:102FA00005D10389038843F0400303800CE05629D0
:102FB00001D0532901D1038906E001F00F04012358
:102FC000A3409AB2D343038110BD02460020138967
:102FD0000B4201D0012000E00020704770B50024B2
:102FE00000230C110125A540ABB21AB185881D4301
:102FF000858004E08588DE43B6B23540858070BDAB
:103000000146888970478181704710B50022028887
:1030100002F441520B884C8823438C882343CC888C
:1030200023430C8923434C8923438C892343CC8934
:1030300023431A430280838B4FF2FF742340838320
:103040000B8A038210BD00004FF6F8710140014A5F
:1030500011607047505C004030B501460E4B1A7845
:10306000002012E003060D4C04EB9353D3F8003C10
:103070009BB248F68F742340C4B223430406074D25
:1030800005EB9454C4F8003C401C9042EAD341F054
:103090008003034C236030BDE4000020005000405A
:1030A0004C5C004010B54A105300054A126892B2B9
:1030B00002EBC00202F10402024C44F8123010BDCF
:1030C000505C00400060004010B5024610480068A7
:1030D00080B200EBC20000F106000E4C04EB40038E
:1030E0003E290BDD481111F01F0F01D1441EA0B283
:1030F0004FF4004444EA80241C6007E0481011F0BB
:10310000010F01D0441CA0B284021C6010BD00005D
:10311000505C00400060004010B50D4B03EB800395
:10312000D3F8003C9BB24BF68F7403EA040211F40F
:10313000805F01D082F4805211F4005F01D082F4EC
:103140000052034B03EB8003C3F8002C10BD0000BA
:1031500000500040094A02EB8002D2F8002C92B2E3
:103160004BF68F7302EA030181F4805181F4005120
:10317000024A02EB8002C2F8001C70470050004077
:1031800010B54A105300044A126892B202EBC00212
:10319000024C44F8123010BD505C0040006000400A
:1031A000054A126892B202EBC00202F10202034B1E
:1031B00043F8121070470000505C0040006000406F
:1031C00010B50D4B03EB8003D3F8003C9BB248F6DF
:1031D000BF7403EA040211F0100F01D082F0100254
:1031E00011F0200F01D082F02002034B03EB80038B
:1031F000C3F8002C10BD000000500040094A02EB4B
:103200008002D2F8002C92B248F6BF7302EA0301A2
:1032100081F0100181F02001024A02EB8002C2F825
:10322000001C704700500040074A02EB8002D2F8B1
:10323000002C92B248F68F131A400A43024B03EB5C
:103240008003C3F8002C70470050004010B500F018
:1032500001F810BD00210020304A126842F480328B
:103260002E4B1A6000BF2D4A126802F40030491C30
:1032700018B9A1F58072FF3AF5D1284A126812F404
:10328000003F01D0012000E00020012843D1244A62
:10329000126842F01002224B1A601A46126822F09D
:1032A00003021A601A46126842F002021A601B4AB0
:1032B00052681A4B5A601A4652685A601A46526847
:1032C00042F480625A601A46526822F47C125A60B4
:1032D0001A46526842F4E8125A601A46126842F0DE
:1032E00080721A6000BF0D4A126812F0007FFAD097
:1032F0000A4A526822F00302084B5A601A46526882
:1033000042F002025A6000BF044A526802F00C0206
:10331000082AF9D101E000BFFEE770470010024023
:103320000020024008B52848006880B200F104007F
:10333000264951F8100080B201EB4000009024486B
:103340000068007A09282FD0009800782049096881
:1033500008700098401C0090009800781C4909688B
:1033600048700098401C00900098801C00900099C4
:1033700031F8020B0091FDF782F915490968488080
:103380000098801C0090009931F8020B0091FDF725
:1033900076F90F49096888800098801C0090009891
:1033A00000880B490968C88001200949096808722A
:1033B00007480068C08810B9FEF7A6F901E0FDF7DC
:1033C0004FFDFFF7E3F908BD505C0040006000408E
:1033D0007C0100202DE9F04751480068007800F09A
:1033E0007F08B8F1000F0AD14D480068407A00F01C
:1033F000DF004B49096848720020BDE8F087B8F14A
:10340000020F7DD146480068408818B944480068DA
:10341000007908B10220F0E7DFF808914048006821
:10342000477927F080052C463D480068407910F028
:10343000800F07D03C4800EB8400D0F8000C00F06F
:10344000300606E0384800EB8400D0F8000C00F4A9
:10345000405699F80000A84204D91EB130480068CF
:10346000807A08B90220C8E717F0800F10D02E48E4
:1034700000EB8400D0F8000C00F03000102845D19B
:10348000E0B2FDF7F9FA3021E0B2FFF799FE3DE036
:10349000254800EB8400D0F8000C00F44050B0F553
:1034A000805F33D1CCB9214890F82C10E0B2FFF7FF
:1034B0000BFE1D4901EB8401D1F8001C89B24BF6CB
:1034C0008F7201EA020080F4805080F400501649A7
:1034D00001EB8401C1F8000C18E0E0B2FDF7B0FA8E
:1034E000114901EB8401D1F8001C89B24BF68F72AF
:1034F00001EA020080F4805080F400500A4900E0A4
:103500000AE001EB8401C1F8000C00BF084909681A
:1035100048698047002070E700BF02206DE7000087
:103520007C010020E400002000500040E800002062
:103530008801002010B504462CB90120064909680D
:103540000882002010BD05490968086880470248C4
:1035500000680A30F6E700007C01002088010020A6
:1035600010B5024606480068438A32B98888C01AF6
:10357000034C24682082002010BD08681844FBE733
:103580007C01002010B504462CB9012006490968C9
:103590000882002010BD05490968886880470248F4
:1035A00000680C30F6E700007C0100208801002054
:1035B00010B504462CB9022035490968088200205C
:1035C00010BD00203349088031480068007810F0B1
:1035D0007F0F1CD12E490968487A10F0200F05D0C2
:1035E0002C49097841F002012A4A117010F0400F6D
:1035F00006D02849097801F0FE01264A117005E03D
:103600002449097841F00101224A11703AE020482A
:103610000068007800F07F00012801D11D48CFE745
:103620001B480068007800F07F00022828D1184A63
:103630001268517901F00F0011F0800F0FD0164A77
:1036400002EB8002D2F8002C02F03002102A16D1D0
:10365000104A127842F001020E4B1A700FE00E4A27
:1036600002EB8002D2F8002C02F44052B2F5805FE7
:1036700005D1084A127842F00102064B1A7001E0A7
:1036800000209DE70549096808698047014897E7D8
:103690007C010020760100200050004088010020BD
:1036A00010B50E480068C0780D494978884213DC8F
:1036B0000A480068807878B908480068808858B956
:1036C00006480068C0780549096888720549096894
:1036D00048688047002010BD0220FCE77C010020E4
:1036E000E40000208801002010B507480068407AF7
:1036F00040F0200004490968487204490968C86913
:103700008047002010BD00007C01002088010020BF
:103710002DE9F0412B480068467926F080073C46A9
:1037200028480068407910F0800F07D0264800EB49
:103730008400D0F8000C00F0300506E0224800EBD1
:103740008400D0F8000C00F4405520480078A042D6
:1037500008D91C480068408820B91DB11948006884
:10376000807A10B90220BDE8F08116F0800F11D0E8
:10377000154901EB8401D1F8001C89B248F6BF72EB
:1037800001EA020080F010000F4901EB8401C1F84A
:10379000000C11E00C4901EB8401D1F8001C89B246
:1037A0004BF68F7201EA020080F48050064901EB6B
:1037B0008401C1F8000C00BF054909688869804789
:1037C0000020D0E77C01002000500040E4000020F1
:1037D0008801002010B5174B1B68D978154B1B6862
:1037E0005879154B1B689A69904704461148006840
:1037F000807AE8B13CB90F480068007918B90D48E3
:103800000068807808B1022010BD8CB90B490968A6
:10381000C868804707480068407906490968C87247
:1038200004480068C0780349096808730020EBE782
:103830000220E9E77C0100208001002088010020AF
:103840007047000010B51148006840F001000F49B2
:103850000860084640680E4908400C494860084620
:1038600000680C490840094908600846006820F4CF
:10387000802008600846406820F4FE0048604FF44D
:103880001F008860FFF7E2FC10BD0000001002403E
:103890000000FFF8FFFFF6FE704770477047704763
:1038A00010B50121014800F091F810BD002C014035
:1038B00010B5FCF7B9FC04460A480078401C0949D9
:1038C00008702046FCF7B4FC0121880700F000F9DD
:1038D00028B1FEF7FFFA0121880700F07AF8FDF71A
:1038E000CFFF10BD4100002010B5FCF79DFC044641
:1038F00012480078401C114908702046FCF798FCDB
:1039000000F002FB01210E4800F0E2F828B101218D
:103910000B4800F05EF801F07BFCFCF785FC0446E8
:1039200006480078002804DD04480078401E03495A
:1039300008702046FCF77CFC10BD00004100002010
:103940000004004010B5FCF76FFC044610480078F6
:10395000401C0F4908702046FCF76AFC01210D4805
:1039600000F0B6F818B101210A4800F032F8FCF76F
:103970005BFC044606480078002804DD0448007813
:10398000401E034908702046FCF752FC10BD0000A1
:1039900041000020000800407047704770477047A2
:1039A0007047704710B50121014800F00FF810BDB5
:1039B0000034014021B1028842F08002028004E01C
:1039C000028840F27F331A4002807047CA43028265
:1039D0007047CA430282704721B1028842F0010257
:1039E000028004E0028840F2FE331A4002807047F1
:1039F00010B504463449601A8C4245D00CDCB4F151
:103A0000804F1DD03148201823D0B0F5806F29D0C9
:103A1000B0F5006F54D12EE0B0F5806F3DD0B0F519
:103A20008E3F03D0B0F5923F4AD13FE00121C8025A
:103A3000FEF7A6FF00214FF40060FEF7A1FF40E073
:103A400001210846FEF77CFF00210120FEF778FFE8
:103A500037E001210220FEF773FF00210220FEF76C
:103A60006FFF2EE001210420FEF76AFF00210420F1
:103A7000FEF766FF25E001210820FEF761FF002127
:103A80000820FEF75DFF1CE001211020FEF758FF23
:103A900000211020FEF754FF13E001212020FEF743
:103AA0004FFF00212020FEF74BFF0AE001214803D1
:103AB000FEF766FF00214FF40050FEF761FF00E0C3
:103AC00000BF00BF10BD00000010004000FCFFBFA1
:103AD00030B50246002000230024158A05EA0103C0
:103AE000958905EA010413B10CB1012000E0002022
:103AF00030BD10B51AB183890B43838104E08389FB
:103B0000CC43A4B22340838110BD000070B50024D3
:103B100000220023058C4FF6FE7635400584028C8A
:103B20008388048B4FF68F752C400D882C43751EAF
:103B30002A400D892A434D882A43CD8885860F4D1A
:103B4000A84202D00E4DA84213D14FF6F7752A4075
:103B50004D892A434FF6FB752A408D882A4347F644
:103B6000FF652B4047F6FF552B408D892B43CD89B0
:103B70002B4383800483028470BD0000002C01402D
:103B8000003401400A460021018B4FF6F7731940BB
:103B9000114301837047000070B500240022002308
:103BA000058C4FF6EF7635400584028C8388048BB4
:103BB00048F6FF752C400D882D0644EA15444FF653
:103BC000DF752A400D892D0542EA15424D882D05E5
:103BD00042EA1542CD880587124DA84202D0124D07
:103BE000A8421BD14FF67F752A404D892D0542EA28
:103BF00015424FF6BF752A408D882D0542EA1542C1
:103C000047F6FF352B4047F2FF752B408D89AD04F9
:103C100043EA1543CD89AD0443EA15438380048309
:103C2000028470BD002C0140003401400A4600218E
:103C3000018B4FF2FF731940130641EA13410183D0
:103C40007047000070B5002400220023058C4FF659
:103C5000FF6635400584028C8388848B4FF68F7510
:103C60002C400D882C434FF6FF552A400D892D0618
:103C700042EA15424D882D0642EA1542CD888587D5
:103C8000124DA84202D0124DA8421BD14FF2FF752F
:103C90002A404D892D0642EA15424FF6FF352A404B
:103CA0008D882D0642EA154246F6FF752B4045F6F3
:103CB000FF752B408D892D0543EA1543CD892D05D0
:103CC00043EA154383808483028470BD002C014045
:103CD000003401400A460021818B4FF6F7731940EA
:103CE000114381837047000070B500230022002437
:103CF000058C4EF6FF7635400584028C8488838BD4
:103D000048F6FF752B400D882D0643EA15434DF606
:103D1000FF752A400D892D0742EA15424D882D076F
:103D200042EA1542CD88A0F84050084DA84202D082
:103D3000074DA84205D1C4F30D048D89AD0544EAB1
:103D4000154484808383028470BD0000002C0140F0
:103D5000003401400A460021818B4FF2FF73194065
:103D6000130641EA13418183704781847047000044
:103D7000028802F08F0202800A898B881A43038826
:103D80001A430280CA8882850A68028501228282DB
:103D9000044A904202D0044A904201D18A7A0286B3
:103DA00070470000002C01400034014000201D49F4
:103DB0000870FCF71BFC0020FDF7ACFD1A490860F9
:103DC0000020FDF7A7FD194908600423184A0021C7
:103DD0001848FDF79DFE0523174A00211748FDF7F7
:103DE00097FE0623164A00211648FDF791FE072389
:103DF000154A00211548FDF78BFE0823144A0021BF
:103E00001448FDF785FE01200649087009E001F01D
:103E10000BF800F0BFFC6423002211461046FEF7A9
:103E200007F8F4E70000002004000020080000204C
:103E3000941900209959000894290020755A000807
:103E400094390020BD5A000894490020015B000805
:103E500094590020415B00080EB54FF08040FFF7F9
:103E6000C7FD40F2E730ADF8060047200090002083
:103E7000ADF80800ADF8040069464FF08040FFF748
:103E800077FF01218807FFF7A1FD00214FF0804057
:103E9000FFF790FD012211469007FFF72AFE01214E
:103EA0008807FFF799FD0EBD3EB51648FFF7A0FD48
:103EB0001E240A2C00DA0A24601E80B2ADF8060027
:103EC000472000900020ADF80800ADF804006946D6
:103ED0000C48FFF74DFF01210A48FFF777FD00214D
:103EE0000848FFF767FD012211460648FFF701FE6B
:103EF00000210448FFF739FF00210248FFF76CFD5D
:103F00003EBD00000004004010B500210348FFF74B
:103F10002CFF01210148FFF75FFD10BD00040040A8
:103F20007047704710B502F037FB10BD70477047FF
:103F3000CA430280704721B1828942F400528281D3
:103F400004E082894DF6FF731A40828170470000B9
:103F500010B53148007920B1012806D002280ED1D1
:103F600008E000202D49C8800DE04FF440502B4957
:103F7000C88008E04FF400502849C88003E000F0F2
:103F800051F8002010BD00BF2348407920B101281E
:103F900006D002280ED108E00020204908810DE05B
:103FA0004FF480601D49088108E04FF4C0601B4950
:103FB000088103E000F036F80020E3E700BF164870
:103FC0008079072802D0082810D103E00020134987
:103FD00088800FE01148008918B900200F498880B7
:103FE00003E04FF480500D49888003E000F01AF898
:103FF0000020C7E700BF08480068084908600020A3
:1040000088810C204881064800F054F801210448BA
:10401000FFF791FF0120B5E7DC0000200C6F0020C6
:104020000038014010B54FF416500B4908600020CD
:104030008880C8804FF4C0600881002088810C20EF
:104040004881064800F036F8012240F22551034825
:1040500000F00FF810BD00000C6F00200038014088
:104060000246002013880B4201D0012000E000200E
:104070007047F0B5034600240026002500201846AE
:10408000C1F3421401F01F06012707FA06F5012CBF
:1040900001D10C3004E0022C01D1103000E01430CA
:1040A0001AB107682F43076002E00768AF43076053
:1040B000F0BD00002DE9F04786B005460E4600240D
:1040C000A24600BF00BF00272F462C8A4CF6FF7087
:1040D0000440F08804432C82AC894EF6F31004406F
:1040E000B08831890843718908430443AC81AC8AA4
:1040F0004FF6FF400440B0890443AC8201A8FEF7AC
:1041000087FC1248874202D1DDF810A001E0DDF8FB
:104110000CA00AEBCA0000EB0A1031688900B0FB62
:10412000F1F86420B8FBF0F004012009642101FBE0
:104130001089322000EB0910B0FBF1F000F00F0005
:1041400004432C8106B0BDE8F08700000038014030
:1041500001468888C0F308007047C1F308028280D6
:104160007047704710B504462CB14FF480410548A4
:10417000FDF725F904E04FF480410248FDF721F9ED
:1041800010BD0000000C01407047000010B5084849
:104190000849086002200968087207480749086052
:1041A000074808490860054909680868804710BD44
:1041B0009C6F00207C010020E8000020800100208E
:1041C000180100208801002008B54FF4C060FDF7F9
:1041D00091FA14208DF8000000208DF801008DF870
:1041E000020001208DF803006846FDF71DFA252026
:1041F0008DF8000001208DF801006846FDF714FAE3
:1042000008BD000010B51848006818490880084625
:10421000008800F4806016490988084206D04FF6ED
:10422000FF30114908601349486880470F480088EB
:1042300000F400700E490988084209D04FF6FF507B
:10424000094908600C48007800F101000A4908702B
:104250000648008800F4004005490988084201D05A
:10426000FCF756FA10BD0000445C0040D40000206A
:1042700086010020E80000209800002010B5FFF71C
:10428000C1FF0648006840B104480068C1B2044854
:1042900000F012FD00200149086010BD90000020D0
:1042A0005C6F0020F0B5144604F1010C4FEA6C0776
:1042B000DFF824C00CEB41033D460AE00678401CC1
:1042C00090F800C046EA0C2223F8022B9B1C401CED
:1042D0006D1E002DF2D1F0BD0060004070B50446A7
:1042E0000025212C08D112480068007800F07F00DA
:1042F00021280ED10F4D0CE0202C0AD10C4800686B
:10430000007800F07F00212800D10B4D20200B49C0
:1043100008700DB9022070BD054800688561002154
:104320000348006841820020A8470020F3E700000E
:104330007C01002069430008F9440008D8000020EF
:1043400010B5044602492046FFF70AF910BD0000E7
:104350004401002010B5044602492046FFF700F949
:1043600010BD00003C010020014629B90820034A85
:1043700012681082002070470148FCE77C01002091
:10438000DC00002070B5054606480068C478042C9F
:1043900001DD002070BD044800EBC4012846FFF792
:1043A000DFF8F7E77C0100204C01002002460029DD
:1043B00001DD02207047012A01DD0220FAE700201A
:1043C000F8E70000014608480068007800F07F0028
:1043D000212807D1022901D100207047222901D1CB
:1043E0000020FAE70220F8E77C01002010B5002049
:1043F0003449096888723448C0793249096848727A
:10440000002030490968C872FEF71EFE4FF40071A3
:104410000020FEF709FF10210020FEF7D1FE402109
:104420000020FEF73FFE80210020FEF7A9FE0020BD
:10443000FCF73EFB254890F82C100020FEF744FEC8
:104440000020FEF787FE00210120FEF7EDFEC021CF
:104450000120FEF795FE20210120FEF7B1FE00218C
:104460000120FEF759FE4FF4C0610220FEF7DCFE8A
:104470004FF480710220FEF783FE00210220FEF738
:104480004BFE20210220FEF79BFE00210320FEF7B9
:10449000CBFE4FF488710320FEF704FE4021032079
:1044A000FEF712FE4FF440510320FEF735FE0021C7
:1044B0000320FEF785FE0020FEF7CEFD0120044913
:1044C000086010BD7C010020A2770008E8000020F1
:1044D0006C0100200348817A11B10521024A116064
:1044E000704700009C6F00206C01002004200149EF
:1044F000086070476C010020014629B90820034A72
:1045000012681082002070470148FCE77C010020FF
:10451000DC00002010B505480078202804D1FFF702
:1045200017FD00200149087010BD0000D8000020D0
:104530007047000010B5FCF77BFF00200A490968AE
:104540008872FEF747F90020084908604FF40640DA
:1045500007490880084600880649C1F8400C4FF01A
:1045600000000549086010BD7C010020445C00404B
:1045700086010020005000406C01002070470000C0
:104580000146022901DB03487047034800EB011094
:10459000C068F9E700007AC43C5C002038B5FEF73B
:1045A000A5FBFEF745FC4FF480700D4908804000E4
:1045B0000882002411E00A4901EB04110888022254
:1045C000694600F053FA0020054901EB04118860A8
:1045D000204600F007F8601CC4B2022CEBDB38BDAB
:1045E0003C5C00202DE9F05F8246BAF1000F03D059
:1045F000BAF1010F15D10AE04AF25A50FEF7E6FB74
:1046000008B1BDE8F09F2948B0F800B00AE04AF2CE
:104610005A50FEF781FC00B1F3E72548B0F800B02E
:1046200000E0EEE700BFCBF3491002F04EFA8046FF
:104630000022204B02F0B0FA064600221E4B02F088
:10464000BDF8044601F0D6FF1C4901EB0A11486091
:104650001A4A02EB0A129168184A02EB0A125068D1
:1046600002F05CFE12D2154A02EB0A129168134A5C
:1046700002EB0A12506802F093FF0446104902F060
:10468000E1FC0E4901EB0A11C8600DE00B4A02EB98
:104690000A129168094A02EB0A12506802F080FF80
:1046A000064901EB0A11C86000BFAAE720000020FC
:1046B0002400002000807640000090403C5C0020F8
:1046C0000000B44310B5FBF783FFFCF719FAFBF7C2
:1046D00043FF01210348FBF72EFF01210248FCF7AD
:1046E00004FA10BD002401400800024037B59DF8CF
:1046F00003007038062843D2DFE800F003041742B5
:104700002A2B41E000208DF8050001208DF80600DD
:1047100020208DF8070015218DF8081012218DF842
:10472000091016218DF80A102EE000208DF80500E2
:1047300001208DF8060020208DF8070016218DF845
:10474000081003218DF8091030218DF80A101BE0A4
:104750001AE09DF80410491EC8B200F0A7FB0446F9
:1047600001208DF80600200E8DF80700200C8DF832
:104770000800200A8DF80900E0B28DF80A0003E075
:1047800003208DF8050000BF00BF684600F01CFB49
:1047900000203EBD0EB502211048FCF707FE90F048
:1047A000010011D00E48007870B9684600F009F990
:1047B00004208DF8030001208DF8060001218DF8FA
:1047C0000A10684600F000FB02210448FCF7EEFDE9
:1047D00080F00100024908700EBD00000008014091
:1047E0001200002008B50C20ADF8000018208DF84C
:1047F000030003208DF8020069460D48FCF74EFDCA
:10480000002000F081F8012000F07EF80020094926
:104810000870012048700020887001210548C1708F
:1048200042F2107001F046FE01F0AAF908BD000046
:10483000000801400C00002037B59DF80400401E20
:10484000C4B2022C01DB04203EBD9DF80300902879
:1048500004D0912803D092281DD118E01DE09DF8C6
:104860000A00012803DB9DF80A00032801DD05206A
:10487000EAE79DF80A00401E094931F8100009498D
:1048800001EB44014870204600F00EF805E0204698
:1048900000F03AF801E00320D6E700BF0020D3E79C
:1048A0008A7600080C00002070B5044614B1012C73
:1048B00020D10FE0134800EB4400407842F2107121
:1048C0004843642190FBF1F085B22946032001F0B2
:1048D000B1FD0FE00B4800EB4400407842F210714C
:1048E0004843642190FBF1F085B22946042001F091
:1048F000A1FD00BF00BF0120024901F8140001F032
:10490000F9FD70BD0C00002010B5044614B1012C57
:104910000AD104E00021032001F08CFD04E0002115
:10492000042001F087FD00BF00BF0020024901F80C
:10493000140001F0DFFD10BD0C00002041F2185101
:10494000484300BF0100A0F10100FBD17047000007
:1049500008B50820ADF8000010208DF803000320F2
:104960008DF8020069460448FCF798FC08210248CB
:10497000FCF725FD08BD00000014014010B50446F9
:1049800024B108210448FCF71CFD03E0082102487B
:10499000FCF715FD10BD00000014014010B50446E1
:1049A0002078FF2802D16078FF2801D0012010BDB7
:1049B0000C21204600F01EF808B10220F7E7002085
:1049C000F5E70021016041608160FF2101704170C5
:1049D000B021817001210171704710B50446FF209C
:1049E00020706070B020A0700B21204600F002F80B
:1049F000E07210BD10B50246002001E0535C584043
:104A00000B00A1F10101F9D110BD000010B5002487
:104A100040210C48FCF7D5FC0220FFF78FFF01E096
:104A2000601C84B280210748FCF7C0FC10B1B4F5CB
:104A30002C7FF5DB40210348FCF7C1FC0220FFF787
:104A40007DFF10BD000C014008B5C020ADF800008E
:104A500003208DF8020014208DF8030069460248F7
:104A6000FCF71CFC08BD0000000C01402DE9F041E2
:104A700005460E461746002421E000F065F8A22006
:104A800000F0BEF8FFF7C2FF2919C1F3072000F0BC
:104A9000B7F8FFF7BBFF2919C8B200F0B1F8FFF76C
:104AA000B5FF00F051F8A32000F0AAF8FFF7AEFF21
:104AB00000F00AF8305500F061F8601C84B2BC4286
:104AC000DBDB2046BDE8F08170B5002480211D4865
:104AD000FCF777FC0220FFF731FF40211948FCF773
:104AE0006EFC0220FFF72AFF002519E0402115483F
:104AF000FCF767FC0220FFF721FF80211148FCF73B
:104B000055FC40EA4400C4B20220FFF717FF4021E1
:104B10000C48FCF754FC0220FFF710FF681CC5B2DC
:104B2000082DE3DB80210748FCF74BFC0220FFF750
:104B300005FF40210348FCF742FC0220FFF7FEFE80
:104B4000204670BD000C014010B580210A48FCF7DA
:104B500038FC0220FFF7F2FE40210748FCF731FC49
:104B60000220FFF7EBFE80210348FCF728FC02201F
:104B7000FFF7E4FE10BD0000000C014010B58021DD
:104B80000A48FCF71CFC0220FFF7D8FE402107482A
:104B9000FCF717FC0220FFF7D1FE80210348FCF749
:104BA00010FC0220FFF7CAFE10BD0000000C0140FF
:104BB0002DE9F04105460E46174600241CE0FFF79C
:104BC000C3FFA22000F01CF8FFF720FF2919C1F352
:104BD000072000F015F8FFF719FF2919C8B200F0F7
:104BE0000FF8FFF713FF305D00F00AF8FFF70EFF34
:104BF000FFF7C4FF601C84B2BC42E0DBBDE8F0817B
:104C000070B5044640211848FCF7D9FB0220FFF795
:104C100095FE00251DE014F0800F04D0802112487D
:104C2000FCF7CFFB03E080210F48FCF7C8FB6006D0
:104C3000040E40210C48FCF7C4FB0220FFF77EFE67
:104C400040210948FCF7BBFB0220FFF777FE681CF8
:104C500085B2082DDFDB80210348FCF7B2FB022080
:104C6000FFF76CFE70BD0000000C014008B54FF46A
:104C70000060ADF8000010208DF8030003208DF8CF
:104C8000020069460248FCF709FBFCF735FC08BD49
:104C90000010014010B5FCF7D9FD1E23044A002185
:104CA0000448FCF735FFFCF70DFF002010BD0000A5
:104CB00094090020AD3D000870B504460D462A4613
:104CC00021460648FDF7BEFD064600F00BF818B178
:104CD00003480068FCF7C6FE304670BDA05A0020AD
:104CE0000400002010B50248FDF79CFD10BD000037
:104CF000A05A00207FB505460024FFF7F3FF0C28DB
:104D000002DA012004B070BD3AE003A91F48FDF7A4
:104D1000D5FD5CB99DF80C00FF2831D19DF80C2021
:104D20002046611C8CB20DF8002029E0012C11D125
:104D30009DF80C00FF2805D0FF222046611C8CB294
:104D40000DF800209DF80C202046611C8CB20DF857
:104D5000002015E09DF80C202046611C8CB20DF857
:104D600000200C2C0CDB6846FFF718FE38B90098C1
:104D70002860019868600298A8600020C2E70024BB
:104D8000FFF7B0FF0028C0D10120BBE7A05A0020E8
:104D900030B5C1B000F040F8C5B22A4601A90948B3
:104DA000FDF76FFD04462246C02101A8FFF77AFAFD
:104DB00021460120FEF7F4F90120FEF71FFA41B069
:104DC00030BD00009859002070B50446002500262B
:104DD0002046FFF702FE13E0FBF726FA06460C22F8
:104DE00021460B48FDF72EFDC5B23046FBF720FAF1
:104DF00035B908480068FCF735FE6420FCF7E0FF91
:104E0000002DE9D003480068FCF72CFE70BD0000BF
:104E1000985900200800002010B50248FDF702FD57
:104E200010BD00009859002010B54FF400710848DB
:104E3000FCF7BCFA18B100200649087007E00548E5
:104E4000007820B94FF480710148FCF7B8FA10BD22
:104E5000001001401100002008B54FF48070ADF83B
:104E6000000010208DF8030003208DF80200694631
:104E70000C48FCF713FA4FF480710A48FCF7A1FACA
:104E80004FF40070ADF8000004208DF803000320FB
:104E90008DF8020069460348FCF700FA0120024938
:104EA000087008BD001001401100002001460229D1
:104EB00001DD002070470348042202FB0100D0F806
:104EC000E807F7E700F0FF1F0021C0EB00120A4BD4
:104ED00003EB820211750022C0EB001103EB81018C
:104EE0008A61C0EB001103EB8101CA61C0EB0011C4
:104EF00003EB81010A857047A85B002070B504466A
:104F000084BBC4EB0412374B03EB82029168C4EB01
:104F1000041203EB8202506802F042FB05460021B6
:104F2000284602F0FBF904D22F49284602F08AF8FD
:104F300005460020C4EB04112A4A02EB81014870A7
:104F40002A49284602F0F1FA4AD20120C4EB0411A2
:104F5000244A02EB810148702946234802F020FBD5
:104F600005463DE0FFE7012C39D1C4EB04121D4B8F
:104F700003EB82029168C4EB041203EB82025068D7
:104F800002F0D3FA15D20020C4EB0411154A02EB4B
:104F900081014870C4EB0412124B03EB820291684A
:104FA000C4EB041203EB8202506802F0F9FA0546E2
:104FB00016E00120C4EB04110A4A02EB810148709B
:104FC000C4EB0412074B03EB82025168C4EB0412DA
:104FD00003EB8202906802F0E3FA054600E0002548
:104FE000284670BDA85B00200000B4430000344395
:104FF00038B54FF46740ADF8000010208DF803007D
:1050000003208DF8020069462648FCF747F94FF463
:1050100000502549888141002348C181490001820F
:105020000020FCF777FC204988634FF480711E480C
:10503000A0F848104900A0F84A104900A0F84C1008
:105040000020FCF767FC014617484167FFF7A6FA06
:10505000002424E02046FFF737FF0020C4EB0411B2
:10506000114A02F82100C4EB041102EB81014860EF
:105070000E48C4EB041102EB8101C8620C49C4EB79
:10508000041002EB800001634902C4EB041002EB40
:1050900080004163204600F01FFC601CC4B2022C5B
:1050A000D8DB38BD00180140A85B00200AD7A33B1D
:1050B000000020412DE9F04106460F4639463046B2
:1050C00002F06EFA80463946304602F027F904D2E3
:1050D0003946304602F05AFA80460C49404602F002
:1050E00024FA04D241460A4802F05AFA8046404661
:1050F00001F07CFF04460022064B01F04BFE01D27A
:10510000012000E00020C0B2BDE8F081000034437F
:105110000000B44300000840FEB504462046FFF7F7
:10512000EDFE06460146204600F02CF905462046D5
:10513000FFF7E4FE06460146204600F023F9284426
:10514000C5B20020C4EB04112F4A02F821008120CF
:105150008DF80300601CC0B28DF80400C4EB04128B
:10516000294B03EB82025168C4EB041203EB820269
:105170009068FFF79FFF2844C0B28DF8050001201A
:105180008DF80600C4EB04111F4A02EB8101886808
:105190001E4902F0F7F8064602F0A0F8000E8DF85E
:1051A0000700C4EB0411184A02EB81018868174913
:1051B00002F0E8F8064602F091F8010C8DF80810AC
:1051C000C4EB0411104A02EB810188680F4902F018
:1051D000D9F8064602F082F8010A8DF80910C4EBEE
:1051E0000411094A02EB81018868084902F0CAF8F3
:1051F000064602F073F8C1B28DF80A106846FFF750
:10520000E3FD2846FEBD0000A85B00200000204111
:1052100010B50024ABE0C4EB0410574901EB80004B
:10522000007DF0B3C4EB041001EB8000018DC4EBF2
:105230000410514A02EB8000008D401E02B2C4EB04
:1052400004104D4B03EB8000028559BBC4EB0410E6
:10525000194601EB8000C269C4EB041001EB800029
:10526000C069401EC4EB041103EB8101C8617AB32D
:10527000C4EB041203EB8202516AC4EB041203EB89
:105280008202106A01F0DEFEC4EB04113A4A02EB1E
:1052900081010862C4EB0412374B03EB8202516BAD
:1052A00001E05FE061E0C4EB041203EB8202106AEC
:1052B00002F034F80DD2C4EB04102F4901EB80004A
:1052C000416BC4EB04102C4A02EB800001621AE02F
:1052D0002AE0C4EB0412284B03EB8202116BC4EBEF
:1052E000041203EB8202106A02F01FF90BD2C4EB26
:1052F0000410214901EB8000016BC4EB04101E4A2D
:1053000002EB800001621D480068C4EB04111A4AD8
:1053100002EB8101C98980EA01001949C1F80C0832
:10532000204600F0D9FA0DE00020C4EB0411124A27
:1053300002EB81010875C4EB041102EB8101886B5B
:10534000FCF790FBC4EB04110B4A02EB8101086AE5
:1053500001F0A8FF01B2C4EB0410074A02EB800081
:10536000018502E0204600F0B7FA601CC4B2022CAE
:10537000FFF651AF10BD0000A85B00200C180140E3
:10538000001001402DE9FF47064688465A4800684C
:10539000C6EB0611594A02EB8101898920EA010016
:1053A0005749C1F80C08C6EB0610114601EB800006
:1053B000407860B150480068C6EB061102EB8101ED
:1053C000098A40EA01004E49C1F80C080CE04A483D
:1053D0000068C6EB0611494A02EB8101098A20EAFE
:1053E00001004749C1F80C08404601F0FFFD814625
:1053F0000022444B01F0D0FB0022434BCDE90001D9
:1054000001F0DCF904460022404B01F025F9CDE91A
:10541000020101F02BFB4100C6EB0610374A02EBFC
:10542000800081610027C6EB061102EB8101C86A8A
:1054300001F0DCFD21F000410446354A354B01F016
:10544000A9FC1AD2C6EB06122C4B03EB8202516B5D
:10545000C6EB061203EB8202106B02F0A1F80546C0
:10546000C6EB0610254A02EB8000C16A284601F00F
:1054700057FE044601F032FF0746C6EB06101F49EF
:1054800001EB80008069B0EB470F15D8C6EB061022
:1054900001EB8000806947083946304600F0A6F9E4
:1054A00018B1022004B0BDE8F0873946304600F05C
:1054B0007FF9F0B10220F5E73946304600F096F961
:1054C00008B10220EEE7C6EB06100C4A02EB8000A2
:1054D0008069022202FB1701304600F0E5F908B1AD
:1054E0000220DFE73946304600F062F908B10220B9
:1054F000D8E70020D6E700000C180140A85B002088
:10550000001001400000A940008076400000E03F0C
:105510002D431CEBE2361A3F2DE9F7439DF80400BA
:10552000401E00F0FF08B8F1020F02DB0420BDE8C6
:10553000FE83C8EB0810994911F82000012801D119
:105540000220F4E7C8EB0810944911F8200008B1D4
:105550000620ECE79DF80300803806287ED2DFE8BD
:1055600000F003074857D75E684600F0C7F912E11C
:105570009DF807100A069DF8081042EA01429DF8BE
:10558000091042EA01219DF80A2041EA020001F0D7
:105590009CFA06460022824B01F010F9044601F005
:1055A00029F8C8EB08117D4A02EB810148609DF89B
:1055B0000410C1EB011102EB81014868794901F047
:1055C000B4FF08D80020C8EB0811744A02EB81012F
:1055D00048600520ABE70120C8EB08116F4A02F8CC
:1055E0002100C8EB081102EB8101886BFCF73AFA45
:1055F000D1E00020C8EB0811684A02EB8101087570
:10560000C8EB081102F82100684600F077F9C2E003
:10561000684600F073F9404600F05EF9BBE09DF883
:1056200007100A069DF8081042EA01429DF8091089
:1056300042EA01219DF80A2041EA020001F045FA00
:1056400004460022564B01F0B9F8064600F0D2FF9E
:1056500081465449484601F068FF00E099E001D8CE
:10566000052064E70020504901EB081188609DF88F
:10567000060038B94C4800EB081040684A4901EB75
:10568000081188600020484901EB081188604649EC
:1056900001EB08118868454901F074FE044601F0E9
:1056A0001DFE000E8DF807003F4901EB08118868C8
:1056B0003E4901F067FE044601F010FE010C8DF832
:1056C0000810394901EB08118868384901F05AFE81
:1056D000044601F003FE010A8DF80910324901EB7E
:1056E00008118868314901F04DFE044601F0F6FDCD
:1056F000C1B28DF80A102C4901EB0811088802226A
:105700000DF10901FFF754FA404600F0E5F800BF3B
:1057100000208DF8050001208DF80600224901EBDC
:1057200008118868214901F02DFE044601F0D6FDDC
:10573000000E8DF807001C4901EB081188681B4911
:1057400001F020FE044601F0C9FD010C8DF808109F
:10575000154901EB08118868144901F013FE04464D
:1057600001F0BCFD010A8DF809100F4901EB081189
:1057700088680E4901F006FE044601F0AFFDC1B293
:105780008DF80A106846FFF71FFB404600F0A4F8AA
:1057900001E00320CBE600BF0020C8E6A85B0020A4
:1057A000000024400000B4433C5C00200000204185
:1057B00038B504460D46C4EB04100B4901EB8000DC
:1057C0002946C26A204600F03FF8C4EB0411064A9D
:1057D00002EB81016A46886B41F28831FCF7C6F81A
:1057E0009DF8000038BD0000A85B0020F8B5044615
:1057F0000D46C4EB0410134901EB8000016BC4EBB0
:105800000410104A02EB80000162C4EB041002EBAA
:105810008000C16A002001F0C3FE06460246294608
:10582000204600F011F8C4EB0411064A02EB810196
:105830006A46886B41F28831FCF798F89DF80000C1
:10584000F8BD0000A85B002070B504460D46164662
:10585000C4EB0410134911F8200000B970BDC4EB6B
:105860000410104901EB80004662C4EB041001EB08
:105870008000C561C4EB04110A4A02EB8101086A89
:1058800001F010FD01B2C4EB0410064A02EB8000E7
:1058900001850120C4EB041102EB8101087500BFF2
:1058A000DCE70000A85B002038B504460D46002266
:1058B00029462046FFF7C8FFC4EB0411054A02EB56
:1058C00081016A46886B41F28831FCF74FF89DF8F8
:1058D000000038BDA85B002010B504462046FEF746
:1058E00081FE2046FEF74CFEC4EB0411024A02EB97
:1058F0008101886010BD0000A85B002070B50446DF
:10590000002060710120A0712179491EC1EB0111B5
:105910001F4A02EB810188681E4901F033FD0546EC
:1059200001F0DCFC000EE0712179491EC1EB011190
:10593000174A02EB81018868164901F023FD0546EC
:1059400001F0CCFC010C21722179491EC1EB01113F
:105950000F4A02EB810188680E4901F013FD0546EC
:1059600001F0BCFC010A61722179491EC1EB0111F1
:10597000074A02EB81018868064901F003FD0546EC
:1059800001F0ACFCA0722046FFF71EFA70BD0000CB
:10599000A85B0020000020411FB50020039002E01A
:1059A0001420FCF70DFA314800780028F8D05BE0AD
:1059B0006846FFF79FF938B103AA4FF47A712C4873
:1059C0000068FBF7D3FF4FE09DF80200C02800D02D
:1059D0004AE09DF8030000F0F00080280ED003DCC0
:1059E00038B1702833D12DE0902814D0A0282ED1C2
:1059F0001BE09DE80700FAF74BFE2FE09DE807004B
:105A0000FFF78AFD8DF805009DF8050010B1684686
:105A1000FFF7DAF922E09DE80700FEF70DFF8DF8A9
:105A200005006846FFF7D0F918E09DE8070000F090
:105A30000DFA8DF805009DF8050010B16846FFF7D6
:105A4000C3F90BE09DE80700FEF750FE06E00320D7
:105A50008DF805006846FFF7B7F900BF00BF0020CA
:105A600000900190029000BFA2E70000000000201B
:105A70000400002008B50020009002E01420FCF78C
:105A80009FF90C4800780028F8D011E06A464FF4DE
:105A90007A7109480068FBF769FFFBF741FD03E0F5
:105AA000FBF73EFDFFF774F9FFF7B6F90028F7D1D1
:105AB000ECE70000000000200800002008B502E02C
:105AC0001420FCF77DF90C4800780028F8D0FEF788
:105AD0001BFA0FE009496A46886B4FF47A71FBF7AD
