:020000040800F2
:100000001076002031010008350100083701000892
:10001000390100083B0100083D0100080000000014
:100020000000000000000000000000004101000886
:100030003F0100080000000067020008CD380008FA
:1000400061460008BD28000825390008912D0008E8
:1000500001120008A92C0008B1100008BD1000080A
:10006000CB100008CD100008CF1000087D0A000852
:100070007F0A0008810A0008830A0008850A000830
:10008000870A0008890A0008110400087542000860
:10009000654300087B0600087D060008D1100008B3
:1000A000273900082D3900082B39000829390008A4
:1000B0003D39000875390008D1390008BF1500081E
:1000C000BD150008C3150008C1150008352F00082C
:1000D0008530000811400008194000081B40000846
:1000E000BB100008592D00084F4200082B3A0008A9
:1000F000313A00082F3A00082D3A00085B03000847
:10010000A3130008F52D0008253A00088D300008DB
:100110000D4000080F400008273A0008293A00085F
:10012000750A0008770A0008790A00087B0A0008A7
:1001300004480047FEE7FEE7FEE7FEE7FEE7FEE7CE
:10014000FEE700004901000800F002F800F05AF84C
:100150000AA090E8000C82448344AAF10107DA4522
:1001600001D100F04FF8AFF2090EBAE80F0013F01A
:10017000010F18BFFB1A43F001031847E87A00008B
:10018000087B00000A444FF0000C10F8013B13F00C
:10019000070408BF10F8014B1D1108BF10F8015BE0
:1001A000641E05D010F8016B641E01F8016BF9D1D3
:1001B00013F0080F1EBF10F8014BAD1C0C1B09D12A
:1001C0006D1E58BF01F801CBFAD505E014F8016B9C
:1001D00001F8016B6D1EF9D59142D6D3704700002E
:1001E0000023002400250026103A28BF78C1FBD840
:1001F000520728BF30C148BF0B6070471FB51FBDF5
:1002000010B510BD00F073F81146FFF7F7FF04F0CA
:100210006FFE00F091F803B4FFF7F2FF03BC00F0AB
:1002200095F80000EFF3108072B6704780F31088E5
:10023000704724484FF0FF010170002080F30988C7
:100240001D480121017020484FF08051016062B6C5
:10025000FEE71D484FF08051016070471A484FF08B
:10026000805101607047EFF3098028B1203880E8A1
:10027000F00F12490968086000B50A4880475DF828
:1002800004EB0B480B490A7802700C480C490A68C9
:100290000260106890E8F00F203080F309884EF07B
:1002A000040E7047D11E0008911900084500002077
:1002B0004700002048000020520000205800002085
:1002C0006000002022ED00E004ED00E00248034958
:1002D000034A044B70470000107000201076002085
:1002E00010720020107200207047704770477546EA
:1002F00000F028F8AE4605006946534620F0070096
:10030000854618B020B5FFF7E1FFBDE820404FF06B
:1003100000064FF000074FF000084FF0000B21F0EF
:100320000701AC46ACE8C009ACE8C009ACE8C009BC
:10033000ACE8C0098D4670470446AFF30080204604
:10034000FFF769FF00487047AC6F00200149182093
:10035000ABBEFEE7260002007047704721B18268FD
:1003600042F00102826003E0826822F001028260B2
:10037000704721B1826842F48072826003E0826833
:1003800022F480728260704710B504461548201828
:1003900006D0B0F5806F0DD0B0F5C05F1ED113E070
:1003A0000121480202F07EFB00214FF4007002F0B0
:1003B00079FB14E00121880202F074FB00214FF464
:1003C000806002F06FFB0AE00121C80302F06AFBC3
:1003D00000214FF4004002F065FB00E000BF00BFC9
:1003E00010BD000000DCFEBF014600208A6812F04C
:1003F000040F01D0012000E00020704701460020DA
:100400008A6812F0080F01D0012000E00020704738
:100410007047000030B502460020002350680F4CA2
:1004200020400D790C6844EA052420435060906810
:100430000B4C2040D1E902542C434D7944EA450449
:1004400020439060D06A20F470000C7C641E1C4332
:10045000E3B240EA0350D06230BD0000FFFEF0FF7F
:10046000FDF7F1FFF0B504460D4600200021092DEF
:1004700011DDE068A5F10A0606EB4607072606FA35
:1004800007F18843A5F10A0606EB460603FA06F1D2
:100490000843E0600CE0206905EB4507072606FAF3
:1004A00007F1884305EB450603FA06F1084320618E
:1004B000072A0FDA606B561E06EB86071F2606FA20
:1004C00007F18843561E06EB860605FA06F1084337
:1004D000606322E00D2A0FDA206BD61F06EB860739
:1004E0001F2606FA07F18843D61F06EB860605FA93
:1004F00006F10843206310E0E06AA2F10D0606EB66
:1005000086071F2606FA07F18843A2F10D0606EBBF
:10051000860605FA06F10843E062F0BD816841F005
:1005200008018160704721B1826842F4A0028260B4
:1005300003E0826822F4A00282607047816841F083
:10054000040181607047000000B585B01B48FFF7CB
:100550001BFF0020009001208DF804008DF805009D
:100560004FF4602002900020039001208DF81000CD
:1005700069461248FFF74EFF072301220A210F4860
:10058000FFF770FF01210D48FFF7F3FE01210B4833
:10059000FFF7E4FE0948FFF7C1FF00BF0748FFF778
:1005A0002DFF0028FAD10548FFF7C8FF00BF034818
:1005B000FFF71AFF0028FAD105B000BD0024014062
:1005C00008B50120ADF8000000208DF80300694651
:1005D000014800F007FF08BD0010014010B503F00E
:1005E00077F902F079FA0121412002F01BFA01218A
:1005F0000F2002F027FA0121880302F023FA0121DB
:10060000480202F03FFA0121084602F03BFA0121BC
:100610004FF4A04002F036FA01214FF4FE7002F0D0
:1006200031FA0121C80502F00DFA002002F06AFB40
:1006300004F052FD03F03EFE03F01EFE04F044FC05
:1006400004F088FA04F02EFB06F0F4F804F018F831
:1006500004F00EFF04F020F905F066FD03F072FCD3
:1006600003F098FC01F00BF802F02CFA10BD0146E3
:10067000CAB20B1243EA022070477047704700006D
:1006800007B59DF8030005282ED2DFE800F003042B
:100690000C1824002CE000208DF805009DF80A00BD
:1006A00004F06EFA24E09DF808109DF8072041EA56
:1006B000022002220DF1090104F006FB18E09DF86A
:1006C00008109DF8072041EA022002220DF10901DD
:1006D00004F09CFB0CE00221084800F00BFF80F0C6
:1006E00001018DF80A1003E003208DF8050000BF1A
:1006F00000BF684604F0A8FC0EBD000000080140E1
:1007000010B5002469E147F6FF70B9490860B9489F
:10071000008800F00F00B8490870084600780028EB
:100720007DD1B3484438006800F44050B349088094
:10073000AF484438006800F03000B1490880AC4947
:10074000443909684BF68F7201EA020080F40050C8
:10075000A74944390860096848F6BF7201EA0200F7
:1007600080F02000A24944390860A248008810F0B7
:10077000100F38D10846006848F60F7108409C49B0
:100780004439086000F01EFF9949443909684BF666
:100790008F7201EA02009949098811F4805F01D043
:1007A00080F480509549098811F4005F01D080F4ED
:1007B00000508F4944390860096848F6BF7201EA61
:1007C00002008F49097811F0100F01D080F010005D
:1007D0008B49097811F0200F01D080F02000844966
:1007E0004439086010BD82484438006884B214F06F
:1007F000800F3BD07E484438006848F60F710840AF
:100800007B494439086000F0DDFE794944390968C4
:100810004BF68F7201EA02007849098800E0A3E0F4
:1008200011F4805F01D080F480507449098811F47C
:10083000005F01D080F400506D49443908600968B8
:1008400048F6BF7201EA02006D49097811F0100FF5
:1008500001D080F010006A49097811F0200F01D012
:1008600080F02000624944390860BBE714F4006F4F
:100870003BD05F4844380068C0F30E0048F68F71E3
:1008800008405B494439086002F0B8FD58494439D2
:1008900009684BF68F7201EA02005849098811F481
:1008A000805F01D080F480505449098811F4005FC2
:1008B00001D080F400504E4944390860096848F678
:1008C000BF7201EA02004E49097811F0100F01D001
:1008D00080F010004A49097811F0200F01D080F013
:1008E00020004349443908607CE714F4004F74D079
:1008F0003F4844380068C0F30E0048F68F71084046
:100900003B494439086001F09DFF39494439096881
:100910004BF68F7201EA02003849098811F4805FB2
:1009200001D080F480503549098811F4005F01D06E
:1009300080F400502E4944390860096848F6BF72B7
:1009400001EA02002E49097811F0100F01D080F061
:1009500010002B49097811F0200F01D080F0200001
:100960002349443908603DE7234800782049443949
:1009700051F8200084B214F4004F15D01E480078BE
:1009800051F82000C0F30E0048F68F7108401A4954
:100990000978174A443A42F8210017490978491E54
:1009A000184A52F82100804714F0800F15D01248E1
:1009B00000780F49443951F8200048F60F7108407B
:1009C0000D4909780A4A443A42F821000A4909784F
:1009D000491E0D4A52F8210080470548006880B240
:1009E0000449088010F4004F7FF48DAE00BFF9E693
:1009F000445C0040D80000207C01002090010020D1
:100A000092010020BC000020A0000020084951F8FD
:100A1000201011F4804F0AD0054951F8201048F6F3
:100A20008F72114041F48041014A42F82010704712
:100A3000005C0040084951F8201011F0400F0AD026
:100A4000054951F8201048F68F72114041F04001DD
:100A5000014A42F820107047005C0040044951F8F8
:100A6000201048F68F621140014A42F8201070476A
:100A7000005C004070477047704770477047704790
:100A80007047704770477047704721B1026842F065
:100A90000102026003E0026822F001020260704776
:100AA00000B58BB00F4800F023F80F4800900F48B6
:100AB00001900020029001200390002004908020EB
:100AC00005904000069080000790202008900002CA
:100AD000099000200A906946024800F0ABF80BB07C
:100AE00000BD0000080002404C240140220000200C
:100AF000016821F001010160002101604160816015
:100B0000C160484A811A90425BD012DC464AA0EB91
:100B1000020190423AD007DC444941181BD0142905
:100B200022D028297AD128E0142938D0282975D153
:100B30003EE0B1F56C7F5BD006DCB1F5627F49D059
:100B4000B1F5677F6AD14CE0B1F5717F57D0B1F54F
:100B5000767F63D15BE034494439496841F00F0145
:100B6000314A443A51605AE02F494439496841F0CA
:100B7000F0012D4A443A516051E02B49443949680B
:100B800041F47061284A443A516048E026494439AA
:100B9000496841F47041244A443A51603FE0224997
:100BA0004439496841F470211F4A443A516036E0A3
:100BB0001D494439496841F470011B4A443A516067
:100BC0002DE019494439496841F07061164A443AA8
:100BD000516024E01649096841F00F01144A116080
:100BE0001DE01349096841F0F001114A116016E057
:100BF0000F49096841F470610D4A11600FE00C491A
:100C0000096841F470410A4A116008E006E00849A9
:100C1000096841F47021064A116000E000BF00BF7E
:100C2000704700008000024044000240F8FFFDBF12
:100C30000404024010B50022026847F6F0739A439C
:100C40000C6A8B6823430C6923434C6923438C69EA
:100C50002343CC6923434C6A23438C6A23431A43BE
:100C60000260CB6843600B6883604B68C36010BD53
:100C70002DE9F0472848006800F110052E88264825
:100C80000068077AD6B9042F18D1244800780128C3
:100C90000FD100212248006880B2801C214A42F80E
:100CA000101030202049088000BF00201B49087028
:100CB00003E0072710201C49088027E0AC88A642E3
:100CC00001D8042000E002200746B44200D934468F
:100CD000A0B2A96888478046002000F03BFC81460E
:100CE000A2B24946404603F051FBA1B2002002F0F7
:100CF000C9FA2888001B2880688820446880302032
:100D00000949088000020949088000BF02490968B2
:100D10000F72BDE8F08700008001002078010020FC
:100D2000505C0040006000409201002090010020D3
:100D30002DE9F0412848006800F110042688A068D9
:100D4000C0B1BEB1A588B54200D93546A8B2A168E8
:100D5000884707462088401B2080608828446080A0
:100D6000002000F0D5FB8046AAB24146384601F08B
:100D700091FD00BF208850B14FF4405017490880C2
:100D80000021084602F07EFA3020154908802088AC
:100D9000A188884204DB03200F490968087218E023
:100DA0002088002804DD05200B490968087210E03E
:100DB000208870B90620084909680872002109488E
:100DC000006880B2801C084A42F8101030200449A4
:100DD0000880BDE8F0810000800100209001002023
:100DE00092010020505C0040006000402DE9F84F67
:100DF0009848006845780027BA46062D1AD19548CC
:100E00000068007810F07F0F13D192490968887844
:100E1000012803D190490968CF690AE0022803D16B
:100E20008D4909680F6A04E0032802D18A490968DC
:100E30004F6A90E0002D60D1864800684088002805
:100E40005BD184480068C088022856D18148006878
:100E50000079002851D17F480068007810F07F0F9A
:100E600005D17C480068808808B97C4F73E07948D8
:100E70000068007800F07F00012810D175490968EA
:100E80004879754909688A6900219047002862D12C
:100E900070480068807A00285DD0704F5BE06D4834
:100EA0000068007800F07F00022854D1694800688B
:100EB000407900F00F0667480068407900F070093B
:100EC00064480068407910F0800F05D0644850F8FD
:100ED000260000F0300804E0614850F8260000F4D5
:100EE000405860480078B04235D9B9F1000F32D18E
:100EF000B8F1000F2FD0594F2DE0082D07D15548DC
:100F00000068007810F07F0F25D1574F23E00A2D9D
:100F100021D150480068007800F07F0001281AD1E4
:100F20004C480068807AB0B14A480068408890B95F
:100F300048480068007970B946480068C0880128B0
:100F400009D1444909684879434909688A690021F7
:100F5000904700B9454F57B13E480068A0F812A02D
:100F60003C48006887610020B84700240FE0394AF8
:100F700012685078384A1268116988470446032C71
:100F800005D10920334909680872BDE8F88F314856
:100F90000068008AA0F57F41FF3904D109202D495E
:100FA00009680872F1E7022C03D02A480068008A19
:100FB00020B90820274909680872E6E72548006833
:100FC000007810F0800F3CD022480068C088009064
:100FD00020480068008A0099884204D91D49009879
:100FE0000968088223E01B480068008A19490968DB
:100FF000C98888421BDA17480068008A16490968C0
:1010000091F82C10884203DA0020194908700EE08C
:1010100010480068008A1049096891F82C1090FB6C
:10102000F1F201FB120010B90120114908700A48C1
:10103000006890F82C10074800688182FFF718FEBE
:1010400006E0032003490968087200030949088083
:1010500000BF9AE78001002084010020613600086B
:10106000005C0040E8000020E53500083536000847
:10107000780100209001002000200149086070479D
:101080009800002010B5032000F052FA06490860CD
:101090000846006882B24FF48871044801F0FAFBF8
:1010A000032002F0CDF810BD94000020506F002006
:1010B00010B5012000F00EF810BD704710B504F017
:1010C00021FF022000F006F810BD704770477047FE
:1010D0007047000001490860704700001404014097
:1010E000817900293ED02449096802689143224A47
:1010F0001160111D0968026891431F4A121D116099
:101100000179121F89580268114302791A4BD15094
:1011100019490831096802689143174A0832116079
:10112000111D096802689143134A0C32116041791C
:1011300010290ED1111F0968026811430E4A0832A6
:101140001160111D0968026811430B4A0C321160CD
:1011500010E04179084A8958026811434279064BE8
:10116000D15007E00179044A895802689143027915
:10117000014BD150704700000004014070B5054696
:10118000042440F6FF7000F0F7F80446042C19D14F
:101190000D48006940F002000B49086108464561AE
:1011A000006940F04000086140F6FF7000F0E4F88C
:1011B0000446012C06D00448006941F6FD71084040
:1011C00001490861204670BD0020024004200B49FF
:1011D000C96811F0010F01D001200EE00749C9686C
:1011E00011F0040F01D0022007E00449C96811F092
:1011F000100F01D0032000E00420704700200240BF
:10120000704700000348006940F080000149086110
:1012100070470000002002400549096821F01001D4
:10122000034A1160114609680143116070470000CC
:101230000020024070B505460E4604240F2000F041
:101240009BF80446042C25D11348006940F00100A6
:10125000114908612E800F2000F08EF80446042CFE
:101260000FD1300C68800F2000F086F80446012C66
:1012700010D00948006941F6FE710840064908612E
:1012800008E0012C06D00448006941F6FE710840D0
:1012900001490861204670BD0020024070B5054636
:1012A000042440F6FF7000F067F80446042C41D196
:1012B000214822498860224888600846006940F039
:1012C000200008610846006940F04000086140F6CF
:1012D000FF7000F051F80446042C22D11748006931
:1012E00041F6DF710840154908610846006940F081
:1012F000100008611DB100201249088002E0A520FD
:101300001049088040F6FF7000F036F80446012CC2
:1013100010D00A48006941F6EF710840074908619A
:1013200008E0012C06D00548006941F6DF7108404D
:1013300002490861204670BD230167450020024034
:10134000AB89EFCD00F8FF1F01460020034A10686B
:1013500000F0380008431060704700000020024091
:1013600002480349486003484860704723016745C5
:1013700000200240AB89EFCD70B504460425FFF78D
:1013800025FF054605E003F033FBFFF71FFF054689
:10139000641E012D01D1002CF5D104B90525284684
:1013A00070BD704730B500228B071C0F0F2303FA66
:1013B00004F20B4B8C1053F824309343084C8D10DF
:1013C00044F8253023468C1053F824308C07240F22
:1013D00000FA04F42343024C8D1044F8253030BD4C
:1013E000080001402DE9F0410246002500260020BA
:1013F00000230024002791F803C00CF00F0591F89A
:1014000003C01CF0100F03D091F802C04CEA050590
:1014100091F800C0BCF1000F30D0146800202AE021
:101420004FF0010C0CFA00F3B1F800C00CEA03060F
:101430009E421FD183004FF00F0C0CFA03F7BC4300
:1014400005FA03FC4CEA040491F803C0BCF1280F30
:1014500005D14FF0010C0CFA00FCC2F814C091F851
:1014600003C0BCF1480F05D14FF0010C0CFA00FC91
:10147000C2F810C0401C0828D2D31460B1F800C0D4
:10148000BCF1FF0F34DD546800202EE000F1080CA1
:101490004FF0010808FA0CF3B1F800C00CEA03069B
:1014A0009E4221D183004FF00F0C0CFA03F7BC438E
:1014B00005FA03FC4CEA040491F803C0BCF1280FC0
:1014C00005D100F1080C08FA0CF8C2F8148091F864
:1014D00003C0BCF1480F07D100F1080C4FF0010820
:1014E00008FA0CF8C2F81080401C0828CED35460CB
:1014F000BDE8F0810246002093680B4201D0012034
:1015000000E00020704741617047016170470000B2
:1015100001460548006880B200EBC100001D034A87
:1015200032F8100080B27047505C0040006000400C
:1015300001460648006880B200EBC100801D044AE5
:1015400032F81000C0F3090070470000505C004002
:101550000060004001460548006880B200EBC10011
:10156000034A32F8100080B270470000505C00401F
:101570000060004010B50F4B18681B1D19681B1D3B
:101580001A68A8B10C4CA070030A2371030CA37154
:10159000030E2372A1720B0A23730B0CA3730B0EA1
:1015A0002374A274130A2375130CA375130E2376E8
:1015B00010BD0000E8F7FF1F78000020704770475B
:1015C0007047704710B518480068047A022C01D0A3
:1015D000042C05D1FFF74CFB13480068047A1CE08B
:1015E000062C19D110480068407805280ED10E4805
:1015F0000068007810F07F0F08D10B490968C8789F
:1016000001F0AEFD09490968086A80470849096880
:1016100088688047082400E00824034909680C72A0
:1016200001F04EF910BD0000800100208C01002067
:101630008401002010B54FF400610248FFF765FFF8
:1016400010BD00000010014010B54FF400610248C9
:10165000FFF759FF10BD00000010014010B54FF416
:1016600000610548FFF746FF10B1FFF7EDFF01E00D
:10167000FFF7E0FF10BD000000100140704708B503
:101680004FF4A06000F0C0F81E208DF8000002208A
:101690008DF8010000208DF8020001208DF8030074
:1016A000684600F05FF84FF4A06000F0ADF803204A
:1016B0008DF8000004208DF8010003208DF8020051
:1016C00001208DF80300684600F04CF84FF4A0604C
:1016D00000F09AF81C208DF8000004208DF801001D
:1016E0008DF8020001208DF80300684600F03AF8FA
:1016F0004FF4A06000F088F81D208DF80000042051
:101700008DF8010005208DF8020001208DF80300FE
:10171000684600F027F84FF4A06000F075F8232029
:101720008DF8000004208DF8010006208DF80200DD
:1017300001208DF80300684600F014F84FF4A06013
:1017400000F062F824208DF8000004208DF80100DC
:1017500007208DF8020001208DF80300684600F094
:1017600001F808BDF0B500210022002300250F2458
:10177000C678002E35D0214E366806F4E066C6F5F0
:10178000E066310AC1F10405CC40467806FA05F15D
:1017900086782640314309010678B607F60EB14037
:1017A000174E0778BF1056F827200678B607F70EB1
:1017B000FF2606FA07F39A4319400A43104E0778AA
:1017C000BF1046F82720067806F01F070126BE4006
:1017D00007787F114FF0E02C0CEB8707C7F800610A
:1017E0000BE0067806F01F070126BE40054F90F873
:1017F00000C04FEA6C1C47F82C60F0BD0CED00E017
:1018000000E400E080E100E002490143024A116087
:10181000704700000000FA050CED00E070B50226EC
:1018200049480068447848480068007810F07F0F05
:101830004AD1092C03D101F087FF064665E0052C4B
:1018400014D141480068C0787F280BDC3E4800680E
:10185000807838B93C480068808818B93A480068F0
:10186000807A08B108256BE000264EE0032C14D1E5
:1018700035480068C07801280DD133480068808859
:1018800048B931480068407A10F0200F03D001F0C9
:101890007FFF064639E0022637E0012C35D12A4881
:1018A0000068C07801280DD127480068808848B9B1
:1018B00025480068407A10F0200F03D001F0F6FDB3
:1018C000064622E0022620E01F480068007800F06B
:1018D0007F00012805D10B2C17D101F0C1FF06466E
:1018E00013E019480068007800F07F0002280BD14F
:1018F000012C03D101F0DAFD064606E0032C04D1E9
:1019000001F05AFF064600E002264EB1E0B20F4A4F
:101910001268516988470646032E01D109250FE058
:101920000EB108250CE0062500210948006880B2A8
:10193000801C084A42F8101030200749088000BF78
:10194000014909680D7270BD8001002084010020EA
:10195000505C0040006000409201002010B500F093
:1019600015F800F0FBFC00F023FD00F045FD00F051
:10197000CDFC00F0A5FC00F0CDFD00F0F1FD00F085
:101980006FFD00F095FD00F002F810BD7047704744
:1019900010B500241B480078012831D1FEF742FC25
:1019A000044619480078002804DD17480078401ED6
:1019B0001549087014480078F8B914480078E0B95F
:1019C00000F024FE12481349097850F8210012490A
:1019D0000860104800781149097888420DD00E48F7
:1019E0000068406B401C0C49096848630C4800685B
:1019F000401C0B490860FEF731FC2046FEF716FC40
:101A000010BD0000520000204500002046000020CC
:101A10005C65002048000020600000204700002096
:101A20002C00002070B505460026124800780028DA
:101A300001DD002070BDFEF7F5FB06460E48046888
:101A4000006820B10C48006840680B4908603046C7
:101A5000FEF7ECFB5CB10320207025810020606064
:101A60003F20E07400212175204600F01BFC204639
:101A7000E0E7000045000020300000202DE9F041A3
:101A800005460E4614464FF000080CB9BDE8F0813B
:101A900015B904202070F9E72878032802D0012026
:101AA0002070F3E730480078002802DD0220207023
:101AB000ECE72E480078002802DD0D202070E5E7D5
:101AC000FEF7B0FB80462889002808DD2889401EE3
:101AD00028814046FEF7AAFB00202070D6E7244864
:101AE000006890F82C0040F001002149096881F855
:101AF0002C0000201E49096881F82D001C48006850
:101B00004685284600F090FB4046FEF78FFB00F02C
:101B100043FDFEF787FB80461548006890F82D00CE
:101B2000B0B11348006890F82D70284600F0E6FA2E
:101B30004046FEF77BFB012F02D0022F03D000BFEF
:101B40000A20207002E00E20207000BF00BF9DE739
:101B5000002007490968C8614046FEF767FB00207E
:101B6000207000BF92E700004500002046000020E2
:101B70005800002070B5044600250CB9042070BD43
:101B80002078032801D00120F9E7FEF74BFB05463A
:101B9000A07A60B1002301221946204600F0D6FA4F
:101BA0002846FEF743FB00F0F7FC0020E7E720891A
:101BB0004FF6FF71884207D22089401C20812846B9
:101BC000FEF734FB0020DAE72846FEF72FFB322031
:101BD000D5E7000010B50B48007890B900F016FD6D
:101BE000094800780949087009480749097850F8F8
:101BF0002100084908600846006807490860FEF7A8
:101C000018FB10BD520000204800002047000020B3
:101C10005C65002060000020580000207047000034
:101C20002DE9FE4F06460F4690461C464FF0000930
:101C30003F2C02DD2A20BDE8FE8FFEF7F3FA814635
:101C40001F480078002804DD4846FEF7EFFA3C20E4
:101C5000F1E71C4850F8240060BB0120194941F805
:101C600024004846FEF7E2FA002342463946304651
:101C700000F0E1F882460020009001900346024601
:101C800051460290204600F0EFFC054635B90E485B
:101C9000007801280CD100F07FFC09E0FEF7C2FAC1
:101CA00081460020074941F824004846FEF7BEFA65
:101CB0002846C0E74846FEF7B9FA2820BBE70000EF
:101CC000450000205C650020520000202DE9F04F07
:101CD00085B00746884691461C46DDE911B6DDF819
:101CE00038A0002003903F2C03DD2A2005B0BDE87A
:101CF000F08FFEF797FA03901F480078002804DD64
:101D00000398FEF793FA3C20F0E71C4850F82400B3
:101D100060BB0120194941F824000398FEF786FAB8
:101D200033464A464146384600F085F804901098FC
:101D30005346CDE901B6009020460F9A049900F071
:101D400093FC054635B90E48007801280CD100F007
:101D500023FC09E0FEF766FA03900020074941F8EA
:101D600024000398FEF762FA2846BFE70398FEF7BF
:101D70005DFA2820BAE70000450000205C650020DD
:101D800052000020704770472DE9F04705460F4686
:101D900014464FF000090CB9BDE8F0873F2D04DD73
:101DA000FF2D02D02A202070F6E717B90C202070F2
:101DB000F2E71D480078002802DD12202070EBE7D2
:101DC000FEF730FA8146FF2D03D11848006890F8DD
:101DD0002E50174850F825602EB94846FEF726FACF
:101DE00043202070D8E7012E05D14846FEF71EFAA1
:101DF00043202070D0E7384600F02CFC8046B8F134
:101E00000F0F05DD4846FEF711FA41202070C3E7A9
:101E1000394606F1480000F00FFC4846FEF706FA86
:101E20000020207000BFB7E74500002058000020C8
:101E30005C650020704770B5044610464FF0807511
:101E40000560051F28462C606FF00106051F284617
:101E50002E604FF01236051F28462E604FF00336D5
:101E6000051F28462E604FF00236051F28462E60BB
:101E70007610051F28462E60051F284629604FF062
:101E80001136051F28462E604FF01036051F2846D4
:101E90002E604FF00936051F28462E604FF0083699
:101EA000051F28462E604FF00736051F28462E6076
:101EB0004FF00636051F28462E604FF00536051FE9
:101EC00028462E604FF00436051F28462E6070BD50
:101ED0007047000070B505460026164800780028B7
:101EE00000DD70BD002D23DDFEF79CF9064612488B
:101EF000006890F830401148005D0F49096891F87A
:101F0000311088430D4908550846005D40B90A481C
:101F1000006890F832100A48007888430849087031
:101F20000548006845853046FEF780F900F034FB2F
:101F300000BFD6E745000020580000204A000020DE
:101F4000490000202DE9F04780460D4616461C4604
:101F500024480078002802DD5520BDE8F087B8F15C
:101F6000000F04D11DB916B90CB95420F5E73B2D6B
:101F700001DD5120F1E73B2E01DD5220EDE7B4F504
:101F80007A7F01DB5320E8E74FF47A7060434FF427
:101F90007A71B0FBF1F14FF4616008FB00F0C5EB22
:101FA000051200EB8200304400EB4002C2EBC0108F
:101FB00001EBC0074FEA1749BFB23846FFF78AFF67
:101FC0000BE04FF40040FFF785FF4FF40040FFF7B0
:101FD00081FFA9F101001FFA80F9B9F1000FF0DCCF
:101FE0000020BAE74500002070B50025FEF71AF979
:101FF0000546034804682846FEF718F9204670BDD8
:102000007400002070B5002600F076F8FEF70AF99B
:10201000064633480068401C314908603046FEF7E8
:1020200005F930480078012858D12F48007820B1B0
:10203000012804D0022809D103E001250BE0002586
:1020400009E0012501202849087004E0012500204D
:102050002549087000BF00BF05B970BD234804685A
:1020600038E0FEF7DFF80646608D78B3608D401EDD
:102070000004000C608529D194F82C0010F0370F73
:1020800009D014F82C0F20F0370020700120607068
:10209000A4F12C0402E0002084F82D0094F82C0018
:1020A00010F0080F12D104F13004A078104909781B
:1020B00040EA01000E49087020780E49085C6178FA
:1020C00040EA010014F830190A4A50546469304655
:1020D000FEF7ACF894F82E003F28C2D100BFBCE751
:1020E00074000020520000206800002064000020DE
:1020F000490000204A00002070470000124A126880
:1021000092F8301000F10B02525C0F4B1B6893F8F1
:1021100031309A4300F10B035A541A46525C32B9DB
:10212000827A094B1B6893F832309A4382720022FC
:10213000054B1B6883F82D20034B1B6883F82C206C
:10214000014B1B68DA617047580000202DE9F04709
:1021500004460D46164694F80A90DFF8BCA01AF81B
:1021600009204FF0010909FA02F909F0FF0804F10A
:102170000B0919F802901AF809704FF0010909FAD1
:1021800007F909F0FF0C07EBC20909F0FF0004F1A1
:102190000B0919F8029029EA0C0904F10B0A0AF854
:1021A0000290D14619F80290B9F1000F05D194F8C8
:1021B0000A9029EA080984F80A90DFF8609059F833
:1021C00020104FF00009A1F82A90C1F81C900D6270
:1021D00081F82D3091F82C9029EA060981F82C908D
:1021E00091F82C90B9F1000F13D1DFF8349099F8E1
:1021F000009049EA0809DFF828A08AF80090DFF883
:10220000249019F8029049EA0C09DFF818A00AF89E
:102210000290BDE8F08700009C7A00085C65002011
:10222000490000204A00002010B51B4A1268D06106
:10223000194A126892F83010184A525C164B1B6803
:1022400093F831309A43154B5A541A46525C42B9AE
:10225000114A126892F83230114A12789A43104BA0
:102260001A700D4A126892F8303000F10B02D25CFD
:10227000094B1B6893F831301A43074B1B6893F8DE
:10228000304000F10B031A55827A034B1B6893F818
:1022900032301A43827210BD580000204A000020DC
:1022A000490000200023837200F10B01002204E0AA
:1022B000002301F8013B531CDAB2082AF8DB70470F
:1022C00070B58C210F4800F01BF90E4C04F11C0670
:1022D00000250AE00020207066603F20A0720021E7
:1022E000E1721C341C36681C85B2042DF2DB002020
:1022F000207060603F20A0720021E1720148024915
:10230000086070BDD06000203400002030B54FF46C
:102310009061104800F0F4F80E4B03F124050024FE
:102320000AE0002018705D603F20D8740021197504
:1023300024332435601C84B21F2CF2DB002018707B
:1023400058603F20D874002119750248024908607E
:1023500030BD0000505C00203000002000200A4901
:1023600008600A4908700A4908700A4908700A4951
:1023700008700A4908600A4908600A4908600A4961
:1023800008600A490870704774000020450000206A
:102390004600002053000020520000202C000020A6
:1023A00054000020400000203C0000204400002099
:1023B00000220B4B1A700B49002004E0002201F8A8
:1023C000012B421CD0B20828F8DB0022064B1A7001
:1023D000064B1A70064B1A60064B1A6070470000D5
:1023E000490000204A00002047000020480000204B
:1023F000600000205800002030B54FF4F26114480E
:1024000000F07EF84FF48071124800F079F8104B1C
:1024100003F1580500240AE05D613F2083F848007D
:1024200000214920C15458335835601CC4B2152CC2
:10243000F2D3002058613F2083F848000021492052
:10244000C15400200449086001480449086030BDB7
:102450005C6600205C650020640000205C000020B9
:1024600000B587B00320002180220A4BCDE901325C
:10247000CDE903104FF6FF703F23074A009007484D
:10248000FFF724FC06AA06A13F20FFF77DFC07B05A
:1024900000BD00005C6300205865002095270008FF
:1024A00075432F4F532D49492049646C6500000046
:1024B00000B587B00320002180220A4BCDE901320C
:1024C000CDE903104FF6FE703E23074A00900748FF
:1024D000FFF7FCFB06AA06A13E20FFF755FC07B05C
:1024E00000BD00005C61002058630020B92700088F
:1024F00075432F4F532D49492053746174000000D8
:1025000004E0002200F8012B4A1E91B20029F8DCF9
:102510007047000070B5B4210F48FFF7F1FF0E4C73
:1025200000250DE0681C00EBC0000B4901EB8000AA
:1025300060603F202075002161752434681C85B2DD
:10254000042DEFDB002060603F20207500216175C5
:1025500001480249086070BDEC6D00206C0000204D
:1025600070B560210A48FFF7CBFF094C04F118064B
:10257000002504E0266018341836681C85B2032D47
:10258000F8DB0020206002480249086070BD0000AE
:10259000A06E00207000002010B50024FDF742FE60
:1025A000044613480078F8B912480078E0B900F002
:1025B0002DF811481149097850F821001049086098
:1025C0000E4800780F49097888420DD00C48006801
:1025D000406B401C0A49096848630B480068401C6E
:1025E00009490860FDF735FE2046FDF71FFE10BDC6
:1025F00045000020460000205C65002048000020C7
:1026000060000020470000202C0000200649074AF7
:102610001278885C0649095C034A515C01EBC001F1
:10262000044A1170704700009C7A0008490000209D
:102630004A000020480000200246002005E011F872
:10264000013B02F8013B431CD8B20B78002BF6D1BA
:10265000137070470146002002E0491C421CD0B2B2
:102660000A78002AF9D170472DE9F84F05460E4641
:1026700017469846DDE90BABDDF828900020009066
:10268000FDF7D0FD00903D480468002C71D054F84F
:10269000140F3A4908600098FDF7C8FD44F8146C1F
:1026A000A576002020766076E08244F810AC44F8ED
:1026B000089C44F80C7C24F804BC24F8028CE077D5
:1026C000E8102077217F01208840A07705F00700DF
:1026D000E076E17E0120884060770020A0602061E4
:1026E000E0602062A0626062E06220633F2084F8C4
:1026F0003400A4F114044FF000014FF049000155DB
:102700002046FFF78BFA2046FFF73CFBFDF78AFDDA
:1027100000901B4840F825401A480068606100207E
:10272000A0611848006810B1164800688461154817
:10273000046004F13004A0781349097840EA0100EC
:102740001149087020781149085C617840EA01005D
:1027500014F830190D4A50540D48007800F101006A
:102760000B4908700098FDF761FD0020BDE8F88F67
:10277000FFE70098FDF75AFD4220F7E75C000020D4
:102780005C65002064000020490000204A00002011
:1027900053000020002400BFFDF744FD0446054817
:1027A0000068401C034908602046FDF73FFDFFF725
:1027B000EAFAF1E754000020002700BF02E0C82039
:1027C000FFF788FB1A4800780028F8D019480068FD
:1027D0006421B0FBF1F400BFFDF724FD0746164865
:1027E000006816490860144806680020124908600D
:1027F0003846FDF71BFD6CB1B6FBF4F0C0F1640088
:1028000045B2002D02DB0E4805700BE000200C499C
:10281000087007E000200A49087006480068642133
:10282000B0FBF1F4FFF706FB6420FFF753FBD3E79F
:10283000440000203C000020540000204000002004
:102840003800002010B511480068047A032C01D02C
:10285000052C05D1FEF76CFA0C480068047A0EE0EE
:10286000072C05D10A490968C8688047082406E092
:10287000022C01D0042C01D1082400E008240349D3
:1028800009680C7200F01CF810BD000080010020E7
:1028900084010020F0B5561C7510074E06EB41046C
:1028A0002B4605E034F8047B20F8017B401C5B1EBE
:1028B000002BF7D1F0BD0000006000407047000021
:1028C00010B50D4890F82C10002000F07BFC0B4850
:1028D0000068007A082805D14002094908801020C4
:1028E0000849088005480068007A092801D10120BC
:1028F00010BD0020FCE70000EC000020800100205B
:10290000900100209201002010B5012001F0A0FCF0
:1029100001240B48046000200A490880084600880A
:10292000074908600020091D08604FF4E050054980
:1029300008800846008802490860002010BD000099
:10294000405C00408A0100200146D1E9000290422B
:1029500003D3D1E90002801A04E0D1E90020801AF3
:10296000C0F5807080B27047F0B503460E4615463C
:1029700000271846FFF7E8FF07467819FF2801DD12
:102980000020F0BD00240AE0315D03F108001A6860
:1029900081541878401CC0B21860601C84B2AC42EC
:1029A000F2DB2046EDE7F0B503460E46154600275C
:1029B0001846FFF7C9FF0746AF4200DAFDB2002410
:1029C0000AE003F108005968405C30551879401C52
:1029D000C0B25860601C84B2AC42F2DB2046F0BD4D
:1029E00010B503460C461846FFF7AEFF012801DA82
:1029F000002010BD03F108005968405C2070187970
:102A0000401CC0B258600120F3E7000001460020DE
:102A1000034A506820F4404008435060704700006B
:102A20000010024029B1064A52690243044B5A6120
:102A300004E0034A52698243014B5A617047000027
:102A40000010024029B1064AD2690243044BDA6100
:102A500004E0034AD2698243014BDA617047000007
:102A60000010024029B1064A12690243044B1A6160
:102A700004E0034A12698243014B1A617047000067
:102A80000010024029B1064A92690243044B9A6140
:102A900004E0034A92698243014B9A617047000047
:102AA0000010024029B1064AD2680243044BDA60A2
:102AB00004E0034AD2688243014BDA6070470000A9
:102AC000001002400348406A40F0807001494862AB
:102AD000704700000010024010B54FF4803000F045
:102AE000BDF800F015F91249087008460078012871
:102AF0001CD11020FEF790FB0220FEF725FC0020E1
:102B000000F0A0F8002000F0DDF84FF4806000F045
:102B1000CDF84FF48040FFF779FF4FF4A0114FF448
:102B2000803000F0E1F8012000F0D8F810BD00007E
:102B30001000002030B500210022002400232D4D7C
:102B40006D6805F00C0121B1042905D0082923D1B5
:102B500005E0294D056022E0274D05601FE0254D69
:102B60006D6805F47012022505EB9242214D6D68E7
:102B700005F480341CB9214D554305600BE01D4D13
:102B80006D6815F4003F03D01C4D5543056002E00D
:102B9000194D5543056002E0174D056000BF00BFA9
:102BA000144D6D6805F0F0010909154D6B5C056861
:102BB000DD4045600F4D6D6805F4E061090A104D78
:102BC0006B5C4568DD4085600A4D6D6805F46051B9
:102BD000C90A0B4D6B5C4568DD40C560054D6D68ED
:102BE00005F44041890B074D6B5CC568B5FBF3F5F7
:102BF000056130BD0010024000127A0000093D005E
:102C00004D7C00085D7C000810B5014600220023C1
:102C100000204A11012A02D1094C236806E0022A49
:102C200002D1074C236A01E0054C636A01F01F02E0
:102C3000012494401C4201D0012000E0002010BD7E
:102C40000010024001460020034A506820F0F000C6
:102C500008435060704700000010024011490968A5
:102C600021F480310F4A11601146096821F4802156
:102C70001160B0F5803F03D0B0F5802F0ED106E093
:102C80000849096841F48031064A116007E00549A6
:102C9000096841F4A021034A116000E000BF00BFB1
:102CA00070470000001002407047000001460020FD
:102CB000034A506820F4E060084350607047000009
:102CC0000010024001460020034A506820F4605082
:102CD00040EAC10050607047001002400149086698
:102CE000704700000000424202460020044B586832
:102CF00020F47C1042EA01031843014B58607047EE
:102D0000001002400149086070470000D8004242AC
:102D100010B5002400BF3120FFF776FF0C49087082
:102D20000C480068401C0B4908600948007828B925
:102D300008460068A0F58071FF39ECD13120FFF71B
:102D400063FF08B1012400E00024204610BD00000C
:102D50009801002094010020704700000249098872
:102D60008143014A11807047042800400146002039
:102D7000064A12880A40D0B2044A121F12880A4238
:102D800002D008B1012000E0002070470428004074
:102D900010B5FDF747FA044610480078401C0F496B
:102DA00008702046FDF742FA0120FFF7DFFF20B14F
:102DB0000120FFF7D3FF00F013F8FDF733FA0446C4
:102DC00006480078002804DD04480078401E0349C6
:102DD00008702046FDF72AFA10BD000045000020CB
:102DE00000BF0348008810F0200FFAD070470000A1
:102DF000042800407047000000B587B00020254936
:102E00000880254908701020ADF8180003208DF8BF
:102E10001A0010208DF81B0006A92048FEF7E2FAE0
:102E2000E020ADF8180003208DF81A0018208DF866
:102E30001B0006A91948FEF7D5FA0020ADF80400DA
:102E40004FF48270ADF806004FF40060ADF8080052
:102E50000220ADF80A000020ADF80C004FF400701D
:102E6000ADF80E003020ADF810000020ADF81200D3
:102E70000720ADF8140001A9094800F04AF9012122
:102E8000074800F004F910210448FEF73EFB07B0A4
:102E900000BD0000240000202600002000080140A2
:102EA0000030014010B56021074800F0FCF80648EA
:102EB00000F02AF90549088010210548FEF725FB96
:102EC00000200449087010BD00300140240000209B
:102ED000000801402600002010B504461248017881
:102EE0000078401E104A107021B902210F4800F0EE
:102EF000F2F808B9012010BDC8200B490870102154
:102F00000B48FEF700FB094800F0FEF8074800F008
:102F1000FBF82146054800F0FAF801226021034839
:102F200000F0E2F80020E6E7260000200030014033
:102F30000008014010B5FFF7B5FF10BD00B587B020
:102F4000002026490880264908704FF48050ADF8CB
:102F5000180003208DF81A0010208DF81B0006A918
:102F60002048FEF73FFA4FF46040ADF81800032008
:102F70008DF81A0018208DF81B0006A91948FEF7D5
:102F800031FA0020ADF804004FF48270ADF806006D
:102F90004FF40060ADF808000220ADF80A000020F0
:102FA000ADF80C004FF40070ADF80E002820ADF81D
:102FB00010000020ADF812000720ADF8140001A9A0
:102FC000094800F0A6F80121074800F060F84FF426
:102FD00080510448FEF799FA07B000BD2800002090
:102FE0002A000020000C01400038004010B560218C
:102FF000084800F058F8074800F086F806490880AD
:103000004FF480510548FEF780FA0020044908700B
:1030100010BD00000038004028000020000C0140D6
:103020002A00002010B50446134801780078401E9D
:10303000114A107021B90221104800F04CF808B96B
:10304000012010BDC8200C4908704FF480510C4875
:10305000FEF759FA094800F057F8084800F054F80C
:103060002146064800F053F801226021034800F091
:103070003BF80020E5E700002A000020003800406F
:10308000000C014010B5FFF7B1FF10BD704721B132
:10309000028842F04002028004E002884FF6BF73CB
:1030A0001A400280704710B50022552905D10389C6
:1030B000038843F0400303800CE0562901D05329D4
:1030C00001D1038906E001F00F040123A3409AB265
:1030D000D343038110BD0246002013890B4201D067
:1030E000012000E00020704730B5002400230C11BF
:1030F0000125A540ABB21AB185881D43858002E049
:1031000085889D43858030BD0146888970478181CF
:10311000704710B50022028802F441520B884C8897
:1031200023438C882343CC8823430C8923434C8935
:1031300023438C892343CC8923431A430280838B06
:103140004FF2FF74234083830B8A038210BD00007B
:103150004FF6F8710140014A11607047505C004021
:1031600030B501460C4B1A7800200DE0C3B20B4C71
:1031700054F8233048F68F742340C4B22343C4B2BA
:10318000064D45F82430401C9042EFD341F08003B7
:10319000024C4C34236030BDE8000020005C00404D
:1031A00010B54A105300054A126892B202EBC002F1
:1031B000121D034C44F8123010BD0000505C00405A
:1031C0000060004010B502460F48006880B200EB76
:1031D000C200801D0D4C04EB40033E290BDD48115D
:1031E00011F01F0F01D1441EA0B24FF4004444EA75
:1031F00080241C6007E0481011F0010F01D0441C2E
:10320000A0B284021C6010BD505C00400060004011
:1032100010B50A4B53F820304BF68F7403EA0402C2
:1032200011F4805F01D082F4805211F4005F01D06C
:1032300082F40052014B43F8202010BD005C004096
:10324000074A52F820204BF68F7302EA030181F4FB
:10325000805181F40051024A42F82010704700006A
:10326000005C004010B54A105300044A126892B244
:1032700002EBC002024C44F8123010BD505C00401A
:1032800000600040044A126892B202EBC002921C35
:10329000024B43F812107047505C00400060004041
:1032A00010B50A4B53F8203048F6BF7403EA040205
:1032B00011F0100F01D082F0100211F0200F01D098
:1032C00082F02002014B43F8202010BD005C00403A
:1032D000074A52F8202048F6BF7302EA030181F042
:1032E000100181F02001024A42F8201070470000CE
:1032F000005C0040054A52F8202048F68F131A401F
:103300000A43024B43F8202070470000005C004055
:1033100010B500F001F810BD0CB500200190009030
:103320003448006840F480303249086000BF3148BA
:10333000006800F4003000900198401C0190009853
:1033400020B90198A0F58071FF39F0D129480068B3
:1033500010F4003F02D00120009001E00020009016
:103360000098012843D12448006840F01000224909
:1033700008600846006820F00300086008460068FE
:1033800040F0020008601B4840681A49486008463F
:10339000406848600846406840F4806048600846DD
:1033A000406820F47C1048600846406840F4E8100B
:1033B00048600846006840F08070086000BF0D4813
:1033C000006810F0007FFAD00A48406820F003003F
:1033D000084948600846406840F00200486000BF65
:1033E0000448406800F00C000828F9D101E000BF53
:1033F000FEE70CBD001002400020024008B528483E
:10340000006880B2001D274931F8100080B201EB3E
:103410004000009024480068007A09282FD00098C6
:1034200000782149096808700098401C00900098B5
:1034300000781D49096848700098401C0090009869
:10344000801C0090009931F8020B0091FDF70FF9F4
:103450001549096848800098801C0090009931F84F
:10346000020B0091FDF703F90F4909688880009865
:10347000801C0090009800880B490968C8800120D2
:1034800009490968087208480068C08810B9FEF741
:10349000C5F901E0FDF7AAFCFFF712FA08BD00002C
:1034A000505C004000600040800100202DE9F047A2
:1034B00047480068007800F07F08B8F1000F0AD193
:1034C00043480068407A00F0DF00414909684872CB
:1034D0000020BDE8F087B8F1020F76D13C480068C3
:1034E000408818B93A480068007908B10220F0E72E
:1034F000DFF8E09036480068477927F080052C46D1
:1035000033480068407910F0800F05D0324850F8F9
:10351000240000F0300604E02F4850F8240000F4A6
:10352000405699F80000A84204D91EB12848006806
:10353000807A08B90220CCE717F0800F0ED0264819
:1035400050F8240000F03000102837D1E0B2FDF729
:1035500071FAE0B23021FFF7A3FE2FE01E4850F8C9
:10356000240000F44050B0F5805F27D1A4B91B4A75
:1035700092F82C10E0B2FFF725FE174951F82410FD
:103580004BF68F7201EA020080F4805080F4005004
:10359000114941F8240011E0E0B2FDF737FA0E4975
:1035A00051F824104BF68F7201EA020080F480502B
:1035B00080F40050084941F8240000BF0849096818
:1035C00048698047002084E7FFE700BF022080E7CA
:1035D00080010020E8000020005C0040EC0000209A
:1035E0008C01002010B504462CB901200649096859
:1035F0000882002010BD0549096808688047024814
:1036000000680A30F6E70000800100208C010020ED
:1036100010B5024606480068438A32B98888C01A45
:10362000034C24682082002010BD08681844FBE782
:103630008001002010B504462CB901200649096814
:103640000882002010BD0549096888688047024843
:1036500000680C30F6E70000800100208C0100209B
:1036600010B504462CB902203349096808820020AD
:1036700010BD0020314908802F480068007810F004
:103680007F0F1CD12C490968487A10F0200F05D013
:103690002A49097841F00201284A117010F0400FC0
:1036A00006D02649097801F0FE01244A117005E090
:1036B0002249097841F00101204A117036E01E4884
:1036C0000068007800F07F00012801D11B48CFE797
:1036D00019480068007800F07F00022824D1164ABB
:1036E0001268517901F00F0011F0800F0DD0144ACB
:1036F00052F8202002F03002102A14D10F4A12781A
:1037000042F001020D4B1A700DE00D4A52F82020D4
:1037100002F44052B2F5805F05D1084A127842F0B7
:103720000102064B1A7001E00020A1E70549096873
:103730000869804701489BE7800100207A0100204A
:10374000005C00408C01002010B50E480068C07875
:103750000D494978884213DC0A480068807878B9B6
:1037600008480068808858B906480068C07805494C
:10377000096888720549096848688047002010BDBB
:103780000220FCE780010020E80000208C010020DE
:1037900010B507480068407A40F0200004490968E5
:1037A000487204490968C8698047002010BD0000BC
:1037B000800100208C0100202DE9F04124480068A0
:1037C000467926F080073C4621480068407910F091
:1037D000800F05D01F4850F8240000F0300504E0A9
:1037E0001C4850F8240000F440551B480078A042C3
:1037F00008D917480068408820B91DB114480068EE
:10380000807A10B90220BDE8F08116F0800F0CD04C
:10381000104951F8241048F6BF7201EA020080F006
:1038200010000C4941F824000CE00A4951F824101A
:103830004BF68F7201EA020080F48050054941F88E
:10384000240000BF05490968886980470020DAE73D
:1038500080010020005C0040E80000208C01002076
:1038600010B5174B1B68D978154B1B685879154B49
:103870001B689A699047044611480068807AE8B14D
:103880003CB90F480068007918B90D480068807885
:1038900008B1022010BD8CB90B490968C86880477F
:1038A00007480068407906490968C87204480068FA
:1038B000C0780349096808730020EBE70220E9E7B4
:1038C00080010020840100208C010020704700004E
:1038D00010B51148006840F001000F490860084623
:1038E00040680E4908400C494860084600680C4989
:1038F0000840094908600846006820F480200860F4
:103900000846406820F4FE0048604FF41F008860BD
:10391000FFF7FEFC10BD0000001002400000FFF8A1
:10392000FFFFF6FE704770477047704710B50121E2
:10393000014800F091F810BD002C014010B5FCF7D3
:1039400071FC04460A480078401C0949087020466A
:10395000FCF76CFC0121880700F000F928B1FEF7A4
:1039600051FB0121880700F07AF8FEF711F810BD2D
:103970004500002010B5FCF755FC044612480078BD
:10398000401C114908702046FCF750FC00F032FB47
:1039900001210E4800F0E2F828B101210B4800F0A7
:1039A0005EF801F075FEFCF73DFC04460648007821
:1039B000002804DD04480078401E034908702046B2
:1039C000FCF734FC10BD000045000020000400405E
:1039D00010B5FCF727FC044610480078401C0F493E
:1039E00008702046FCF722FC01210D4800F0B6F8D3
:1039F00018B101210A4800F032F8FCF713FC044624
:103A000006480078002804DD04480078401E034979
:103A100008702046FCF70AFC10BD0000450000209D
:103A20000008004070477047704770477047704704
:103A300010B50121014800F00FF810BD003401401D
:103A400021B1028842F08002028004E0028840F244
:103A50007F331A4002807047CA4302827047CA43CC
:103A60000282704721B1028842F00102028004E024
:103A7000028840F2FE331A400280704710B50446B7
:103A80003449601A8C4245D00CDCB4F1804F1DD013
:103A90003148201823D0B0F5806F29D0B0F5006FE1
:103AA00054D12EE0B0F5806F3DD0B0F58E3F03D0FD
:103AB000B0F5923F4AD13FE00121C802FEF7F2FF84
:103AC00000214FF40060FEF7EDFF40E001210846C1
:103AD000FEF7C8FF00210120FEF7C4FF37E00121F7
:103AE0000220FEF7BFFF00210220FEF7BBFF2EE001
:103AF00001210420FEF7B6FF00210420FEF7B2FFEB
:103B000025E001210820FEF7ADFF00210820FEF787
:103B1000A9FF1CE001211020FEF7A4FF00211020C6
:103B2000FEF7A0FF13E001212020FEF79BFF0021FC
:103B30002020FEF797FF0AE001214803FEF7B2FFBD
:103B400000214FF40050FEF7ADFF00E000BF00BFC2
:103B500010BD00000010004000FCFFBF30B5024661
:103B6000002000230024158A05EA0103958905EA4F
:103B7000010413B10CB1012000E0002030BD1AB1E6
:103B800083890B43838102E083898B438381704760
:103B900070B5002400220023058C4FF6FE763540D8
:103BA0000584028C8388048B4FF68F752C400D881A
:103BB0002C43751E2A400D892A434D882A43CD88FF
:103BC00085860F4DA84202D00E4DA84213D14FF664
:103BD000F7752A404D892A434FF6FB752A408D8898
:103BE0002A4347F6FF652B4047F6FF552B408D894A
:103BF0002B43CD892B4383800483028470BD000056
:103C0000002C0140003401400A460021018B4FF690
:103C1000F7731940114301837047000070B5002409
:103C200000220023058C4FF6EF7635400584028C88
:103C30008388048B48F6FF752C400D884FF6FF767D
:103C400006EA05252C434FF6DF752A400D8906EA62
:103C500005152A434D8806EA05152A43CD880587B0
:103C6000134DA84202D0134DA8421DD14FF67F75C7
:103C70002A404D894FF6FF7606EA05152A434FF68E
:103C8000BF752A408D8806EA05152A4347F6FF3599
:103C90002B4047F2FF752B408D8906EA85052B43A3
:103CA000CD8906EA85052B4383800483028470BD99
:103CB000002C0140003401400A460021018B4FF2E4
:103CC000FF7319404FF6FF7303EA02231943018380
:103CD0007047000070B5002400220023058C4FF6C9
:103CE000FF6635400584028C8388848B4FF68F7580
:103CF0002C400D882C434FF6FF552A400D894FF676
:103D0000FF7606EA05252A434D8806EA05252A435B
:103D1000CD888587134DA84202D0134DA8421DD1EE
:103D20004FF2FF752A404D894FF6FF7606EA0525CA
:103D30002A434FF6FF352A408D8806EA05252A4397
:103D400046F6FF752B4045F6FF752B408D8906EA38
:103D500005152B43CD8906EA05152B438380848303
:103D6000028470BD002C0140003401400A4600214D
:103D7000818B4FF6F7731940114381837047000020
:103D800070B5002400220023058C4EF6FF763540E6
:103D90000584028C8388848B48F6FF752C400D883F
:103DA0004FF6FF7606EA05252C434DF6FF752A40AF
:103DB0000D8906EA05352A434D8806EA05352A436A
:103DC000CD88A0F84050094DA84202D0084DA84225
:103DD00007D1C3F30D038D894FF6FF7606EA8515EB
:103DE0002B4383808483028470BD0000002C01403B
:103DF000003401400A460021818B4FF2FF731940C5
:103E00004FF6FF7303EA02231943818370478184CD
:103E100070470000028802F08F0202800A898B88B6
:103E20001A4303881A430280CA8882850A88028559
:103E300001228282044A904202D0044A904201D177
:103E40008A7A028670470000002C0140003401404D
:103E500000202F490870FCF7C1FB0020FDF7E2FDB0
:103E60002C4908600020FDF7DDFD2B490860042384
:103E70002A4A00212A48FDF7D3FE0523294A0021BA
:103E80002948FDF7CDFE0623284A00212848FDF7E2
:103E9000C7FE0723274A00212748FDF7C1FE082354
:103EA000264A00212648FDF7BBFE64230022114666
:103EB0001046FEF747F800F073FE64230022114617
:103EC0001046FEF73FF80120114908701FE001F08D
:103ED000EBF800F0B9FC6423002211461046FEF70F
:103EE00031F800F09BFD054601F0C4F9054300F0F0
:103EF0008FFC45EA000454B9022404E05020FDF789
:103F0000E9FFFDF7ABFB2000A4F10104F6D1DEE7E9
:103F10000000002004000020080000209819002064
:103F2000AD5C000898290020955D000898390020B4
:103F3000DD5D000898490020215E000898590020A6
:103F4000615E00080EB54FF08040FFF797FD40F22C
:103F5000E730ADF80600472000900020ADF80800DB
:103F6000ADF8040069464FF08040FFF753FF012190
:103F70008807FFF771FD00214FF08040FFF760FDDB
:103F8000012211469007FFF7FAFD01218807FFF78C
:103F900069FD0EBD3EB51648FFF770FD1E240A2CC4
:103FA00000DA0A24601E80B2ADF8060047200090B7
:103FB0000020ADF80800ADF8040069460C48FFF792
:103FC00029FF01210A48FFF747FD00210848FFF7B4
:103FD00037FD012211460648FFF7D1FD00210448B4
:103FE000FFF715FF00210248FFF73CFD3EBD000032
:103FF0000004004010B500210348FFF708FF01212D
:104000000148FFF72FFD10BD0004004070477047C6
:1040100010B502F055FC10BD70477047CA430280CE
:10402000704721B1828942F40052828104E0828982
:104030004DF6FF731A4082817047000010B5314879
:10404000007920B1012806D002280ED108E0002016
:104050002D49C8800DE04FF440502B49C88008E03E
:104060004FF400502849C88003E000F051F80020C8
:1040700010BD00BF2348407920B1012806D0022896
:104080000ED108E00020204908810DE04FF4806047
:104090001D49088108E04FF4C0601B49088103E016
:1040A00000F036F80020E3E700BF164880790728C3
:1040B00002D0082810D103E00020134988800FE0C7
:1040C0001148008918B900200F49888003E04FF497
:1040D00080500D49888003E000F01AF80020C7E7FF
:1040E00000BF0848006808490860002088810C204B
:1040F0004881064800F054F801210448FFF791FF79
:104100000120B5E7E0000020006F002000380140EA
:1041100010B54FF416500B49086000208880C88005
:104120004FF4C0600881002088810C204881064837
:1041300000F036F8012240F22551034800F00FF854
:1041400010BD0000006F0020003801400246002032
:1041500013880B4201D0012000E000207047F0B529
:10416000034600240026002500201846C1F342140F
:1041700001F01F06012707FA06F5012C01D10C30CA
:1041800004E0022C01D1103000E014301AB10768AD
:104190002F43076002E00768AF430760F0BD0000EF
:1041A0002DE9F04786B005460E460024A24600BF22
:1041B00000BF00272F462C8A4CF6FF700440F08881
:1041C00004432C82AC894EF6F3100440B088318948
:1041D0000843718908430443AC81AC8A4FF6FF4021
:1041E0000440B0890443AC8201A8FEF7A3FC124846
:1041F000874202D1DDF810A001E0DDF80CA00AEB47
:10420000CA0000EB0A1031688900B0FBF1F86420A5
:10421000B8FBF0F004012009642101FB1089322071
:1042200000EB0910B0FBF1F000F00F0004432C810B
:1042300006B0BDE8F08700000038014001468888DC
:10424000C0F308007047C1F30802828070477047CE
:1042500010B504462CB14FF480410548FDF753F9E1
:1042600004E04FF480410248FDF74FF910BD000013
:10427000000C01407047000010B50848084908606C
:10428000022009680872074807490860074808497A
:104290000860054909680868804710BD906F0020D4
:1042A00080010020EC000020840100201C0100207F
:1042B0008C01002008B54FF4C060FDF7A5FA14206A
:1042C0008DF8000000208DF801008DF8020001201B
:1042D0008DF803006846FDF745FA25208DF80000AB
:1042E00001208DF801006846FDF73CFA08BD00008A
:1042F00010B517480068174908800846008800F480
:10430000806015490988084206D04FF6FF301049F1
:1043100008601249486880470E48008800F4007021
:104320000D490988084208D04FF6FF500849086037
:104330000B480078401C0A4908700648008800F4C1
:10434000004005490988084201D0FCF7D9F910BDA1
:10435000445C0040D80000208A010020EC000020CE
:104360009C00002010B5FFF7C3FF0648006840B16D
:1043700004480068C1B2044800F0CCFD00200149A7
:10438000086010BD94000020506F0020F0B5144666
:1043900004F1010C4FEA6C07DFF824C00CEB410379
:1043A0003D460AE00678401C90F800C046EA0C2220
:1043B00023F8022B9B1C401C6D1E002DF2D1F0BD7A
:1043C0000060004070B504460025212C08D1124839
:1043D0000068007800F07F0021280ED10F4D0CE01E
:1043E000202C0AD10C480068007800F07F002128BA
:1043F00000D10B4D20200B4908700DB9022070BD73
:10440000054800688561002103480068418200205A
:10441000A8470020F3E70000800100205144000875
:10442000E1450008DC00002010B5044602492046A2
:10443000FFF7EEF810BD00004801002010B504465B
:1044400002492046FFF7E4F810BD000040010020BB
:10445000014629B90820034A1268108200207047DB
:104460000148FCE780010020E000002070B505460F
:1044700006480068C478042C01DD002070BD0448A3
:1044800000EBC4012846FFF7C3F8F7E780010020DE
:10449000500100200246002901DD02207047012A58
:1044A00001DD0220FAE70020F8E700000146084895
:1044B0000068007800F07F00212807D1022901D18F
:1044C00000207047222901D10020FAE70220F8E7F6
:1044D0008001002010B500203449096888723448F2
:1044E000C079324909684872002030490968C872A9
:1044F000FEF72EFE4FF400710020FEF7FBFE1021A8
:104500000020FEF7CDFE40210020FEF749FE80216D
:104510000020FEF7A7FE0020FCF7A0FA254890F83F
:104520002C100020FEF74EFE0020FEF789FE002131
:104530000120FEF7DFFEC0210120FEF793FE2021BF
:104540000120FEF7ADFE00210120FEF761FE4FF4D1
:10455000C0610220FEF7CEFE4FF480710220FEF70C
:1045600081FE00210220FEF753FE20210220FEF7EB
:1045700097FE00210320FEF7BDFE4FF48871032053
:10458000FEF70EFE40210320FEF71CFE4FF44051C3
:104590000320FEF73DFE00210320FEF781FE0020F0
:1045A000FEF7DEFD01200449086010BD80010020F7
:1045B000AE7B0008EC000020700100200348817AE7
:1045C00011B10521024A116070470000906F002070
:1045D000700100200420014908607047700100202C
:1045E000014629B90820034A12681082002070474A
:1045F0000148FCE780010020E000002010B50548DC
:104600000078202804D1FFF719FD00200149087027
:1046100010BD0000DC0000207047000010B5FCF762
:10462000A9FF00200A4909688872FEF76DF9002089
:10463000084908604FF4064007490880084600888A
:104640000449091F086000200449086010BD0000EB
:1046500080010020445C00408A010020700100209D
:10466000704700000146022901DB034870470348F8
:1046700000EBC1004068F9E700007AC4405C00200C
:1046800038B5FEF7B9FBFEF759FC4FF480700A49C4
:1046900008804000088100240BE0074931F834000D
:1046A0000222694600F010FB204600F007F8601C6B
:1046B000C4B2022CF1DB38BD405C00202DE9F05F74
:1046C0008246BAF1000F03D0BAF1010F15D10AE00A
:1046D0004AF25A50FEF700FC08B1BDE8F09F1348BB
:1046E000B0F800B00AE04AF25A50FEF79BFC00B165
:1046F000F3E70F48B0F800B000E0EEE700BFCBF3FF
:10470000491002F0EEFB804600220A4B02F050FCFA
:1047100006460022084B02F05DFA044602F074F9E6
:10472000064901EBCA01486000BFD6E7240000201B
:10473000280000200080764000009040405C00206F
:1047400010B5FBF73DFFFCF7ABF9FBF7FDFE0121D0
:104750000348FBF7E8FE01210248FCF796F910BD7B
:10476000002401400800024037B59DF8030070386E
:10477000062843D2DFE800F0030417422A2B41E069
:1047800000208DF8050001208DF8060020208DF80E
:10479000070015218DF8081012218DF80910162137
:1047A0008DF80A102EE000208DF8050001208DF80C
:1047B000060020208DF8070016218DF8081004212E
:1047C0008DF8091008218DF80A101BE01AE09DF8F9
:1047D0000410491EC8B200F03FFD044601208DF8C8
:1047E0000600200E8DF80700210C8DF80810210A14
:1047F0008DF80910E1B28DF80A1003E003208DF85E
:10480000050000BF00BF684600F01EFC00203EBD52
:1048100070B500F005FA0346012000F01DFD83EAA3
:104820000004012000F0E8FC05460548066884EA1B
:10483000050070430349B0FBF1F201FB120070BDAB
:1048400008080140FFE0F5050EB502211048FCF70D
:1048500051FE90F0010011D00E48007870B9684602
:1048600000F0BAF904208DF8030001208DF806004D
:1048700001218DF80A10684600F0E6FB0221044889
:10488000FCF738FE80F00100024908700EBD000000
:10489000000801401200002008B50C20ADF800000F
:1048A00018208DF8030003208DF8020069460D489A
:1048B000FCF798FD002000F081F8012000F07EF860
:1048C00000200949087001204870002088700121EB
:1048D0000548C17042F2107001F080FF01F0E0FA6B
:1048E00008BD0000000801400C00002037B59DF80D
:1048F0000400401EC4B2022C01DB04203EBD9DF822
:104900000300902804D0912803D092281DD118E0EC
:104910001DE09DF80A00012803DB9DF80A0003282A
:1049200001DD0520EAE79DF80A00401E094911F85B
:104930001000094901EB44014870204600F00EF8D0
:1049400005E0204600F03AF801E00320D6E700BF7A
:104950000020D3E7967A00080C00002070B50446CA
:1049600014B1012C20D10FE0134800EB4400407833
:1049700042F210714843642190FBF1F085B2294660
:10498000032001F0EBFE0FE00B4800EB4400407801
:1049900042F210714843642190FBF1F085B2294640
:1049A000042001F0DBFE00BF00BF0120024901F836
:1049B000140001F033FF70BD0C00002010B5044658
:1049C00014B1012C0AD104E00021032001F0C6FE3D
:1049D00004E00021042001F0C1FE00BF00BF002060
:1049E000024901F8140001F019FF10BD0C0000206D
:1049F00008B500200090FF20009002E00098401EC3
:104A0000009000980028F9D108BD41F218514843A0
:104A100000BF0100A0F10100FBD1704770B500F0AC
:104A200085FB0346002000F017FC4340012000F006
:104A300013FC83EA0004002000F0DEFB054684EA54
:104A4000050070BD37B59DF8070001069DF8080008
:104A500041EA00419DF8090041EA00209DF80A1052
:104A600040EA01049DF80300D1380A2859D2DFE852
:104A700000F005101B27333F44494E539DF80400B6
:104A800018B1002000F0B8FB01E000F04FFB044635
:104A90004BE09DF8040018B1012000F0ADFB01E0EF
:104AA00000F0BEF8044640E09DF8040018B1022072
:104AB00000F0A2FB02E0002000F0CEFB044634E050
:104AC0009DF8040018B1032000F096FB02E00120DD
:104AD00000F0C2FB044628E09DF8040018B1042051
:104AE00000F08AFB02E0022000F0B6FB04461CE066
:104AF0000021204601F074FF17E00121204601F05B
:104B00006FFF12E00221204601F06AFF0DE0032151
:104B1000204601F065FF08E00421204601F060FF17
:104B200003E003208DF8050000BF00BF01208DF8D1
:104B30000600200E8DF80700210C8DF80810210AC0
:104B40008DF80910E1B28DF80A10684600F07CFA81
:104B50003EBD000008B50820ADF8000010208DF81B
:104B6000030003208DF8020069460448FCF73AFC74
:104B700008210248FCF7C7FC08BD000000140140F2
:104B800010B5044624B108210448FCF7BEFC03E03C
:104B900008210248FCF7B7FC10BD000000140140DA
:104BA00010B5FCF7DDFB0120FCF778FBFCF72AFBD6
:104BB00010BD10B504462078FF2802D16078FF2888
:104BC00001D0012010BD0C21204600F01EF808B1D4
:104BD0000220F7E70020F5E70021016041608160D5
:104BE000FF2101704170B021817001210171704776
:104BF00010B50446FF2020706070B020A0700B211B
:104C0000204600F002F8E07210BD10B50246002008
:104C100001E0535C58400B00A1F10101F9D110BD36
:104C200000B54FF0006301200D49886003E00C4996
:104C3000186808601B1D0B488342F8D3002000F061
:104C40000BFB07490860012000F006FB04490860DF
:104C5000022000F001FB024908600846006800BD20
:104C6000003002400000010810B5002440210C482B
:104C7000FCF74BFC0220FFF7C8FE01E0601C84B289
:104C800080210748FCF736FC10B1B4F52C7FF5DB2A
:104C900040210348FCF737FC0220FFF7B6FE10BDA9
:104CA000000C014008B5C020ADF8000003208DF8CD
:104CB000020014208DF8030069460248FCF792FBBD
:104CC00008BD0000000C01402DE9F04105460E46EC
:104CD0001746002421E000F065F8A22000F0BEF89D
:104CE000FFF7C2FF2919C1F3072000F0B7F8FFF75B
:104CF000BBFF2919C8B200F0B1F8FFF7B5FF00F00B
:104D000051F8A32000F0AAF8FFF7AEFF00F00AF870
:104D1000305500F061F8601C84B2BC42DBDB2046F9
:104D2000BDE8F08170B5002480211D48FCF7EDFB43
:104D30000220FFF76AFE40211948FCF7E4FB02203D
:104D4000FFF763FE002519E040211548FCF7DDFB65
:104D50000220FFF75AFE80211148FCF7CBFB40EA06
:104D60004400C4B20220FFF750FE40210C48FCF77B
:104D7000CAFB0220FFF749FE681CC5B2082DE3DB21
:104D800080210748FCF7C1FB0220FFF73EFE4021CF
:104D90000348FCF7B8FB0220FFF737FE204670BD42
:104DA000000C014010B580210A48FCF7AEFB022040
:104DB000FFF72BFE40210748FCF7A7FB0220FFF777
:104DC00024FE80210348FCF79EFB0220FFF71DFE16
:104DD00010BD0000000C014010B580210A48FCF70E
:104DE00092FB0220FFF711FE40210748FCF78DFBE4
:104DF0000220FFF70AFE80210348FCF786FB022011
:104E0000FFF703FE10BD0000000C01402DE9F0414A
:104E100005460E46174600241CE0FFF7C3FFA220FC
:104E200000F01CF8FFF720FF2919C1F3072000F05C
:104E300015F8FFF719FF2919C8B200F00FF8FFF7AE
:104E400013FF305D00F00AF8FFF70EFFFFF7C4FF15
:104E5000601C84B2BC42E0DBBDE8F08170B5044662
:104E600040211848FCF74FFB0220FFF7CEFD00253C
:104E70001DE014F0800F04D080211248FCF745FBA0
:104E800003E080210F48FCF73EFB6006040E402142
:104E90000C48FCF73AFB0220FFF7B7FD4021094818
:104EA000FCF731FB0220FFF7B0FD681C85B2082D2E
:104EB000DFDB80210348FCF728FB0220FFF7A5FD7C
:104EC00070BD0000000C014008B54FF40060ADF863
:104ED000000010208DF8030003208DF802006946C1
:104EE0000248FCF77FFAFCF7A5FB08BD0010014063
:104EF00010B5FCF733FD1E23044A00210448FCF7DB
:104F00008FFEFCF767FE002010BD0000980900200E
:104F1000513E00082DE9F04104460D46FDF764F8C6
:104F200006460D480068301A642803D900200B4952
:104F300008604860084806602A4621460748FDF791
:104F400013FD074600F00EF818B105480068FCF79D
:104F500011FE3846BDE8F08114000020A45A00205C
:104F60000400002010B50248FDF7EEFC10BD000063
:104F7000A45A00207FB505460024FFF7F3FF0C2854
:104F800002DA012004B070BD3AE003A91F48FDF722
:104F900027FD5CB99DF80C00FF2831D19DF80C204D
:104FA0002046611C8CB20DF8002029E0012C11D1A3
:104FB0009DF80C00FF2805D0FF222046611C8CB212
:104FC0000DF800209DF80C202046611C8CB20DF8D5
:104FD000002015E09DF80C202046611C8CB20DF8D5
:104FE00000200C2C0CDB6846FFF7E3FD38B9009875
:104FF0002860019868600298A8600020C2E7002439
:10500000FFF7B0FF0028C0D10120BBE7A45A002061
:1050100030B5C1B000F040F8C5B22A4601A9094830
:10502000FDF7C1FC04462246C02101A8FFF7AEF9F6
:1050300021460120FEF726F90120FEF749F941B08B
:1050400030BD00009C59002070B5044600250026A4
:105050002046FFF7CDFD13E0FBF7E4F806460C22EF
:1050600021460B48FDF780FCC5B23046FBF7DEF861
:1050700035B908480068FCF77DFD6420FCF72AFF7D
:10508000002DE9D003480068FCF774FD70BD0000F6
:105090009C5900200800002010B50248FDF754FC80
:1050A00010BD00009C59002010B54FF40071084855
:1050B000FCF720FA18B100200649087007E00548FF
:1050C000007820B94FF480710148FCF71CFA10BD3C
:1050D000001001401100002008B54FF48070ADF8B9
:1050E000000010208DF8030003208DF802006946AF
:1050F0000C48FCF777F94FF480710A48FCF705FA81
:105100004FF40070ADF8000004208DF80300032078
:105110008DF8020069460348FCF764F90120024952
:10512000087008BD001001401100002000487047C1
:105130005948535930B58FB00546FCF711F9002492
:1051400005E02C4820584DF80400201DC4B2142C52
:10515000F7DBFCF757F8002413E004F113001421E7
:1051600090FBF1F201FB12001DF80000C02101EAE2
:1051700080101DF8041040EA910005A90855601C34
:10518000C4B2142CE9DB002419E004F1130014214B
:1051900090FBF1F201FB120005A9085CF02101EA85
:1051A0000011601C142290FBF2F302FB130005AA0D
:1051B000105C41EA10100AA90855601CC4B2142CF6
:1051C000E3DB002411E02046E11704EB917104EBCE
:1051D000840202EBA101142291FBF2F302FB1311F2
:1051E0000AAA515C2955601CC4B2142CEBDB0FB029
:1051F00030BD00000000010830B585B00446002530
:10520000052C02DD002005B030BD6846FFF792FF97
:105210005DF82450052C17D2DFE804F003090F10C5
:105220001100022000F018F86840C5430CE002208D
:1052300000F012F86840C54306E000BF00BFFFF76A
:1052400075FF6840C54300BF00BF0248454028467F
:10525000D9E70000CDAB79350146022901DD0020F8
:1052600070470348042202FB01000068F8E70000D1
:10527000E8F7FF1F2DE9F0470220FFF7BDFF0446C6
:105280000320FFF7B9FF05460420FFF7B5FF0646E8
:105290000020FFF7E1FF03460120FFF7DDFF83EA6F
:1052A00000070120FFF7D8FF03460220FFF7D4FFD5
:1052B00083EA00080220FFF7CFFF03460020FFF734
:1052C000CBFF83EA00090A48D0F800A084EA07006F
:1052D00085EA0801014486EA0900084400FB0AF057
:1052E0000449B0FBF1F201FB1200BDE8F0870000B9
:1052F000080C0140FFE0F5050021C0EB00120A4B4D
:1053000003EB820211750022C0EB001103EB810157
:105310008A61C0EB001103EB8101CA61C0EB00118F
:1053200003EB81010A857047AC5B002070B5044631
:1053300084BBC4EB04124A4B03EB82029168C4EBBA
:10534000041203EB8202506802F030FB0546002194
:10535000284602F0EFF904D24249284602F07EF8CE
:1053600005460020C4EB04113D4A02EB8101487060
:105370003D49284602F0DEFA6FD20120C4EB041149
:10538000374A02EB810148702946364802F00EFB8D
:10539000054662E0FFE7012C5ED1C4EB0411304A00
:1053A00002EB81018868314902F0C4FA1AD2002068
:1053B000C4EB04112A4A02EB81014870C4EB0411CA
:1053C00002EB81014868274902F048F80646C4EB21
:1053D0000410234A02EB80008168304602F0E6FAAE
:1053E00005463AE0C4EB04121D4B03EB82029168C0
:1053F000C4EB041203EB8202506802F09BFA15D250
:105400000020C4EB0411164A02EB81014870C4EB82
:105410000412134B03EB82029168C4EB041203EBFA
:105420008202506802F0C2FA054616E00120C4EB81
:1054300004110B4A02EB81014870C4EB0412084BC3
:1054400003EB82025168C4EB041203EB8202906802
:1054500002F0ACFA054600E00025284670BD0000C9
:10546000AC5B00200000B443000034430000AF43B5
:1054700038B54FF46740ADF8000010208DF80300F8
:1054800003208DF8020069462648FBF7ABFF4FF476
:1054900000502549888141002348C181490001828B
:1054A0000020FCF7BFFA204988634FF480711E4842
:1054B000A0F848104900A0F84A104900A0F84C1084
:1054C0000020FCF7AFFA014617484167FFF7D8F80C
:1054D000002424E02046FFF70FFF0020C4EB041156
:1054E000114A02F82100C4EB041102EB810148606B
:1054F0000E48C4EB041102EB8101C8620C49C4EBF5
:10550000041002EB800001634902C4EB041002EBBB
:1055100080004163204600F069FB601CC4B2022C8D
:10552000D8DB38BD00180140AC5B00200AD7A33B94
:10553000000020412DE9F04104460D462946204651
:1055400002F034FA80462946204602F0F3F804D2ED
:105550002946204602F01FFA80460C49404602F0D8
:10556000E9F904D241460A4802F020FA8046404652
:1055700001F048FF06460022064B01F017FE02D25A
:105580000120BDE8F0810020FBE70000000034436B
:105590000000B44300000840FEB504462046FFF773
:1055A000C5FE06463146204600F028F9054620464D
:1055B000FFF7BCFE06463146204600F01FF928449E
:1055C000C5B20020C4EB04112F4A02F8210081204B
:1055D0008DF80300601CC0B28DF80400C4EB041207
:1055E000294B03EB82025168C4EB041203EB8202E5
:1055F0009068FFF79FFF2844C0B28DF80500012096
:105600008DF80600C4EB04111F4A02EB8101886883
:105610001E4902F0C3F8064602F06CF8000E8DF841
:105620000700C4EB0411184A02EB8101886817498E
:1056300002F0B4F8064602F05DF8010C8DF808108F
:10564000C4EB0411104A02EB810188680F4902F093
:10565000A5F8064602F04EF8010A8DF80910C4EBD1
:105660000411094A02EB81018868084902F096F8A2
:10567000064602F03FF8C1B28DF80A106846FFF7FF
:10568000E3FC2846FEBD0000AC5B0020000020418A
:1056900010B50024AAE0C4EB0410564901EB8000C9
:1056A000007D00287DD0C4EB041001EB8000018D4B
:1056B000C4EB04104F4A02EB8000008D401E02B282
:1056C000C4EB04104B4B03EB80000285002969D129
:1056D000C4EB0410194601EB8000C269C4EB04104E
:1056E00001EB8000C069401EC4EB041103EB810193
:1056F000C861002A57D0C4EB041203EB8202516A3E
:10570000C4EB041203EB8202106A01F0A7FEC4EBA3
:105710000411384A02EB81010862C4EB0412354BD4
:1057200003EB8202516BC4EB041203EB8202106A9A
:1057300002F000F80CD2C4EB04102E4901EB8000FB
:10574000416BC4EB04102B4A02EB8000016219E0AC
:10575000C4EB0412274B03EB8202116BC4EB04125F
:1057600003EB8202106A02F0E5F80BD2C4EB0410DE
:10577000204901EB8000016BC4EB04101D4A02EBD1
:10578000800001621C480068C4EB0411194A02EB56
:105790008101C989484018490860204600F026FA6E
:1057A0000FE01EE020E00020C4EB0411114A02EBE0
:1057B00081010875C4EB041102EB8101886BFCF7D1
:1057C000D9F9C4EB04110B4A02EB8101086A01F01C
:1057D00075FF01B2C4EB0410064A02EB800001859C
:1057E00002E0204600F002FA601CC4B2022CFFF670
:1057F00052AF10BDAC5B00200C1801402DE9FF47F3
:1058000004468A4658480068C4EB0411574A02EB24
:1058100081018989884354490860C4EB041011460A
:1058200001EB8000407850B14F480068C4EB041190
:1058300002EB8101098A08434B4908600AE04A48A3
:105840000068C4EB0411494A02EB8101098A8843CC
:1058500045490860504601F0D5FD0022444BCDE992
:10586000000101F0A5FB07460022424B01F0B2F90E
:1058700005460022404B01F0F9F8CDE9020101F0A4
:1058800001FB4100C4EB0410384A02EB8000816147
:105890004FF00009C4EB041102EB8101C86A01F06A
:1058A000B1FD21F000410546344A354B01F07EFC44
:1058B0001AD2C4EB04122D4B03EB8202516BC4EBE2
:1058C000041203EB8202106B02F070F80646C4EB80
:1058D0000410264A02EB8000C16A304601F02CFE1B
:1058E000054601F007FF8146C4EB04101F4901EB98
:1058F00080008069B0EB490F16D8C4EB041001EBAF
:10590000800080694FEA50094946204600F0F8F8C7
:1059100018B1022004B0BDE8F0874946204600F0E7
:10592000D1F8F0B10220F5E74946204600F0E8F84A
:1059300008B10220EEE7C4EB04100C4A02EB800031
:105940008069022202FB1901204600F037F908B1F4
:105950000220DFE74946204600F0B4F808B10220F3
:10596000D8E70020D6E700000C180140AC5B00200F
:105970000000A940008076400000E03F2D431CEB72
:10598000E2361A3F2DE9F7439DF80400401EC4B2E9
:10599000022C02DB0420BDE8FE83C4EB0410454961
:1059A00011F82000012801D10220F4E7C4EB041013
:1059B000404911F8200008B10620ECE79DF80300EB
:1059C000802806D0812808D0822857D083286BD120
:1059D00063E0684600F01CF968E09DF807100A06CD
:1059E0009DF8081042EA01429DF8091042EA01219F
:1059F0009DF80A2041EA020001F073FA07460022EE
:105A00002D4B01F0E7F8054600F0FEFFC4EB041152
:105A1000284A02EB810148609DF80410C1EB011196
:105A200002EB81014868254901F084FF0FD99DF8F8
:105A30000400012814D19DF80410C1EB01111D4A86
:105A400002EB810148681E4901F074FF08D2002072
:105A5000C4EB0411174A02EB8101486005209AE764
:105A60000120C4EB0411134A02F82100C4EB041115
:105A700002EB8101886BFCF77DF817E00020C4EB96
:105A800004110C4A02EB81010875C4EB041102F801
:105A90002100684600F0BCF808E0684600F0B8F85D
:105AA000204600F0A3F801E0032074E700BF0020C7
:105AB00071E70000AC5B0020000024400000B4430C
:105AC0000000AA4338B504460D46C4EB04100B4948
:105AD00001EB80002946C26A204600F03FF8C4EB83
