:020000040800F2
:10000000187600203101000835010008370100088A
:10001000390100083B0100083D0100080000000014
:100020000000000000000000000000004101000886
:100030003F010008000000006B020008453800087E
:10004000C9450008ED2700089D380008E92C000884
:1000500091120008E92B00080D1100081911000881
:1000600027110008291100082B110008C50A0008F3
:10007000C70A0008C90A0008CB0A0008CD0A000810
:10008000CF0A0008D10A000821040008D541000861
:10009000C94200088B0600088D0600082D110008D3
:1000A0009F380008A5380008A3380008A1380008C8
:1000B000B5380008ED38000849390008AF150008C8
:1000C000AD150008B3150008B1150008612E000831
:1000D0007D2F0008713F0008793F00087B3F000832
:1000E00017110008992C0008AF410008A339000837
:1000F000A9390008A7390008A53900086B030008D2
:10010000871300084D2D00089D390008852F000831
:100110006D3F00086F3F00089F390008A1390008B3
:10012000BD0A0008BF0A0008C10A0008C30A000887
:1001300004480047FEE7FEE7FEE7FEE7FEE7FEE7CE
:10014000FEE700004901000800F002F800F05CF84A
:100150000AA090E8000C82448344AAF10107DA4522
:1001600001D100F051F8AFF2090EBAE80F0013F018
:10017000010F18BFFB1A43F0010318472078000055
:10018000407800000A444FF0000C10F8013B13F0D7
:10019000070408BF10F8014B1D1108BF10F8015BE0
:1001A000641E05D010F8016B641E01F8016BF9D1D3
:1001B00013F0080F1EBF10F8014BAD1C0C1B09D12A
:1001C0006D1E58BF01F801CBFAD505E014F8016B9C
:1001D00001F8016B6D1EF9D59142D6D3704700002E
:1001E0000023002400250026103A28BF78C1FBD840
:1001F000520728BF30C148BF0B6070471FB507F0DA
:1002000034FA1FBD10B510BD00F073F81146FFF7AA
:10021000F5FF04F001FE00F091F803B4FFF7F2FFE0
:1002200003BC00F09BF80000EFF3108072B670473B
:1002300080F31088704724484FF0FF0101700020C0
:1002400080F309881D480121017020484FF080513A
:10025000016062B6FEE71D484FF0805101607047B3
:100260001A484FF0805101607047EFF3098028B1C0
:10027000203880E8F00F12490968086000B50A4884
:1002800080475DF804EB0B480B490A7802700C4874
:100290000C490A680260106890E8F00F203080F383
:1002A00009884EF0040E7047C51E00088919000821
:1002B0003D0000203F000020400000204A000020B8
:1002C000500000205800002022ED00E004ED00E086
:1002D00002480349034A044B70470000187000208D
:1002E000187600201872002018720020704770479E
:1002F0007047754600F028F8AE460500694653463B
:1003000020F00700854618B020B5FFF7E1FFBDE8F3
:1003100020404FF000064FF000074FF000084FF06C
:10032000000B21F00701AC46ACE8C009ACE8C009FD
:10033000ACE8C009ACE8C0098D4670470446AFF38D
:1003400000802046FFF769FF00487047B46F002027
:1003500001487047704700BFB86F0020014918205E
:10036000ABBEFEE7260002007047704721B18268ED
:1003700042F00102826003E0826822F001028260A2
:10038000704721B1826842F48072826003E0826823
:1003900022F480728260704710B504461548201818
:1003A00006D0B0F5806F0DD0B0F5C05F1ED113E060
:1003B0000121480202F016FB00214FF4007002F008
:1003C00011FB14E00121880202F00CFB00214FF424
:1003D000806002F007FB0AE00121C80302F002FB83
:1003E00000214FF4004002F0FDFA00E000BF00BF22
:1003F00010BD000000DCFEBF014600208A6812F03C
:10040000040F01D0012000E00020704701460020C9
:100410008A6812F0080F01D0012000E00020704728
:100420007047000030B502460020002350680F4C92
:1004300020400D790C6844EA052420435060906800
:100440000B4C2040D1E902542C434D7944EA450439
:1004500020439060D06A20F470000C7C641E1C4322
:10046000E3B240EA0350D06230BD0000FFFEF0FF6F
:10047000FDF7F1FFF0B504460D4600200021092DDF
:1004800011DDE068A5F10A0606EB4607072606FA25
:1004900007F18843A5F10A0606EB460603FA06F1C2
:1004A0000843E0600CE0206905EB4507072606FAE3
:1004B00007F1884305EB450603FA06F1084320617E
:1004C000072A0FDA606B561E06EB86071F2606FA10
:1004D00007F18843561E06EB860605FA06F1084327
:1004E000606322E00D2A0FDA206BD61F06EB860729
:1004F0001F2606FA07F18843D61F06EB860605FA83
:1005000006F10843206310E0E06AA2F10D0606EB55
:1005100086071F2606FA07F18843A2F10D0606EBAF
:10052000860605FA06F10843E062F0BD816841F0F5
:1005300008018160704721B1826842F4A0028260A4
:1005400003E0826822F4A00282607047816841F073
:10055000040181607047000000B585B01B48FFF7BB
:100560001BFF0020009001208DF804008DF805008D
:100570004FF4602002900020039001208DF81000BD
:1005800069461248FFF74EFF072301220A210F4850
:10059000FFF770FF01210D48FFF7F3FE01210B4823
:1005A000FFF7E4FE0948FFF7C1FF00BF0748FFF768
:1005B0002DFF0028FAD10548FFF7C8FF00BF034808
:1005C000FFF71AFF0028FAD105B000BD0024014052
:1005D00008B50120ADF8000000208DF80300694641
:1005E000014800F0F1FE08BD0010014010B503F015
:1005F0002BF902F011FA0121412002F0B3F9012197
:100600000F2002F0BFF90121880302F0BBF901219C
:10061000480202F0D7F90121084602F0D3F901217E
:100620004FF4A04002F0CEF901214FF4FE7002F029
:10063000C9F90121C80502F0A5F9002002F002FB6A
:1006400004F0CCFC04F0D4FB04F01EFA04F0BAFA77
:1006500005F07AFF03F0CAFF04F018FE04F0C6F8B4
:1006600005F0F0FB03F01EFC03F044FC03F0D2FDA8
:1006700003F0B2FD00F0FBFF02F0C4F910BD01462B
:10068000CAB20B1243EA022070477047704707B5A1
:100690009DF8030030B1012805D002280BD00328B3
:1006A00021D114E023E000208DF805009DF80A0018
:1006B00004F000FA1BE09DF808109DF8072041EABD
:1006C000022002220DF1090104F08EFA0FE09DF8DC
:1006D00008109DF8072041EA022002220DF10901CD
:1006E00004F028FB03E003208DF8050000BF00BFE5
:1006F000684604F02BFC0EBD10B5002476E147F6E9
:10070000FF70C0490860C048008800F00F00BF4972
:10071000087008460078F0BBBD48006800F44050FF
:10072000BC490880BC48D0F8000C00F03000BB4940
:100730000880B749096889B24BF68F7201EA020056
:1007400080F40050B449C1F8000CB149096889B27D
:1007500048F6BF7201EA020080F02000AE49C1F8FD
:10076000000CA948008810F0100F3DD1A84800687F
:1007700080B248F60F7100EA0100A749C1F8000CE9
:1007800000F018FFA249096889B24BF68F7201EA9E
:100790000200A04900E0E9E0098811F4805F01D07F
:1007A00080F480509B49098811F4005F01D080F4E7
:1007B0000050974908609849D1F8001C89B248F662
:1007C000BF7201EA02009549098811F0100F01D0AB
:1007D00080F010009149098811F0200F01D080F0BD
:1007E00020008B49086010BD8948006884B214F06D
:1007F000800F3BD08648006880B248F60F7100EA4F
:1008000001008549C1F8000C00F0D4FE8049096858
:1008100089B24BF68F7201EA02007E49098811F411
:10082000805F01D080F480507A49098811F4005F1C
:1008300001D080F40050764908607749D1F8001C57
:1008400089B248F6BF7201EA02007449098811F0C2
:10085000100F01D080F010007049098811F0200FAE
:1008600001D080F020006A490860BCE714F4006FF2
:100870003CD067480068C0F30E0048F68F7100EA6C
:1008800001006549C1F8000C02F04EFD604909689D
:1008900089B24BF68F7201EA02005E49098811F4B1
:1008A000805F01D080F480505A49098811F4005FBC
:1008B00001D080F40050564908605749D1F8001C17
:1008C00089B248F6BF7201EA02005449098811F062
:1008D000100F01D080F010005049098811F0200F4E
:1008E00001D080F020004A4908607CE714F4004FF2
:1008F0007CD047480068C0F30E0048F68F7100EACC
:1009000001004549C1F8000C01F036FF4049096873
:1009100089B24BF68F7201EA02003E49098811F450
:10092000805F01D080F480503A49098811F4005F5B
:1009300001D080F40050364908603749D1F8001CD6
:1009400089B248F6BF7201EA02003449098811F001
:10095000100F01D080F010003049098811F0200FED
:1009600001D080F020002A4908603CE72748007841
:10097000294901EB8000D0F8000C84B214F4004F38
:1009800018D02248007801EB8000D0F8000CC0F3AA
:100990000E0048F68F7108401C4909781E4A02EB88
:1009A0008101C1F8000C19490978491E1C4A52F806
:1009B0002100804714F0800F18D0144800781649A1
:1009C00001EB8000D0F8000C80B248F60F710840AF
:1009D0000E490978104A02EB8101C1F8000C0B495D
:1009E0000978491E0F4A52F82100804705480068DF
:1009F00080B20549088010F4004F7FF480AE00BF3C
:100A0000F1E60000445C0040D000002074010020AA
:100A1000005C004088010020005000408A01002056
:100A2000B4000020980000200C4901EB8001D1F8AF
:100A3000001C11F4804F0FD0084901EB8001D1F860
:100A4000001C89B248F68F72114041F48041034A7C
:100A500002EB8002C2F8001C70470000005000400A
:100A60000C4901EB8001D1F8001C11F0400F0FD0B0
:100A7000084901EB8001D1F8001C89B248F68F7259
:100A8000114041F04001034A02EB8002C2F8001C11
:100A90007047000000500040074901EB8001D1F889
:100AA000001C89B248F68F621140034A02EB8002B3
:100AB000C2F8001C704700000050004070477047AB
:100AC000704770477047704770477047704770476E
:100AD000704721B1026842F00102026003E002683F
:100AE00022F001020260704700B58BB00F4800F0A1
:100AF00023F80F4800900F48019000200290012039
:100B00000390002004908020059040000690800013
:100B10000790202008900002099000200A90694662
:100B2000024800F0B1F80BB000BD00000800024020
:100B30004C2401401C000020016821F001010160EB
:100B40000021016041608160C1604A4A811A90427F
:100B50005BD012DC484AA0EB020190423AD007DC9D
:100B6000464941181BD0142922D028297FD128E0DA
:100B7000142938D028297AD13EE0B1F56C7F5DD0B8
:100B800006DCB1F5627F49D0B1F5677F6FD14DE0EA
:100B9000B1F5717F5AD0B1F5767F68D15FE0364903
:100BA0004439496841F00F01334A443A51605FE0EB
:100BB00031494439496841F0F0012F4A443A5160C3
:100BC00056E02D494439496841F470612A4A443A53
:100BD00051604DE028494439496841F47041264A42
:100BE000443A516044E024494439496841F4702151
:100BF000214A443A51603BE01F494439496841F475
:100C000070011D4A443A516032E01B494439496839
:100C100041F07061184A443A516029E01849096866
:100C200041F00F01174AC2F8041421E01449096881
:100C300041F0F001134AC2F8041419E010490968A0
:100C400041F470610F4AC2F8041411E00C490968BC
:100C500041F470410B4AC2F8041409E007E0084966
:100C6000096841F47021074AC2F8041400E000BF8B
:100C700000BF70478000024044000240F8FFFDBF03
:100C8000040402400000024010B50022026847F64A
:100C9000F0739A430C6A8B6823430C6923434C69B5
:100CA00023438C692343CC6923434C6A23438C6AD6
:100CB00023431A430260CB6843600B6883604B6830
:100CC000C36010BD2DE9F0472948006800F1100508
:100CD0002E8827480068077AEEB9042F1BD12548D3
:100CE0000078012812D100212348006880B200F169
:100CF0000200224A42F810104FF0300020490880CC
:100D000000BF4FF000001B49087003E007271020C8
:100D10001B49088027E0AC88A64201D8042000E0E7
:100D200002200746B44200D93446A0B2A9688847D9
:100D30008046002000F002FC8146A2B201464046F7
:100D400003F0D6FAA1B2002002F02CFA2888001B8A
:100D50002880688820446880302009490880000283
:100D60000849088000BF024909680F72BDE8F08792
:100D70007801002070010020505C004000600040BD
:100D80008A010020880100202DE9F04129480068EF
:100D900000F110042688A068C0B1BEB1A588B54294
:100DA00000D93546A8B2A168884707462088401B6D
:100DB0002080608828446080002000F09BFB8046F3
:100DC000AAB20146384601F0FFFC00BF208850B1AE
:100DD0004FF44050184908800021084602F0E2F91B
:100DE0003020164908802088A188884204DB03202F
:100DF0001049096808721AE02088002804DD0520DF
:100E00000C490968087212E0208880B90620094957
:100E10000968087200210A48006880B200F10200E7
:100E2000084A42F810104FF0300004490880BDE82D
:100E3000F081000078010020880100208A01002054
:100E4000505C0040006000402DE9F05F9848006869
:100E500045780027BA46062D1AD1954800680078D3
:100E600010F07F0F13D1924909688878012803D1C7
:100E700090490968CF690AE0022803D18D490968C1
:100E80000F6A04E0032802D18A4909684F6A91E099
:100E9000F5BB874800684088D0BB85480068C0889B
:100EA000022859D182480068007988BB80480068D0
:100EB000007810F07F0F05D17D480068808808B960
:100EC0007D4F77E07A480068007800F07F000128C5
:100ED0000ED1774909684879764909688A690021FD
:100EE0009047C0BB72480068807AA0B3724F61E03F
:100EF0006F480068007800F07F0002285AD16C48E3
:100F00000068407900F00F0669480068407900E009
:100F100022E000F0700966480068407910F0800F08
:100F200007D0664800EB8600D0F8000C00F03008CF
:100F300006E0624800EB8600D0F8000C00F4405850
:100F40005F480078B04235D9B9F1000F32D1B8F11D
:100F5000000F2FD0584F2DE0082D07D154480068BE
:100F6000007810F07F0F25D1564F23E00A2D21D1B4
:100F70004F480068007800F07F0001281AD14C48E3
:100F80000068807AB0B14A480068408890B9484803
:100F90000068007970B946480068C088012809D106
:100FA000434909684879434909688A69002190479B
:100FB00000B9454F57B13E480068A0F812A03C4820
:100FC000006887610020B84700240FE0384A1268A3
:100FD0005078384A1268116988470446032C05D1B5
:100FE0000920334909680872BDE8F09F304800685D
:100FF000008AA0F57F41FF3904D109202C490968F6
:101000000872F1E7022C03D029480068008A20B951
:101010000820274909680872E6E725480068007833
:1010200010F0800F3BD022480068B0F806B020488E
:101030000068008A584504D91D490968A1F810B014
:1010400023E01B480068008A19490968C98888425A
:101050001BDA17480068008A1649096891F82C10B5
:10106000884203DA0020194908700EE01048006831
:10107000008A1049096891F82C1090FBF1F201FBED
:10108000120010B90120114908700A48006890F850
:101090002C10074800688182FFF714FE06E0032049
:1010A00003490968087200030949088000BF9BE7EB
:1010B000780100207C010020B53500080050004078
:1010C000E000002039350008893500087001002053
:1010D000880100200020014908607047900000202E
:1010E00010B5032000F018FA0649086008460068A9
:1010F00082B24FF48871044801F066FB032002F0CD
:101100002BF810BD8C000020586F002010B5012076
:1011100000F00EF810BD704710B504F08FFD0220EE
:1011200000F006F810BD7047704770477047000028
:101130000149086070470000140401408179F1B34F
:101140002E49D1F80014026891432C4AC2F80014C9
:101150001146D1F8041402689143294A11600179BB
:10116000264A1144D1F80014026841EA02010279CA
:10117000224B1A44C2F800141946D1F80814026828
:1011800021EA02011A46C2F808141146D1F80C14DB
:10119000026821EA02011B4A11604179102912D12B
:1011A0001946D1F80814026811431A46C2F8081407
:1011B0001146D1F80C14026811431A4600E00FE002
:1011C000C2F80C1418E041790C4A1144D1F800140B
:1011D000026811434279094B1A44C2F800140BE02B
:1011E0000179064A1144D1F800140268914302794A
:1011F000024B1A44C2F8001470470000000001407E
:10120000040401400C04014070B50546042440F676
:10121000FF7000F0A3F80446042C19D10D480069B2
:1012200040F002000B49086108464561006940F042
:101230004000086140F6FF7000F090F80446012C71
:1012400006D00448006941F6FD7108400149086173
:10125000204670BD0020024004200C49C96801F0FE
:101260000101012901D101200EE00849C96811F0EE
:10127000040F01D0022007E00449C96811F0100FE3
:1012800001D0032000E0042070470000002002404D
:10129000704700000348006940F080000149086180
:1012A00070470000002002400549096821F0100144
:1012B000034A11601146096801431160704700003C
:1012C0000020024070B505460E4604240F2000F0B1
:1012D00045F80446042C25D11348006940F001006C
:1012E000114908612E800F2000F038F80446042CC4
:1012F0000FD1300C68800F2000F030F80446012C2C
:1013000010D00948006941F6FE710840064908619D
:1013100008E0012C06D00448006941F6FE7108403F
:1013200001490861204670BD0020024001460020AE
:10133000034A106800F0380008431060704700004E
:101340000020024002480349486003484860704753
:101350002301674500200240AB89EFCD70B50446FC
:101360000425FFF779FF054605E003F0EBFAFFF7E8
:1013700073FF0546641E012D01D1002CF5D104B97F
:101380000525284670BD704730B500228B071C0F1D
:101390000F2303FA04F20B4B8C1053F824309343C1
:1013A000084C8D1044F8253023468C1053F8243017
:1013B0008C07240F00FA04F42343024C8D1044F8E8
:1013C000253030BD080001402DE9F04102460025DE
:1013D0000026002000230024002791F803C00CF011
:1013E0000F0591F803C01CF0100F03D091F802C054
:1013F0004CEA0505B1F800C01CF0FF0F30D01468AE
:1014000000202AE04FF0010C0CFA00F3B1F800C004
:101410000CEA03069E421FD183004FF00F0C0CFA1A
:1014200003F7BC4305FA03FC4CEA040491F803C03B
:10143000BCF1280F05D14FF0010C0CFA00FCC2F8EA
:1014400014C091F803C0BCF1480F05D14FF0010C56
:101450000CFA00FCC2F810C0401C0828D2D314605B
:10146000B1F800C0BCF1FF0F34DD546800202EE05D
:1014700000F1080C4FF0010808FA0CF3B1F800C0B5
:101480000CEA03069E4221D183004FF00F0C0CFAA8
:1014900003F7BC4305FA03FC4CEA040491F803C0CB
:1014A000BCF1280F05D100F1080C08FA0CF8C2F8BD
:1014B000148091F803C0BCF1480F07D100F1080C6B
:1014C0004FF0010808FA0CF8C2F81080401C0828F8
:1014D000CED35460BDE8F0810246002093680B42F1
:1014E00001D0012000E00020704741617047016198
:1014F0007047000001460648006880B200EBC1005A
:1015000000F10400034A52F8100080B27047000056
:10151000505C00400060004001460648006880B210
:1015200000EBC10000F10600034A52F81000C0F3BE
:1015300009007047505C00400060004001460548CB
:10154000006880B200EBC100034A52F8100080B27C
:1015500070470000505C00400060004010B50F4B29
:1015600018680F4BD3F8EC170E4B1A68A8B10E4C45
:10157000A070030A2371030CA371030E2372A172DE
:101580000B0A23730B0CA3730B0E2374A274130AA0
:101590002375130CA375130E237610BDE8F7FF1FF8
:1015A00000F0FF1FF0F7FF1F70000020704770472A
:1015B0007047704710B518480068047A022C01D0B3
:1015C000042C05D1FFF77EFB13480068047A1CE069
:1015D000062C19D110480068407805280ED10E4815
:1015E0000068007810F07F0F08D10B490968C878AF
:1015F00001F034FD09490968086A8047084909680B
:1016000088688047082400E00824034909680C72B0
:1016100001F0EEF810BD00007801002084010020E8
:101620007C01002010B54FF400610248FFF75FFF16
:1016300010BD00000010014010B54FF400610248D9
:10164000FFF753FF10BD00000010014010B54FF42C
:1016500000610548FFF740FF10B1FFF7EDFF01E023
:10166000FFF7E0FF10BD000000100140704708B513
:101670004FF4A06000F0C2F81E208DF80000022098
:101680008DF8010000208DF8020001208DF8030084
:10169000684600F04DF84FF4A06000F0AFF803206A
:1016A0008DF8000004208DF8010003208DF8020061
:1016B00001208DF80300684600F03AF84FF4A0606E
:1016C00000F09CF81C208DF8000004208DF801002B
:1016D0008DF8020001208DF80300684600F028F81C
:1016E0004FF4A06000F08AF81D208DF8000004205F
:1016F0008DF8010005208DF8020001208DF803000F
:10170000684600F015F84FF4A06000F077F8232049
:101710008DF8000004208DF8010006208DF80200ED
:1017200001208DF80300684600F002F808BD0000B3
:10173000F0B500210022002300250F24C678EEB367
:101740002B4E366806F4E066C6F5E0664FEA1621D1
:10175000C1F1040524FA01F4467806FA05F1867809
:1017600006EA040646EA01014FEA011106784FEA4B
:1017700086764FEAD66601FA06F11E4E07784FEAE2
:10178000A70756F8272006784FEA86764FEAD667ED
:101790004FF0FF0606FA07F322EA030201EA03010B
:1017A00042EA0102134E07784FEAA70746F82720BE
:1017B000067806F01F074FF0010600E00BE006FA7E
:1017C00007F607784FEA67174FF0E02C0CEB870716
:1017D000C7F800610BE0067806F01F070126BE403F
:1017E000054F90F800C04FEA6C1C47F82C60F0BD24
:1017F0000CED00E000E400E080E100E0024901437C
:10180000024A1160704700000000FA050CED00E08C
:1018100070B502264A480068447849480068007854
:1018200010F07F0F4AD1092C03D101F03BFF06468F
:1018300065E0052C14D142480068C0787F280BDC95
:101840003F480068807838B93D480068808818B9FA
:101850003B480068807A08B108256DE000264EE01C
:10186000032C14D136480068C07801280DD13448C3
:101870000068808848B932480068407A10F0200F2C
:1018800003D001F033FF064639E0022637E0012C91
:1018900035D12B480068C07801280DD12848006850
:1018A000808848B926480068407A10F0200F03D09D
:1018B00001F092FD064622E0022620E02048006862
:1018C000007800F07F00012805D10B2C17D101F022
:1018D00083FF064613E01A480068007800F07F0096
:1018E00002280BD1012C03D101F076FD064606E05B
:1018F000032C04D101F00EFF064600E002264EB193
:10190000104800684169E0B288470646032E01D1BD
:10191000092511E00EB108250EE0062500210A4830
:10192000006880B200F10200084A42F810104FF03F
:1019300030000749088000BF014909680D7270BD79
:10194000780100207C010020505C004000600040D5
:101950008A01002010B500F015F800F099FC00F0A5
:10196000C1FC00F0E3FC00F06BFC00F043FC00F075
:101970006BFD00F08FFD00F00DFD00F033FD00F079
:1019800002F810BD7047704710B500241B4800785E
:10199000012831D1FEF748FC044619480078002898
:1019A00004DD17480078401E154908701448007877
:1019B000F8B914480078E0B900F0C2FD12481349A4
:1019C000097850F821001249086010480078114940
:1019D000097888420DD00E480068406B401C0C49C5
:1019E000096848630C480068401C0B490860FEF712
:1019F00037FC2046FEF71CFC10BD00004A0000200A
:101A00003D0000203E0000206465002040000020D2
:101A1000580000203F0000202400002070B505463B
:101A2000002612480078002801DD002070BDFEF776
:101A3000FBFB06460E480468006820B10C480068AD
:101A400040680B4908603046FEF7F2FB5CB10320AA
:101A500020702581002060603F20E0740021217506
:101A6000204600F0B9FB2046E0E700003D000020E2
:101A7000280000202DE9F04105460E4614464FF09F
:101A800000080CB9BDE8F08115B904202070F9E711
:101A90002878032802D001202070F3E7304800782E
:101AA000002802DD02202070ECE72E480078002894
:101AB00002DD0D202070E5E7FEF7B6FB80462889A1
:101AC000002808DD2889401E28814046FEF7B0FB2B
:101AD00000202070D6E72448006890F82C0040F0E1
:101AE00001002149096881F82C0000201E4909687D
:101AF00081F82D001C4800684685284600F02EFB22
:101B00004046FEF795FB00F0E1FCFEF78DFB8046BA
:101B10001548006890F82D00B0B11348006890F89F
:101B20002D70284600F084FA4046FEF781FB012F15
:101B300002D0022F03D000BF0A20207002E00E2046
:101B4000207000BF00BF9DE7002007490968C861F9
:101B50004046FEF76DFB0020207000BF92E70000BA
:101B60003D0000203E0000205000002070B50446DB
:101B700000250CB9042070BD2078032801D0012075
:101B8000F9E7FEF751FB0546A07A60B10023012278
:101B90001946204600F074FA2846FEF749FB00F08B
:101BA00095FC0020E7E720894FF6FF71884207D2B5
:101BB0002089401C20812846FEF73AFB0020DAE706
:101BC0002846FEF735FB3220D5E7000010B50B485C
:101BD000007890B900F0B4FC094800780949087011
:101BE00009480749097850F8210008490860084663
:101BF000006807490860FEF71EFB10BD4A00002080
:101C0000400000203F0000206465002058000020B4
:101C100050000020704700002DE9FE4F06460F4699
:101C200090461C464FF000093F2C02DD2A20BDE8FB
:101C3000FE8FFEF7F9FA81461E480078002804DD81
:101C40004846FEF7F5FA3C20F1E71B4850F824001F
:101C500058BB0120184941F824004846FEF7E8FA2D
:101C6000002342463946304600F0DFF88246002322
:101C7000009301931A4651462046029300F08EFCD1
:101C8000054635B90D48007801280CD100F01EFC3E
:101C900009E0FEF7C9FA81460020074941F824000F
:101CA0004846FEF7C5FA2846C1E74846FEF7C0FA9F
:101CB0002820BCE73D000020646500204A00002089
:101CC0002DE9FF4F85B006460F4690461C46DDE9DC
:101CD00013ABDDF84890002003903F2C03DD2A2051
:101CE00009B0BDE8F08FFEF79FFA03901F48007817
:101CF000002804DD0398FEF79BFA3C20F0E71C481F
:101D000050F8240068BB0120194941F824000398C9
:101D1000FEF78EFA424639463046169B00F085F8AB
:101D20000490DDE91523CDE900B202934B465246FB
:101D30002046049900F032FC054635B90D4800787C
:101D400001280CD100F0C2FB09E0FEF76DFA039008
:101D50000020074941F824000398FEF769FA284655
:101D6000BEE70398FEF764FA2820B9E73D0000209B
:101D7000646500204A000020704770472DE9F04755
:101D800005460F4614464FF000090CB9BDE8F08730
:101D90003F2D04DDFF2D02D02A202070F6E717B971
:101DA0000C202070F2E71D480078002802DD122088
:101DB0002070EBE7FEF738FA8146FF2D03D1184873
:101DC000006890F82E50174850F825602EB9484604
:101DD000FEF72EFA43202070D8E7012E05D14846A1
:101DE000FEF726FA43202070D0E7384600F0CCFBFF
:101DF0008046B8F10F0F05DD4846FEF719FA41207D
:101E00002070C3E7394606F1480000F0AFFB4846B2
:101E1000FEF70EFA0020207000BFB7E73D0000205B
:101E20005000002064650020704770B504461046DD
:101E30004FF080750560051F28462C606FF0010685
:101E4000051F28462E604FF01236051F28462E60CB
:101E50004FF00336051F28462E604FF00236051F4F
:101E600028462E607610051F28462E60051F28463E
:101E700029604FF01136051F28462E604FF01036AE
:101E8000051F28462E604FF00936051F28462E6094
:101E90004FF00836051F28462E604FF00736051F05
:101EA00028462E604FF00636051F28462E604FF05C
:101EB0000536051F28462E604FF00436051F2846BC
:101EC0002E6070BD7047000070B5054600261648AC
:101ED0000078002800DD70BD002D23DDFEF7A4F999
:101EE00006461248006890F830401148005D0F49DE
:101EF000096891F8311088430D4908550846005D7E
:101F000040B90A48006890F832100A4800788843BF
:101F1000084908700548006845853046FEF788F98D
:101F200000F0D4FA00BFD6E73D00002050000020AA
:101F3000420000204100002070B5002600F076F835
:101F4000FEF772F9064633480068401C31490860C4
:101F50003046FEF76DF930480078012858D12F48F7
:101F6000007820B1012804D0022809D103E001251E
:101F70000BE0002509E0012501202849087004E054
:101F8000012500202549087000BF00BF05B970BDBC
:101F90002348046838E0FEF747F90646608D78B3B9
:101FA000608D401E0004000C608529D194F82C003F
:101FB00010F0370F09D014F82C0F20F037002070E4
:101FC00001206070A4F12C0402E0002084F82D00B0
:101FD00094F82C0010F0080F12D104F13004A0780E
:101FE0001049097840EA01000E49087020780E492E
:101FF000085C617840EA010014F830190A4A50542C
:1020000064693046FEF714F994F82E003F28C2D1D7
:1020100000BFBCE76C0000204A00002060000020E8
:102020005C000020410000204200002070470000BA
:10203000124A126892F8301000F10B02525C0F4BFA
:102040001B6893F831309A4300F10B035A541A4637
:10205000525C32B9827A094B1B6893F832309A434A
:1020600082720022054B1B6883F82D20034B1B68EE
:1020700083F82C20014B1B68DA6170475000002068
:102080002DE9F04704460D46164694F80A90DFF80D
:10209000BCA01AF809204FF0010909FA02F909F069
:1020A000FF0804F10B0919F802901AF809704FF0B3
:1020B000010909FA07F909F0FF0C07EBC20909F059
:1020C000FF0004F10B0919F8029029EA0C0904F148
:1020D0000B0A0AF80290D14619F80290B9F1000FE4
:1020E00005D194F80A9029EA080984F80A90DFF8E3
:1020F000609059F820104FF00009A1F82A90C1F81B
:102100001C900D6281F82D3091F82C9029EA060977
:1021100081F82C9091F82C90B9F1000F13D1DFF8D1
:10212000349099F8009049EA0809DFF828A08AF865
:102130000090DFF8249019F8029049EA0C09DFF8C2
:1021400018A00AF80290BDE8F0870000D4770008D4
:1021500064650020410000204200002010B51B4AA9
:102160001268D061194A126892F83010184A525C0D
:10217000164B1B6893F831309A43154B5A541A4644
:10218000525C42B9114A126892F83230114A127800
:102190009A43104B1A700D4A126892F8303000F1D1
:1021A0000B02D25C094B1B6893F831301A43074B82
:1021B0001B6893F8304000F10B031A55827A034BE9
:1021C0001B6893F832301A43827210BD5000002011
:1021D00042000020410000200023837200F10B0127
:1021E000002204E0002301F8013B531CDAB2082A64
:1021F000F8DB704770B58C210F4800F01BF90E4CCE
:1022000004F11C0600250AE00020207066603F20D3
:10221000A0720021E1721C341C36681C85B2042DAA
:10222000F2DB0020207060603F20A0720021E1728C
:1022300001480249086070BDD86000202C000020D1
:1022400030B54FF49061104800F0F4F80E4B03F1F4
:10225000240500240AE0002018705D603F20D87437
:102260000021197524332435601C84B21F2CF2DB45
:102270000020187058603F20D8740021197502485A
:102280000249086030BD0000585C00202800002092
:1022900000200A4908600A4908700A4908700A497A
:1022A00008700A4908700A4908600A4908600A4922
:1022B00008600A4908600A49087070476C000020ED
:1022C0003D0000203E0000204B0000204A0000207E
:1022D000240000204C0000203800002034000020A2
:1022E0003C00002000220B4B1A700B49002004E038
:1022F000002201F8012B421CD0B20828F8DB002292
:10230000064B1A70064B1A70064B1A60064B1A6081
:102310007047000041000020420000203F000020E4
:1023200040000020580000205000002030B54FF43D
:10233000F261144800F07EF84FF48071124800F00A
:1023400079F8104B03F1580500240AE05D613F2045
:1023500083F8480000214920C15458335835601C87
:10236000C4B2152CF2D3002058613F2083F84800F6
:1023700000214920C1540020044908600148044953
:10238000086030BD64660020646500205C000020A9
:102390005400002000B587B00323002280210B48A1
:1023A000CDE90323CDE901014FF6FF7300933F23ED
:1023B00000F5FE7200210648FFF782FC06AA05A17F
:1023C0003F20FFF7DBFC07B000BD00006463002086
:1023D000C926000875432F4F532D49492049646C85
:1023E0006500000000B587B00323002280210B4860
:1023F000CDE90323CDE901014FF6FE7300933E239F
:1024000000F5FE7200210648FFF75AFC06AA05A156
:102410003E20FFF7B3FC07B000BD00006461002060
:10242000ED26000875432F4F532D49492053746101
:102430007400000004E0002200F8012B4A1E91B253
:102440000029F8DC7047000070B5B4210F48FFF791
:10245000F1FF0E4C00250DE0681C00EBC0000B499D
:1024600001EB800060603F202075002161752434FD
:10247000681C85B2042DEFDB002060603F202075D2
:102480000021617501480249086070BDF46D0020AB
:102490006400002070B560210A48FFF7CBFF094CAB
:1024A00004F11806002504E0266018341836681C6C
:1024B00085B2032DF8DB0020206002480249086045
:1024C00070BD0000A86E00206800002010B5002438
:1024D000FDF7AAFE044613480078F8B912480078C0
:1024E000E0B900F02DF811481149097850F82100A1
:1024F000104908600E4800780F49097888420DD0CD
:102500000C480068406B401C0A49096848630B4846
:102510000068401C09490860FDF79DFE2046FDF754
:1025200087FE10BD3D0000203E00002064650020B5
:1025300040000020580000203F0000202400002020
:102540000649074A1278885C0649095C034A515CCF
:1025500001EBC001044A117070470000D4770008F5
:1025600041000020420000204000002002460020E0
:1025700005E011F8013B02F8013B431CD8B20B788F
:10258000002BF6D1137070470146002002E0491C71
:10259000421CD0B20A78002AF9D170472DE9F84FD1
:1025A00005460E4617469846DDE90BABDDF8289048
:1025B00000200090FDF738FE00903D480468ECB321
:1025C00054F8140F3A4908600098FDF731FE44F8BA
:1025D000146CA576002020766076E08244F810AC7A
:1025E00044F8089C44F80C7C24F804BC24F8028CC1
:1025F000E077E8102077217F01208840A07705F060
:102600000700E076E17E0120884060770020A0602E
:102610002061E0602062A0626062E06220633F208F
:1026200084F83400A4F114044FF000014FF0490085
:1026300001552046FFF7EEFA204600E033E0FFF7B1
:102640009BFBFDF7F1FD00901A4840F825401A4821
:10265000006860610020A0611748006810B116484A
:10266000006884611448046004F13004A0781349C0
:10267000097840EA01001149087020781049085C87
:10268000617840EA010014F830190D4A50540D48A1
:10269000007800F101000B4908700098FDF7C8FDB3
:1026A0000020BDE8F88F0098FDF7C2FD4220F8E752
:1026B00054000020646500205C00002041000020E0
:1026C000420000204B000020002400BFFDF7ACFDBD
:1026D000044605480068401C034908602046FDF791
:1026E000A7FDFFF74AFBF1E74C000020002700BFE1
:1026F00002E0C820FFF7E8FB1A4800780028F8D06D
:10270000194800686421B0FBF1F400BFFDF78CFDAF
:1027100007461648006816490860144806680020F5
:10272000124908603846FDF783FD6CB1B6FBF4F042
:10273000C0F1640045B2002D02DB0E4805700BE0CD
:1027400000200C49087007E000200A49087006487C
:1027500000686421B0FBF1F4FFF766FB6420FFF72B
:10276000B3FBD3E73C000020340000204C000020E5
:10277000380000203000002010B511480068047AAD
:10278000032C01D0052C05D1FEF7FEFA0C48006899
:10279000047A0EE0072C05D10A490968C868804709
:1027A000082406E0022C01D0042C01D1082400E00A
:1027B0000824034909680C7200F01AF810BD0000E3
:1027C000780100207C010020F0B5561C7510064EE3
:1027D00006EB41042B4604E080CC20F8017B401C32
:1027E0005B1E002BF8D1F0BD006000407047000078
:1027F00010B50D4890F82C10002000F067FC0B4835
:102800000068007A082805D1400209490880102094
:102810000849088005480068007A092801D101208C
:1028200000E00020C0B210BDE400002078010020CC
:10283000880100208A01002010B5012001F0B8FCB9
:1028400001240D4804604FF000000C490880084640
:1028500000880B49C1F8400C4FF00000094908609E
:102860004FF4E05005490880084600880449C1F843
:10287000400C4FF0000010BD405C00408201002081
:1028800000500040445C00400146D1E90002904203
:1028900003D3D1E90002801A04E0D1E90020801AB4
:1028A000C0F5807080B27047F0B503460E461546FD
:1028B00000271846FFF7E8FF07467819FF2801DDD3
:1028C0000020F0BD00240AE0315D03F108001A6821
:1028D00081541868401CC0B21860601C84B2AC42BD
:1028E000F2DB2046EDE7F0B503460E46154600271D
:1028F0001846FFF7C9FF0746AF4200DAFDB20024D1
:102900000AE003F108005968405C30555868401CE3
:10291000C0B25860601C84B2AC42F2DB2046F0BD0D
:1029200010B503460C461846FFF7AEFF012801DA42
:10293000002010BD03F108005968405C2070586801
:10294000401CC0B258600120F3E70000014600209F
:10295000034A506820F4404008435060704700002C
:102960000010024029B1064A52690243044B5A61E1
:1029700004E0034A52698243014B5A6170470000E8
:102980000010024029B1064AD2690243044BDA61C1
:1029900004E0034AD2698243014BDA6170470000C8
:1029A0000010024029B1064A12690243044B1A6121
:1029B00004E0034A12698243014B1A617047000028
:1029C0000010024029B1064A92690243044B9A6101
:1029D00004E0034A92698243014B9A617047000008
:1029E0000010024029B1064AD2680243044BDA6063
:1029F00004E0034AD2688243014BDA60704700006A
:102A0000001002400348406A40F08070014948626B
:102A1000704700000010024010B54FF4803000F005
:102A2000BDF800F015F91249087008460078012831
:102A30001CD11020FEF738FC0220FEF777FC0020A6
:102A400000F0A0F8002000F0DDF84FF4806000F006
:102A5000CDF84FF48040FFF779FF4FF4A0114FF409
:102A6000803000F0E1F8012000F0D8F810BD00003F
:102A70001400002030B500210022002400232D4D39
:102A80006D6805F00C0121B1042905D0082923D176
:102A900005E0294D056022E0274D05601FE0254D2A
:102AA0006D6805F47012022505EB9242214D6D68A8
:102AB00005F480341CB9214D554305600BE01D4DD4
:102AC0006D6815F4003F03D01C4D5543056002E0CE
:102AD000194D5543056002E0174D056000BF00BF6A
:102AE000144D6D6805F0F0010909154D6B5C056822
:102AF000DD4045600F4D6D6805F4E061090A104D39
:102B00006B5C4568DD4085600A4D6D6805F4605179
:102B1000C90A0B4D6B5C4568DD40C560054D6D68AD
:102B200005F44041890B074D6B5CC568B5FBF3F5B7
:102B3000056130BD0010024000127A0000093D001E
:102B4000857900089579000810B501460022002318
:102B500000204A11012A02D1094C236806E0022A0A
:102B600002D1074C236A01E0054C636A01F01F02A1
:102B7000012494401C4201D0012000E0002010BD3F
:102B80000010024001460020034A506820F0F00087
:102B90000843506070470000001002401149096866
:102BA00021F480310F4A11601146096821F4802117
:102BB0001160B0F5803F03D0B0F5802F0ED106E054
:102BC0000849096841F48031064A116007E0054967
:102BD000096841F4A021034A116000E000BF00BF72
:102BE00070470000001002407047000001460020BE
:102BF000034A506820F4E0600843506070470000CA
:102C00000010024001460020034A506820F4605042
:102C100040EAC10050607047001002400149086658
:102C2000704700000000424202460020044B5868F2
:102C300020F47C1042EA01031843014B58607047AE
:102C4000001002400149086070470000D80042426D
:102C500010B5002400BF3120FFF776FF0C49087043
:102C60000C480068401C0B4908600948007828B9E6
:102C700008460068A0F58071FF39ECD13120FFF7DC
:102C800063FF08B1012400E00024204610BD0000CD
:102C9000900100208C010020704700000549098840
:102CA0006FEA000292B201EA0201034AA2F8041894
:102CB000704700000428004000200040014600202A
:102CC000074A128802EA0102D0B2064AB2F8002886
:102CD0000A4202D008B1012000E000207047000045
:102CE000042800400020004010B5FDF79DFA04467E
:102CF00010480078401C0F4908702046FDF798FAEC
:102D00000120FFF7DBFF20B10120FFF7C7FF00F034
:102D100013F8FDF789FA044606480078002804DD18
:102D200004480078401E034908702046FDF780FAE9
:102D300010BD00003D00002000BF0348008810F0D7
:102D4000200FFAD0704700000428004070470000B0
:102D500000B587B00020244908801020ADF8180085
:102D600003208DF81A0010208DF81B0006A91F48BB
:102D7000FEF72AFBE020ADF8180003208DF81A00BA
:102D800018208DF81B0006A91848FEF71DFB00202F
:102D9000ADF804004FF48270ADF806004FF4006007
:102DA000ADF808000220ADF80A000020ADF80C00D4
:102DB0004FF40070ADF80E003020ADF81000002088
:102DC000ADF812000720ADF8140001A9084800F082
:102DD0001EF90121064800F0D6F810210348FEF73D
:102DE00086FB07B000BD00001E0000200008014067
:102DF0000030014010B510210648FEF778FB602135
:102E0000054800F0CCF8044800F0FCF803490880BD
:102E100010BD000000080140003001401E000020ED
:102E200010B5044602210C4800F0D1F808B9012081
:102E300010BD094800F0E6F810210848FEF755FBE0
:102E40002146054800F0E1F801226021024800F027
:102E5000C7F80020ECE70000003001400008014006
:102E600010B5FFF7C7FF10BD00B587B0002025499A
:102E700008804FF48050ADF8180003208DF81A0038
:102E800010208DF81B0006A91F48FEF79DFA4FF48D
:102E90006040ADF8180003208DF81A0018208DF856
:102EA0001B0006A91848FEF78FFA0020ADF80400B1
:102EB0004FF48270ADF806004FF40060ADF80800E2
:102EC0000220ADF80A000020ADF80C004FF40070AD
:102ED000ADF80E003020ADF810000020ADF8120063
:102EE0000720ADF8140001A9084800F090F801216E
:102EF000064800F048F84FF480510348FEF7F7FA0F
:102F000007B000BD20000020000C01400038004048
:102F100010B54FF480510648FEF7E9FA60210548E4
:102F200000F03DF8034800F06DF80349088010BD3B
:102F3000000C0140003800402000002010B504467D
:102F400002210C4800F043F808B9012010BD0948DF
:102F500000F058F84FF480510748FEF7C6FA2146B2
:102F6000044800F052F801226021024800F038F8CD
:102F70000020EBE700380040000C014010B5FFF7DF
:102F8000C7FF10BD704721B1028842F040020280A5
:102F900004E002884FF6BF731A400280704710B5F4
:102FA0000022552905D10389038843F0400303809B
:102FB0000CE0562901D0532901D1038906E001F024
:102FC0000F040123A3409AB2D343038110BD0246EC
:102FD000002013890B4201D0012000E0002070473F
:102FE00070B5002400230C110125A540ABB21AB125
:102FF00085881D43858004E08588DE43B6B2354070
:10300000858070BD0146888970478181704710B501
:103010000022028802F441520B884C8823438C889A
:103020002343CC8823430C8923434C8923438C8935
:103030002343CC8923431A430280838B4FF2FF74CE
:10304000234083830B8A038210BD00004FF6F87182
:103050000140014A11607047505C004030B50146A4
:103060000E4B1A78002012E003060D4C04EB93532C
:10307000D3F8003C9BB248F68F742340C4B223437C
:103080000406074D05EB9454C4F8003C401C9042E4
:10309000EAD341F08003034C236030BDE000002000
:1030A000005000404C5C004010B54A105300054AE7
:1030B000126892B202EBC00202F10402024C44F820
:1030C000123010BD505C00400060004010B5024658
:1030D0001048006880B200EBC20000F106000E4C00
:1030E00004EB40033E290BDD481111F01F0F01D105
:1030F000441EA0B24FF4004444EA80241C6007E060
:10310000481011F0010F01D0441CA0B284021C60D1
:1031100010BD0000505C00400060004010B50D4B39
:1031200003EB8003D3F8003C9BB24BF68F7403EAA9
:10313000040211F4805F01D082F4805211F4005F28
:1031400001D082F40052034B03EB8003C3F8002C40
:1031500010BD000000500040094A02EB8002D2F886
:10316000002C92B24BF68F7302EA030181F4805176
:1031700081F40051024A02EB8002C2F8001C704741
:103180000050004010B54A105300044A126892B231
:1031900002EBC002024C44F8123010BD505C0040FB
:1031A00000600040054A126892B202EBC00202F1D0
:1031B0000202034B43F8121070470000505C0040BD
:1031C0000060004010B50D4B03EB8003D3F8003CCA
:1031D0009BB248F6BF7403EA040211F0100F01D04D
:1031E00082F0100211F0200F01D082F02002034B78
:1031F00003EB8003C3F8002C10BD0000005000401A
:10320000094A02EB8002D2F8002C92B248F6BF7352
:1032100002EA030181F0100181F02001024A02EB71
:103220008002C2F8001C704700500040074A02EBC1
:103230008002D2F8002C92B248F68F131A400A434B
:10324000024B03EB8003C3F8002C70470050004092
:1032500010B500F001F810BD00210020304A1268BE
:1032600042F480322E4B1A6000BF2D4A126802F4DD
:103270000030491C18B9A1F58072FF3AF5D1284AEF
:10328000126812F4003F01D0012000E00020012864
:1032900043D1244A126842F01002224B1A601A46A7
:1032A000126822F003021A601A46126842F0020203
:1032B0001A601B4A52681A4B5A601A4652685A6082
:1032C0001A46526842F480625A601A46526822F4E2
:1032D0007C125A601A46526842F4E8125A601A4642
:1032E000126842F080721A6000BF0D4A126812F034
:1032F000007FFAD00A4A526822F00302084B5A6053
:103300001A46526842F002025A6000BF044A5268EC
:1033100002F00C02082AF9D101E000BFFEE7704775
:10332000001002400020024008B52848006880B222
:1033300000F10400264951F8100080B201EB400072
:10334000009024480068007A09282FD0009800785F
:103350002049096808700098401C00900098007887
:103360001C49096848700098401C00900098801C17
:103370000090009931F8020B0091FDF780F9154992
:10338000096848800098801C0090009931F8020B71
:103390000091FDF774F90F49096888800098801C36
:1033A0000090009800880B490968C88001200949ED
:1033B0000968087207480068C08810B9FEF728FA43
:1033C00001E0FDF741FDFFF713FA08BD505C004036
:1033D00000600040780100202DE9F0475148006866
:1033E000007800F07F08B8F1000F0AD14D4800685E
:1033F000407A00F0DF004B49096848720020BDE8C0
:10340000F087B8F1020F7DD146480068408818B9AE
:1034100044480068007908B10220F0E7DFF808911D
:1034200040480068477927F080052C463D480068F1
:10343000407910F0800F07D03C4800EB8400D0F8B2
:10344000000C00F0300606E0384800EB8400D0F8AD
:10345000000C00F4405699F80000A84204D91EB1AF
:1034600030480068807A08B90220C8E717F0800F5A
:1034700010D02E4800EB8400D0F8000C00F0300093
:10348000102845D1E0B2FDF7EBFA3021E0B2FFF7AA
:1034900099FE3DE0254800EB8400D0F8000C00F4D4
:1034A0004050B0F5805F33D1CCB9214890F82C1052
:1034B000E0B2FFF70BFE1D4901EB8401D1F8001CBF
:1034C00089B24BF68F7201EA020080F4805080F4DA
:1034D0000050164901EB8401C1F8000C18E0E0B27D
:1034E000FDF7A2FA114901EB8401D1F8001C89B261
:1034F0004BF68F7201EA020080F4805080F4005095
:103500000A4900E00AE001EB8401C1F8000C00BFA9
:103510000849096848698047002070E700BF022019
:103520006DE7000078010020E0000020005000401E
:10353000E40000208401002010B504462CB90120CD
:10354000064909680882002010BD05490968086815
:103550008047024800680A30F6E700007801002042
:103560008401002010B5024606480068438A32B93B
:103570008888C01A034C24682082002010BD086887
:103580001844FBE77801002010B504462CB901204F
:10359000064909680882002010BD05490968886845
:1035A0008047024800680C30F6E7000078010020F0
:1035B0008401002010B504462CB902203549096861
:1035C0000882002010BD002033490880314800687F
:1035D000007810F07F0F1CD12E490968487A10F04E
:1035E000200F05D02C49097841F002012A4A1170B8
:1035F00010F0400F06D02849097801F0FE01264A54
:10360000117005E02449097841F00101224A117046
:103610003AE020480068007800F07F00012801D1DE
:103620001D48CFE71B480068007800F07F000228A3
:1036300028D1184A1268517901F00F0011F0800F5B
:103640000FD0164A02EB8002D2F8002C02F03002B2
:10365000102A16D1104A127842F001020E4B1A704D
:103660000FE00E4A02EB8002D2F8002C02F4405226
:10367000B2F5805F05D1084A127842F00102064B8C
:103680001A7001E000209DE7054909680869804734
:10369000014897E7780100207201002000500040A7
:1036A0008401002010B50E480068C0780D494978A3
:1036B000884213DC0A480068807878B908480068B6
:1036C000808858B906480068C0780549096888723A
:1036D0000549096848688047002010BD0220FCE7C2
:1036E00078010020E00000208401002010B5074888
:1036F0000068407A40F02000044909684872044993
:103700000968C8698047002010BD000078010020CA
:10371000840100202DE9F0412B480068467926F00D
:1037200080073C4628480068407910F0800F07D099
:10373000264800EB8400D0F8000C00F0300506E0CD
:10374000224800EB8400D0F8000C00F440552048DB
:103750000078A04208D91C480068408820B91DB1F3
:1037600019480068807A10B90220BDE8F08116F08F
:10377000800F11D0154901EB8401D1F8001C89B2EA
:1037800048F6BF7201EA020080F010000F4901EB19
:103790008401C1F8000C11E00C4901EB8401D1F85F
:1037A000001C89B24BF68F7201EA020080F480504F
:1037B000064901EB8401C1F8000C00BF0549096806
:1037C000886980470020D0E7780100200050004041
:1037D000E00000208401002010B5174B1B68D97849
:1037E000154B1B685879154B1B689A69904704461E
:1037F00011480068807AE8B13CB90F480068007948
:1038000018B90D480068807808B1022010BD8CB945
:103810000B490968C868804707480068407906492D
:103820000968C87204480068C078034909680873C9
:103830000020EBE70220E9E7780100207C0100206E
:10384000840100207047000010B51148006840F066
:1038500001000F490860084640680E4908400C49BD
:103860004860084600680C49084009490860084655
:10387000006820F4802008600846406820F4FE00BC
:1038800048604FF41F008860FFF7E2FC10BD0000A5
:10389000001002400000FFF8FFFFF6FE704770477F
:1038A0007047704710B50121014800F091F810BD34
:1038B000002C014010B5FCF7B7FC04460A4800781C
:1038C000401C094908702046FCF7B2FC012188071A
:1038D00000F000F928B1FEF72FFB0121880700F066
:1038E0007AF8FEF751F810BD3D00002010B5FCF746
:1038F0009BFC044612480078401C11490870204681
:10390000FCF796FC00F026FB01210E4800F0E2F8DF
:1039100028B101210B4800F05EF801F06DFDFCF7C5
:1039200083FC044606480078002804DD044800783B
:10393000401E034908702046FCF77AFC10BD0000C9
:103940003D0000200004004010B5FCF76DFC04466B
:1039500010480078401C0F4908702046FCF768FCAE
:1039600001210D4800F0B6F818B101210A4800F015
:1039700032F8FCF759FC044606480078002804DDBC
:1039800004480078401E034908702046FCF750FCAC
:1039900010BD00003D000020000800407047704747
:1039A000704770477047704710B50121014800F01B
:1039B0000FF810BD0034014021B1028842F08002AE
:1039C000028004E0028840F27F331A400280704790
:1039D000CA4302827047CA430282704721B10288FB
:1039E00042F00102028004E0028840F2FE331A40F5
:1039F0000280704710B504463449601A8C4245D0A5
:103A00000CDCB4F1804F1DD03148201823D0B0F524
:103A1000806F29D0B0F5006F54D12EE0B0F5806FE3
:103A20003DD0B0F58E3F03D0B0F5923F4AD13FE094
:103A30000121C802FEF7D6FF00214FF40060FEF717
:103A4000D1FF40E001210846FEF7ACFF0021012034
:103A5000FEF7A8FF37E001210220FEF7A3FF0021B7
:103A60000220FEF79FFF2EE001210420FEF79AFFBF
:103A700000210420FEF796FF25E001210820FEF733
:103A800091FF00210820FEF78DFF1CE0012110208E
:103A9000FEF788FF00211020FEF784FF13E00121CC
:103AA0002020FEF77FFF00212020FEF77BFF0AE0A9
:103AB00001214803FEF796FF00214FF40050FEF766
:103AC00091FF00E000BF00BF10BD000000100040EB
:103AD00000FCFFBF30B50246002000230024158AF9
:103AE00005EA0103958905EA010413B10CB101202F
:103AF00000E0002030BD10B51AB183890B438381EB
:103B000004E08389CC43A4B22340838110BD00002C
:103B100070B5002400220023058C4FF6FE76354058
:103B20000584028C8388048B4FF68F752C400D889A
:103B30002C43751E2A400D892A434D882A43CD887F
:103B400085860F4DA84202D00E4DA84213D14FF6E4
:103B5000F7752A404D892A434FF6FB752A408D8818
:103B60002A4347F6FF652B4047F6FF552B408D89CA
:103B70002B43CD892B4383800483028470BD0000D6
:103B8000002C0140003401400A460021018B4FF611
:103B9000F7731940114301837047000070B500248A
:103BA00000220023058C4FF6EF7635400584028C09
:103BB0008388048B48F6FF752C400D882D0644EA57
:103BC00015444FF6DF752A400D892D0542EA15424E
:103BD0004D882D0542EA1542CD880587124DA84231
:103BE00002D0124DA8421BD14FF67F752A404D8955
:103BF0002D0542EA15424FF6BF752A408D882D05E6
:103C000042EA154247F6FF352B4047F2FF752B403D
:103C10008D89AD0443EA1543CD89AD0443EA1543CC
:103C200083800483028470BD002C01400034014075
:103C30000A460021018B4FF2FF731940130641EA37
:103C4000134101837047000070B500240022002357
:103C5000058C4FF6FF6635400584028C8388848B83
:103C60004FF68F752C400D882C434FF6FF552A4098
:103C70000D892D0642EA15424D882D0642EA15426D
:103C8000CD888587124DA84202D0124DA8421BD183
:103C90004FF2FF752A404D892D0642EA15424FF634
:103CA000FF352A408D882D0642EA154246F6FF75FB
:103CB0002B4045F6FF752B408D892D0543EA1543B2
:103CC000CD892D0543EA154383808483028470BD2A
:103CD000002C0140003401400A460021818B4FF640
:103CE000F7731940114381837047000070B50023BA
:103CF00000220024058C4EF6FF7635400584028CA8
:103D00008488838B48F6FF752B400D882D0643EA87
:103D100015434DF6FF752A400D892D0742EA1542DD
:103D20004D882D0742EA1542CD88A0F84050084D35
:103D3000A84202D0074DA84205D1C4F30D048D89D5
:103D4000AD0544EA154484808383028470BD00007D
:103D5000002C0140003401400A460021818B4FF2C3
:103D6000FF731940130641EA134181837047818430
:103D700070470000028802F08F0202800A898B8857
:103D80001A4303881A430280CA8882850A6802851A
:103D900001228282044A904202D0044A904201D118
:103DA0008A7A028670470000002C014000340140EE
:103DB00000202E490870FCF719FC0020FDF72EFEAC
:103DC0002B4908600020FDF729FE2A4908600020E1
:103DD000FDF724FE284908600423284A00212848CA
:103DE000FDF71AFF0523274A00212748FDF714FF96
:103DF0000623264A00212648FDF70EFF0723254A01
:103E000000212548FDF708FF0823244A0021244803
:103E1000FDF702FF01201549087026E04FF4FA7003
:103E2000FEF752F8FDF712FC01F0C0F800F091FD2A
:103E3000054601F09FF9054300F0BAFC45EA00048D
:103E400054B9052404E06420FEF73EF8FDF7FEFBBC
:103E50002000A4F10104F6D15A20FEF7E1FF66200C
:103E6000FFF76CF8A52002F0D9FBD7E7000000208F
:103E700004000020080000200C0000209019002001
:103E8000FD59000890290020E55A000890390020CB
:103E9000255B000890490020615B000890590020D4
:103EA000995B00080EB54FF08040FFF7A3FD40F28C
:103EB000E730ADF80600472000900020ADF808007C
:103EC000ADF8040069464FF08040FFF753FF012131
:103ED0008807FFF77DFD00214FF08040FFF76CFD64
:103EE000012211469007FFF706FE01218807FFF720
:103EF00075FD0EBD3EB51648FFF77CFD1E240A2C4D
:103F000000DA0A24601E80B2ADF806004720009057
:103F10000020ADF80800ADF8040069460C48FFF732
:103F200029FF01210A48FFF753FD00210848FFF748
:103F300043FD012211460648FFF7DDFD002104483C
:103F4000FFF715FF00210248FFF748FD3EBD0000C6
:103F50000004004010B500210348FFF708FF0121CD
:103F60000148FFF73BFD10BD00040040704770475B
:103F700010B502F02FFB10BD70477047CA43028096
:103F8000704721B1828942F40052828104E0828923
:103F90004DF6FF731A4082817047000010B531481A
:103FA000007920B1012806D002280ED108E00020B7
:103FB0002D49C8800DE04FF440502B49C88008E0DF
:103FC0004FF400502849C88003E000F051F8002069
:103FD00010BD00BF2348407920B1012806D0022837
:103FE0000ED108E00020204908810DE04FF48060E8
:103FF0001D49088108E04FF4C0601B49088103E0B7
:1040000000F036F80020E3E700BF16488079072863
:1040100002D0082810D103E00020134988800FE067
:104020001148008918B900200F49888003E04FF437
:1040300080500D49888003E000F01AF80020C7E79F
:1040400000BF0848006808490860002088810C20EB
:104050004881064800F054F801210448FFF791FF19
:104060000120B5E7D8000020086F0020003801408B
:1040700010B54FF416500B49086000208880C880A6
:104080004FF4C0600881002088810C2048810648D8
:1040900000F036F8012240F22551034800F00FF8F5
:1040A00010BD0000086F00200038014002460020CB
:1040B00013880B4201D0012000E000207047F0B5CA
:1040C000034600240026002500201846C1F34214B0
:1040D00001F01F06012707FA06F5012C01D10C306B
:1040E00004E0022C01D1103000E014301AB107684E
:1040F0002F43076002E00768AF430760F0BD000090
:104100002DE9F04786B005460E460024A24600BFC2
:1041100000BF00272F462C8A4CF6FF700440F08821
:1041200004432C82AC894EF6F3100440B0883189E8
:104130000843718908430443AC81AC8A4FF6FF40C1
:104140000440B0890443AC8201A8FEF793FC1248F6
:10415000874202D1DDF810A001E0DDF80CA00AEBE7
:10416000CA0000EB0A1031688900B0FBF1F8642046
:10417000B8FBF0F004012009642101FB1089322012
:1041800000EB0910B0FBF1F000F00F0004432C81AC
:1041900006B0BDE8F087000000380140014688887D
:1041A000C0F308007047C1F308028280704770476F
:1041B00010B504462CB14FF480410548FDF795F940
:1041C00004E04FF480410248FDF791F910BD000072
:1041D000000C01407047000010B50848084908600D
:1041E000022009680872074807490860074808491B
:1041F0000860054909680868804710BD986F00206D
:1042000078010020E40000207C010020140100203F
:104210008401002008B54FF4C060FDF7EFFA1420C8
:104220008DF8000000208DF801008DF802000120BB
:104230008DF803006846FDF77BFA25208DF8000015
:1042400001208DF801006846FDF772FA08BD0000F4
:1042500010B518480068184908800846008800F41E
:10426000806016490988084206D04FF6FF30114990
:1042700008601349486880470F48008800F40070C0
:104280000E490988084209D04FF6FF5009490860D5
:104290000C48007800F101000A49087006480088BF
:1042A00000F4004005490988084201D0FCF724FACF
:1042B00010BD0000445C0040D000002082010020BE
:1042C000E40000209400002010B5FFF7C1FF06486D
:1042D000006840B104480068C1B2044800F0AEFD77
:1042E00000200149086010BD8C000020586F00209C
:1042F000F0B5144604F1010C4FEA6C07DFF824C056
:104300000CEB41033D460AE00678401C90F800C0E3
:1043100046EA0C2223F8022B9B1C401C6D1E002D2C
:10432000F2D1F0BD0060004070B504460025212C9C
:1043300008D112480068007800F07F0021280ED1D3
:104340000F4D0CE0202C0AD10C480068007800F0DA
:104350007F00212800D10B4D20200B4908700DB99A
:10436000022070BD0548006885610021034800688F
:1043700041820020A8470020F3E7000078010020D8
:10438000B543000845450008D400002010B5044698
:1043900002492046FFF7E6F810BD0000400100206A
:1043A00010B5044602492046FFF7DCF810BD0000B6
:1043B00038010020014629B90820034A12681082FA
:1043C000002070470148FCE778010020D800002059
:1043D00070B5054606480068C478042C01DD00204D
:1043E00070BD044800EBC4012846FFF7BBF8F7E7AF
:1043F00078010020480100200246002901DD02204A
:104400007047012A01DD0220FAE70020F8E70000EA
:10441000014608480068007800F07F00212807D195
:10442000022901D100207047222901D10020FAE79A
:104430000220F8E77801002010B50020344909680F
:1044400088723448C079324909684872002030497E
:104450000968C872FEF7FAFD4FF400710020FEF7FC
:10446000E5FE10210020FEF7ADFE40210020FEF702
:104470001BFE80210020FEF785FE0020FCF70CFBD0
:10448000254890F82C100020FEF720FE0020FEF7B3
:1044900063FE00210120FEF7C9FEC0210120FEF7C6
:1044A00071FE20210120FEF78DFE00210120FEF784
:1044B00035FE4FF4C0610220FEF7B8FE4FF4807164
:1044C0000220FEF75FFE00210220FEF727FE2021DA
:1044D0000220FEF777FE00210320FEF7A7FE4FF42F
:1044E00088710320FEF7E0FD40210320FEF7EEFD7A
:1044F0004FF440510320FEF711FE00210320FEF788
:1045000061FE0020FEF7AAFD01200449086010BDED
:1045100078010020E6780008E4000020680100200F
:104520000348817A11B10521024A116070470000E9
:10453000986F00206801002004200149086070473E
:1045400068010020014629B90820034A1268108238
:10455000002070470148FCE778010020D8000020C7
:1045600010B505480078202804D1FFF717FD00207A
:104570000149087010BD0000D40000207047000001
:1045800010B5FCF7EBFF00200A4909688872FEF7B6
:1045900053F90020084908604FF406400749088095
:1045A000084600880649C1F8400C4FF00000054954
:1045B000086010BD78010020445C004082010020AA
:1045C00000500040680100207047000001460229A9
:1045D00001DB0448704701EB4100034A02EB800015
:1045E0008068F7E700007AC4405C00202DE9F041C4
:1045F000FEF7AEFBFEF738FC4FF480700F490880E1
:1046000040008881404602F00BFB064600220C4B1E
:1046100002F068F9044602F081F808494860404613
:1046200002F0FEFA06460022054B02F05BF9044652
:1046300002F074F801490861BDE8F081405C002097
:10464000000024402DE9F041044614B1012C0CD1A6
:1046500005E0A520FEF7E4FB2348058807E0A52038
:10466000FEF76CFC2148058801E0BDE8F08100BF41
:10467000C5F349104FF4B47100FB01F6F11706EBD6
:104680001151081302F0DEFE074604EB4400184AFD
:1046900002EB80004168384602F0ECFE13D204EBD6
:1046A0004400134A02EB80004168384603F01AF8D0
:1046B0000646104902F05AFD04EB44010C4A02EB95
:1046C000810188600EE004EB4400094A02EB80009F
:1046D0004168384603F006F804EB4401044A02EB53
:1046E0008101886000BFC0E71E000020200000207C
:1046F000405C00200000B44310B5FBF769FFFCF7F5
:10470000F3F9FBF729FF01210348FBF714FF01210F
:104710000248FCF7DEF910BD002401400800024009
:1047200007B59DF803007038052835D2DFE800F0A2
:104730000304172A330033E000208DF80500012020
:104740008DF8060020208DF8070015218DF808103F
:1047500012218DF8091016218DF80A1020E0002092
:104760008DF8050001208DF8060020208DF8070047
:1047700016218DF8081001218DF8091013218DF8EC
:104780000A100DE002210948FCF7A6FE80F00100A6
:104790008DF8050004E003E003208DF8050000BF5C
:1047A00000BF684600F0D2FB00200EBD00080140AB
:1047B00070B500F0C5F90346012000F0CDFC83EA96
:1047C0000004012000F098FC05460648066884EACB
:1047D000050000FB06F00449B0FBF1F201FB1200FA
:1047E00070BD000008080140FFE0F50508B50C2089
:1047F000ADF8000018208DF8030003208DF80200AA
:1048000069460D48FCF7E0FD002000F081F801202A
:1048100000F07EF80020094908703220487000201E
:10482000887032210548C1704FF47A7001F060FE43
:1048300001F0D2F908BD000000080140100000207E
:1048400037B59DF80400401EC4B2022C01DB0420E1
:104850003EBD9DF80300902804D0912803D09228F3
:104860001DD118E01DE09DF80A00012803DB9DF82A
:104870000A00032801DD0520EAE79DF80A00401E32
:10488000094931F81000094901EB440148702046FC
:1048900000F00EF805E0204600F03AF801E00320B1
:1048A000D6E700BF0020D3E7CE7700081000002035
:1048B00070B5044614B1012C20D10FE0134800EB71
:1048C000440040784FF47A714843642190FBF1F042
:1048D00085B22946032001F0CBFD0FE00B4800EB29
:1048E000440040784FF47A714843642190FBF1F022
:1048F00085B22946042001F0BBFD00BF00BF0120A6
:10490000024901F8140001F013FE70BD10000020F0
:1049100010B5044614B1012C0AD104E00021032093
:1049200001F0A6FD04E00021042001F0A1FD00BF7C
:1049300000BF0020024901F8140001F0F9FD10BD8C
:10494000100000200020FF2000E0401E0028FCD1C5
:10495000704770B500F06CFB0346002000F0FCFBD4
:104960004340012000F0F8FB83EA0004002000F03F
:10497000C3FB054684EA050070BD37B59DF8070006
:1049800001069DF8080041EA00419DF8090041EA4E
:1049900000209DF80A1040EA01049DF80300D13878
:1049A0000A2859D2DFE800F005101B27333F44499D
:1049B0004E539DF8040018B1002000F09DFB01E06B
:1049C00000F036FB04464BE09DF8040018B10120CE
:1049D00000F092FB01E000F0B3F8044640E09DF8DF
:1049E000040018B1022000F087FB02E0002000F074
:1049F000B3FB044634E09DF8040018B1032000F036
:104A00007BFB02E0012000F0A7FB044628E09DF8B4
:104A1000040018B1042000F06FFB02E0022000F057
:104A20009BFB04461CE00021204601F063FE17E0DA
:104A30000121204601F05EFE12E00221204601F035
:104A400059FE0DE00321204601F054FE08E0042148
:104A5000204601F04FFE03E003208DF8050000BF63
:104A600000BF01208DF80600200E8DF80700200CF5
:104A70008DF80800200A8DF80900E0B28DF80A00D0
:104A8000684600F063FA3EBD08B50820ADF80000A6
:104A900010208DF8030003208DF8020069460448B9
:104AA000FCF792FC08210248FCF71FFD08BD00003E
:104AB0000014014010B5044624B108210448FCF755
:104AC00016FD03E008210248FCF70FFD10BD0000B1
:104AD0000014014010B504462078FF2802D1607808
:104AE000FF2801D0012010BD0C21204600F01CF849
:104AF00008B10220F7E70020F5E7002101604160DE
:104B00008160FF2101704170B0218170704710B544
:104B10000446FF2020706070B020A0700B2120465A
:104B200000F002F8E07210BD10B50246002001E06E
:104B3000535C58400B00A1F10101F9D110BD0000F8
:104B400000B54FF0006301200D49886003E00C4977
:104B5000186808601B1D0B488342F8D3002000F042
:104B6000FBFA07490860012000F0F6FA04490860E2
:104B7000022000F0F1FA024908600846006800BD12
:104B8000003002400000010810B5002440210C480C
:104B9000FCF7ADFC0120FDF797F901E0601C84B241
:104BA00080210748FCF798FC10B1B4F52C7FF5DBA9
:104BB00040210348FCF799FC0120FDF785F910BD61
:104BC000000C014008B5C020ADF8000003208DF8AE
:104BD000020014208DF8030069460248FCF7F4FB3C
:104BE00008BD0000000C01402DE9F04105460E46CD
:104BF0001746002421E000F069F8A22000F0C2F876
:104C0000FFF7C2FF2919C1F3072000F0BBF8FFF737
:104C1000BBFF2919C8B200F0B5F8FFF7B5FF00F0E7
:104C200055F8A32000F0AEF8FFF7AEFF00F00AF849
:104C3000305500F065F8601C84B2BC42DBDB2046D6
:104C4000BDE8F08170B5002480211F48FCF74FFCBF
:104C50000120FDF739F940211B48FCF746FC0120F3
:104C6000FDF732F900251CE040211748FCF73FFC16
:104C70000120FDF729F90120FDF726F980211248CE
:104C8000FCF72AFC40EA4400C4B20120FDF71CF9FD
:104C900040210D48FCF729FC0120FDF715F9681C9F
:104CA000C5B2082DE0DB80210748FCF720FC01207D
:104CB000FDF70AF940210448FCF717FC0120FDF735
:104CC00003F9204670BD0000000C014010B58021A2
:104CD0000A48FCF70CFC0120FDF7F6F840210748D4
:104CE000FCF705FC0120FDF7EFF880210348FCF7F5
:104CF000FCFB0120FDF7E8F810BD0000000C0140AE
:104D000010B580210A48FCF7F0FB0120FDF7DCF824
:104D100040210748FCF7EBFB0120FDF7D5F8802187
:104D20000348FCF7E4FB0120FDF7CEF810BD0000BE
:104D3000000C01402DE9F04105460E4617460024BF
:104D40001CE0FFF7C3FFA22000F01CF8FFF71CFFD8
:104D50002919C1F3072000F015F8FFF715FF2919ED
:104D6000C8B200F00FF8FFF70FFF305D00F00AF84F
:104D7000FFF70AFFFFF7C4FF601C84B2BC42E0DB10
:104D8000BDE8F08170B5044640211848FCF7ADFB42
:104D90000120FDF799F800251DE014F0800F04D0E4
:104DA00080211248FCF7A3FB03E080210F48FCF7A9
:104DB0009CFB6006040E40210C48FCF798FB012088
:104DC000FDF782F840210948FCF78FFB0120FDF731
:104DD0007BF8681C85B2082DDFDB80210348FCF7D7
:104DE00086FB0120FDF770F870BD0000000C01404B
:104DF00008B54FF40060ADF8000010208DF80300F6
:104E000003208DF8020069460248FCF7DDFAFCF742
:104E100009FC08BD0010014010B5FCF79BFD1E23E6
:104E2000044A00210448FCF7F7FEFCF7CFFE0020FF
:104E300010BD000090090020B13D000870B5044687
:104E40000D462A4621460648FDF72EFD064600F08F
:104E50000BF818B103480068FCF788FE304670BDB7
:104E60009C5A00200400002010B50248FDF70CFDFC
:104E700010BD00009C5A00207FB505460024FFF7B6
:104E8000F3FF0C2802DA012004B070BD3AE003A958
:104E90001F48FDF745FD5CB99DF80C00FF2831D196
:104EA0009DF80C202046611C8CB20DF8002029E0F2
:104EB000012C11D19DF80C00FF2805D0FF222046BF
:104EC000611C8CB20DF800209DF80C202046611C5E
:104ED0008CB20DF8002015E09DF80C202046611CD6
:104EE0008CB20DF800200C2C0CDB6846FFF7F2FDAD
:104EF00038B900982860019868600298A86000207E
:104F0000C2E70024FFF7B0FF0028C0D10120BBE7B3
:104F10009C5A002030B5C1B000F040F8C5B22A4616
:104F200001A90948FDF7DFFC04462246C02101A87B
:104F3000FFF7DEF921460120FEF734F90120FEF7E4
:104F40005FF941B030BD00009459002070B50446AF
:104F5000002500262046FFF7DAFD13E0FBF764F991
:104F600006460C2221460B48FDF79EFCC5B2304692
:104F7000FBF75EF935B908480068FCF7F7FD6420D7
:104F8000FCF7A2FF002DE9D003480068FCF7EEFD16
:104F900070BD0000945900200800002010B50248A0
:104FA000FDF772FC10BD00009459002010B54FF4BD
:104FB00000710848FCF790FA18B100200649087003
:104FC00007E00548007820B94FF480710148FCF7EC
:104FD0008CFA10BD001001401500002008B54FF4F8
:104FE0008070ADF8000010208DF8030003208DF8CC
:104FF000020069460C48FCF7E7F94FF480710A4853
:10500000FCF775FA4FF40070ADF8000004208DF83D
:10501000030003208DF8020069460348FCF7D4F929
:1050200001200249087008BD001001401500002051
:105030000020704730B58FB00546FCF783F9002497
:1050400005E02C4820584DF80400201DC4B2142C53
:10505000F7DBFCF71FF9002413E004F1130014211F
:1050600090FBF1F201FB12001DF80000C02101EAE3
:1050700080101DF8041040EA910005A90855601C35
:10508000C4B2142CE9DB002419E004F1130014214C
:1050900090FBF1F201FB120005A9085CF02101EA86
:1050A0000010611C142291FBF2F302FB131105AAFC
:1050B000515C40EA11100AA90855601CC4B2142CB6
:1050C000E3DB002411E02046E11704EB917104EBCF
:1050D000840202EBA101142291FBF2F302FB1311F3
:1050E0000AAA515C2955601CC4B2142CEBDB0FB02A
:1050F00030BD00000000010830B585B00446002531
:10510000052C02DD002005B030BD6846FFF792FF98
:105110005DF82450052C17D2DFE804F003090F10C6
:105120001100022000F018F86840C5430CE002208E
:1051300000F012F86840C54306E000BF00BFFFF76B
:1051400077FF6840C54300BF00BF0248454028467E
:10515000D9E70000785634120146022901DD00200B
:1051600070470348042202FB0100D0F8E807F7E784
:1051700000F0FF1F2DE9F0470220FFF7BDFF0446B6
:105180000320FFF7B9FF05460420FFF7B5FF0646E9
:105190000020FFF7E1FF03460120FFF7DDFF83EA70
:1051A00000070120FFF7D8FF03460220FFF7D4FFD6
:1051B00083EA00080220FFF7CFFF03460020FFF735
:1051C000CBFF83EA00090A48D0F800A084EA070070
:1051D00085EA0801014486EA0900084400FB0AF058
:1051E0000449B0FBF1F201FB1200BDE8F0870000BA
:1051F000080C0140FFE0F5050021094A02EB80128E
:1052000011750022064901EB80118A61044901EB06
:105210008011CA61024901EB80110A8570470000C4
:10522000A45B002070B50446154A02EB8412916815
:10523000134A02EB8412506802F054FA054600212A
:10524000284602F017F904D20E49284601F08EFFD5
:10525000054600200A4901EB841148700A49284696
:1052600002F00FFA09D20120054901EB84114870C0
:105270002946044802F036FA0546284670BD00006B
:10528000A45B00200000B4430000344338B54FF461
:105290006740ADF8000010208DF8030003208DF862
:1052A000020069462348FCF78FF84FF4005022496A
:1052B000888141002048C181490001820020FCF71B
:1052C000ADFB1D49C8634FF480711B48A0F84C101A
:1052D0004900A0F84E104900A0F850100020FCF73B
:1052E0009DFB01461448C167002420E02046FFF7DB
:1052F00083FF0020104901EB841108700E4901EB77
:10530000841148600C4901EB841188600B480A49FC
:1053100001EB8411C8620A49074800EB841001635D
:105320000021054800EB84104163601CC4B2022CCC
:10533000DCDB38BD00180140A45B00200AD7233C09
:1053400000002041FEB504462046FFF76BFF0646ED
:105350000146204600F0DEF805460020244901EB16
:105360008411087081208DF80300601CC0B28DF894
:1053700004008DF8055001208DF806001C4901EB52
:10538000841188681B4902F0A9F8064602F03AF831
:10539000000E8DF80700164901EB84118868154945
:1053A00002F09CF8064602F02DF8010C8DF808106A
:1053B0000F4901EB841188680E4902F08FF8064608
:1053C00002F020F8010A8DF80910094901EB841157
:1053D0008868084902F082F8064602F013F8C1B264
:1053E0008DF80A106846FFF7B1FD2846FEBD0000A3
:1053F000A45B00200000204110B5002480E042485A
:1054000000EB8410007DF0B33F4800EB8410018D69
:105410003D4800EB8410008D401E02B23A4800EB7C
:105420008410028579BB384800EB8410C269364885
:1054300000EB8410C069401E334901EB8411C86140
:10544000F2B3314A02EB8412516A2F4A02EB841202
:10545000106A01F08BFE2C4901EB841108622A4A84
:1054600002EB8412516B284A02EB8412106A02F09C
:1054700001F809D2244800EB8410416B224800EB6C
:105480008410016213E039E01F4A02EB8412116BB1
:105490001D4A02EB8412106A02F0F3F807D21A4890
:1054A00000EB8410016B184800EB84100162174870
:1054B0000068154901EB8411C98980EA010000E008
:1054C00006E01349C1F80C08204600F03BFA0AE058
:1054D00000200D4901EB841108750B4901EB841183
:1054E000C86BFCF743FB084901EB8411086A01F023
:1054F0006DFF01B2044800EB84100185601CC4B24A
:10550000022CFFF67CAF10BDA45B00200C180140FC
:10551000001001402DE9FF470646884654480068C0
:10552000544901EB8611898920EA01005249C1F8EA
:105530000C08504800EB8610407858B14C48006881
:105540004C4901EB8611098A40EA01004A49C1F839
:105550000C080AE046480068464901EB8611098AB2
:1055600020EA01004449C1F80C08404601F0D2FD90
:1055700004460022414B01F0A3FB0022404BCDE941
:10558000000101F0AFF9814600223E4B01F0F8F82E
:10559000CDE9020101F0FEFA4100364800EB861029
:1055A00081610027334901EB8611C86A01F0B2FD21
:1055B00021F000410446344A344B01F07FFC15D2FF
:1055C0002C4A02EB8612516B2A4A02EB8612106BB0
:1055D00002F088F80546274800EB8610C16A284685
:1055E00001F032FE044601F00DFF0746214800EBB2
:1055F00086108069B0EB470F14D81E4800EB861068
:10560000806947083946304600F03AF918B102205F
:1056100004B0BDE8F0873946304600F017F9E0B134
:105620000220F5E73946304600F02AF908B1022099
:10563000EEE7104800EB86108069022202FB17019A
:10564000304600F069F908B10220E1E739463046FA
:1056500000F0FCF808B10220DAE7064800EB8610FB
:105660004068044901EB861188600020D0E7000003
:105670000C180140A45B0020001001400000A9406C
:10568000008076400000E03F2D431CEBE2361A3FDD
:105690002DE9F7439DF80400401E00F0FF08B8F123
:1056A000020F02DB0420BDE8FE83644800EB881093
:1056B0000078012801D10220F5E7604800EB88104E
:1056C000007808B10620EEE79DF803008038062830
:1056D0007DD2DFE800F00304414B6D4FAAE09DF856
:1056E00007100A069DF8081042EA01429DF80910C9
:1056F00042EA01219DF80A2041EA020001F079FA0C
:10570000064600224E4B01F0EDF8044601F006F883
:105710004A4901EB881148609DF80410474A02EBA2
:1057200081114868474901F0ACFF06D20020434987
:1057300001EB881148600520B5E7684600F012F9D2
:1057400001203E4901EB881108703C4901EB8811AA
:10575000C86BFCF70BFA6DE00020384901EB8811AB
:105760000875364901EB8811087063E0684600F05F
:10577000F9F85FE09DF807100A069DF8081042EA64
:1057800001429DF8091042EA01219DF80A2041EAF0
:10579000020001F02EFA04460022294B01F0A2F883
:1057A000064600F0BBFF254901EB8811886300BF66
:1057B00000208DF8050001208DF806001F4901EB3F
:1057C0008811886B204901F089FE044600E02FE033
:1057D00001F018FE000E8DF80700184901EB881142
:1057E000886B194901F07AFE044601F00BFE010CAA
:1057F0008DF80810114901EB8811886B124901F0EE
:105800006DFE044601F0FEFD010A8DF809100B49FA
:1058100001EB8811886B0C4901F060FE044601F031
:10582000F1FDC1B28DF80A106846FFF78FFB01E069
:10583000032038E700BF002035E70000A45B00200C
:1058400000002440000061450000204138B50446B6
:105850000D460A4800EB84102946C26A204600F033
:1058600035F8064901EB84116A46C86B42F21071A3
:10587000FCF700F99DF8000038BD0000A45B002093
:10588000F8B504460D46104800EB8410016B0E4835
:1058900000EB841001620C4800EB8410C16A002008
:1058A00001F020FF064602462946204600F00EF889
:1058B000054901EB84116A46C86B42F21071FCF78E
:1058C000D9F89DF80000F8BDA45B002070B504462F
:1058D0000D4616460F4800EB8410007800B970BDE5
:1058E0000C4800EB841046620A4800EB8410C56146
:1058F000084901EB8411086A01F068FD01B205480E
:1059000000EB841001850120024901EB8411087528
:1059100000BFE4E7A45B002038B504460D46002232
:1059200029462046FFF7D2FF054901EB84116A465C
:10593000C86B42F21071FCF79DF89DF8000038BD6D
:10594000A45B002010B504462046FEF77BFE2046EF
:10595000FEF73CFE024901EB8411886010BD000097
:10596000A45B002031B50020009948710120009906
:105970008871009909791F4A02EB811188681E49D4
:1059800001F0ACFD044601F03DFD000E0099C87128
:1059900000990979174A02EB81118868164901F0CC
:1059A0009DFD044601F02EFD010C00980172009946
:1059B0000979104A02EB811188680F4901F08EFDC8
:1059C000044601F01FFD010A00984172009909790F
:1059D000084A02EB81118868074901F07FFD0446FF
:1059E00001F010FDC1B2009881726846FFF7AEFA6F
:1059F00038BD0000A45B0020000020411FB500203E
:105A0000039002E01420FCF75FFA34480078002885
:105A1000F8D062E06846FFF72FFA38B103AA4FF4D6
:105A20007A712F480068FCF725F856E09DF80200CF
:105A3000C02800D051E09DF8030000F0F00090284D
:105A40001DD005DC48B1702830D0802838D109E05D
:105A5000A0281ED0D02833D12DE09DE80700FAF70A
:105A600016FE34E09DE80700FFF712FE8DF80500F2
:105A70009DF8050010B16846FFF768FA27E09DE839
:105A80000700FEF7DDFE8DF805006846FFF75EFAB9
:105A90001DE09DE8070000F0F7F98DF805009DF87E
:105AA000050010B16846FFF751FA10E09DE80700C5
:105AB000FEF736FE0BE09DE80700FEF75EFF06E00E
:105AC00003208DF805006846FFF740FA00BF00BFCD
:105AD000002000900190029000BF9BE70000002092
